:100000000C9423070C9440070C9440070C94172D74
:100010000C9440070C9440070C9440070C94400744
:100020000C9440070C9440070C94DF140C94F818BF
:100030000C94AC260C9440070C9440070C94400799
:100040000C9440070C9440070C9440070C94400714
:100050000C9440070C94B8150C9440070C9440077E
:100060000C9440070C9440070C9440070C944007F4
:100070000C9440070C9440070C9440070C944007E4
:100080000C9440070C9440070C9440070C944007D4
:100090000C9440070C9440070C9440070C944007C4
:1000A0000C9440070C9440070C944007202020201B
:1000B0006162636465666768696A6B6C6D6E6F70B8
:1000C0007172737475767778797A31323334353664
:1000D00037383930524542545F2D3D5B5D5C233BE0
:1000E00027602C2E2F2020200000000000000000A0
:1000F0000000000000000000000000000000000000
:100100000000000000000000000000007E0F00D48E
:10011000FFFFFFC7000000780000000000000000A3
:100120002A2B280000000000000000000000000052
:1001300000000029000000002C1E3420212224345D
:100140002627252E362D3738271E1F20212223242F
:1001500025263333362E37381F0405060708090ACB
:100160000B0C0D0E0F101112131415161718191A67
:100170001B1C1D2F3130232D350405060708090AE5
:100180000B0C0D0E0F101112131415161718191A47
:100190001B1C1D2F3130354C2B0014001A00090098
:1001A00013000A00294704281524162217210700E6
:1001B00029521D001B000600190005000000000068
:1001C0000000245223522C004C00407E1C001800DA
:1001D0000F000D00284812280C24083211210B00B2
:1001E000737C38003700360010000E00000000005D
:1001F0000000255222522A00010014001A000800B3
:1002000015001700010004281624072209210A00FE
:1002100001001D001B000600190005000000000081
:1002200000000100010001000100010012000C00AB
:1002300018001C00010013280F240E320D210B00A2
:1002400001003800370036001000110000000000E7
:100250000000010001000100000036023702260202
:10026000270223023100330033022E002E02210226
:100270000000340031022F02300220020000000092
:1002800000000000010001000000220224023000F2
:100290002F001F02340238021E0225022D003502F3
:1002A00000003800370036002D0235000000000045
:1002B00000000000010001000100310034003600A0
:1002C0003300000000005428562457225521000016
:1002D000000000000000000000000000000000001E
:1002E000000001000000000030002E0061006000EE
:1002F0005F002F00580063285E245D325C212D00D2
:10030000000000005B005A005900350000000000AA
:1003100000002C00620001000100310034003600B2
:1003200033000000000054285624572255210000B5
:1003300000000000000000000000000000000000BD
:10034000000001000000000030002E00610060008D
:100350005F002F00580063285E245D325C212D0071
:10036000000000005B005A0059003500000000004A
:10037000000000006200010000001E001F002000BD
:100380002100220000003A283B243C223D213E006F
:10039000000044004500680069006A000000000099
:1003A00000000000000000000000270026002500DB
:1003B00024002300000043284224413240213F0012
:1003C00000006F006E006D006C006B00000000000C
:1003D000000001000000000000000000000000001C
:1003E000000000000000000000000000000000000D
:1003F00000000000000000000000000000000000FD
:1004000000000000000000000000000000000000EC
:1004100000000000000000000000000000000000DC
:1004200000000000000000000000000000000000CC
:100430000000000000000000010028004A005200F7
:100440004D00010001000100500051004F0001006B
:100450000100010001000100010001000000000096
:100460000000010001000100010001000100010085
:10047000010001000100E300E200E100E0000100F2
:100480000100010001000100010001000000000066
:10049000000001000100010001006852D400CD00FD
:1004A000D500010001000100CF00CE00D000010006
:1004B0000100010001000100010001000000000036
:1004C00000000100DF00D100010001000100010077
:1004D0000100010001000100DC00D900DA00DB00AE
:1004E0000100010001000100010001000000000006
:1004F00000000100DD00D20001000100AE00A900F3
:10050000A800010001000100AC00AA00AB0001003E
:1005100001000100010001000100010000000000D5
:10052000000001006A520100000000000000147C7D
:10053000137C000000000000127C107C117C000085
:1005400000000000707C727C717C000000000000E4
:1005500000000100010001002B0014001A00080037
:1005600015001700E10004001600070009000A004A
:10057000E0001D001B00060019000500000000003F
:100580000000E2002B522C004C00E60012000C0090
:1005900018001C00280013000F000E000D000B00B7
:1005A000390038003700360010001100000000004C
:1005B00000000100010001006A521E001F0020001F
:1005C0002100220029002300240025002600270006
:1005D0000100010001000100010001000000000015
:1005E000000001002B520100010001000100010088
:1005F00001000100010001000100010001000100F3
:1006000001000100010001000100010000000000E4
:10061000000001000100010000DA0281FFD9F1DBD6
:1006200020A4A62EAF00A0C0D30000A1C8D3000014
:10063000AED580A81F408D142000526169736500FB
:100640004C6F7765720044656661756C74004C612F
:100650007965723A200080818283848586878889C3
:100660008A8B8C8D8E8F9091929394A0A1A2A3A43B
:10067000A5A6A7A8A9AAABACADAEAFB0B1B2B3B4B2
:10068000C0C1C2C3C4C5C6C7C8C9CACBCCCDCECFF2
:10069000D0D1D2D3D4000001010101010101010137
:1006A0000202020202020202020303030303030323
:1006B00003040404040404040505050505060606F0
:1006C0000606070707070708080808090909090AAD
:1006D0000A0A0B0B0B0C0C0C0D0D0D0E0E0E0F0F52
:1006E0000F101011111112121313141415151616E0
:1006F0001717181819191A1A1B1B1C1D1D1E1E1F4F
:100700002020212222232424252626272829292A9D
:100710002B2C2D2D2E2F30313232333435363738C5
:10072000393A3B3C3D3E3F404142434445464748C1
:10073000494A4C4D4E4F50515354555658595A5B97
:100740005D5E5F616264656668696B6C6D6F707237
:10075000737577787A7B7D7E8082838587888A8CA3
:100760008E8F91939596989A9C9EA0A2A3A5A7A9D7
:10077000ABADAFB1B3B5B7BABCBEC0C2C4C6C9CBCE
:10078000CDCFD1D4D6D8DBDDDFE2E4E7E9EBEEF084
:10079000F3F5F8FAFDFF00AF00AE05010902A10173
:1007A00085020901A1000509190129081500250183
:1007B0009508750181020501093009311581257FF0
:1007C00095027508810609381581257F9501750800
:1007D0008106050C0A38021581257F95017508816F
:1007E00006C0C005010980A101850319012AB700CF
:1007F000150126B700950175108100C0050C09018F
:10080000A101850419012AA002150126A002950163
:1008100075108100C005010906A1018506050719AB
:10082000E029E715002501950875018102050719E2
:100830000029EF1500250195F075018102050819C1
:10084000012905950575019102950175039101C076
:1008500005010906A101050719E029E71500250191
:100860009508750181029501750881010507190038
:1008700029FF150026FF0095067508810005081957
:100880000129051500250195057501910295017550
:10089000039101C009023B00020100A0FA09040013
:1008A0000001030101000921110100012244000798
:1008B000058103080001090401000103000000098B
:1008C000211101000122B600070582032000011258
:1008D000010002000000085346010001000102006F
:1008E000010C0343006F0072006E006500000010F1
:1008F0000366006F006F007300740061006E0000FB
:1009000000040309040000000000003E5B4F5B3E52
:10091000003E6B4F6B3E001C3E7C3E1C00183C7E34
:100920003C18001C577D571C001C5E7F5E1C00009D
:10093000183C180000FFE7C3E7FF00001824180068
:1009400000FFE7DBE7FF0030483A060E0026297972
:10095000292600407F05050700407F05253F005AF6
:100960003CE73C5A007F3E1C1C0800081C1C3E7FD4
:100970000014227F2214005F5F005F5F0006097F82
:10098000017F00006689956A006060606060009485
:10099000A2FFA2940008047E04080010207E20100C
:1009A0000008082A1C0800081C2A0808001E10104D
:1009B0001010000C1E0C1E0C0030383E38300006A3
:1009C0000E3E0E060000000000000000005F000068
:1009D00000000700070000147F147F1400242A7F02
:1009E0002A12002313086462003649562050000082
:1009F0000807030000001C224100000041221C00E7
:100A0000002A1C7F1C2A0008083E0808000080708D
:100A1000300000080808080800000060600000209E
:100A200010080402003E5149453E0000427F40004C
:100A3000007249494946002141494D3300181412BA
:100A40007F10002745454539003C4A49493100415E
:100A50002111090700364949493600464949291EEE
:100A600000000014000000004034000000000814E2
:100A7000224100141414141400004122140800022E
:100A800001590906003E415D594E007C1211127C4D
:100A9000007F49494936003E41414122007F4141A2
:100AA000413E007F49494941007F09090901003E53
:100AB00041415173007F0808087F0000417F4100D9
:100AC000002040413F01007F08142241007F404048
:100AD0004040007F021C027F007F0408107F003E20
:100AE0004141413E007F09090906003E4151215E16
:100AF000007F091929460026494949320003017F30
:100B00000103003F4040403F001F2040201F003FA6
:100B10004038403F00631408146300030478040362
:100B2000006159494D4300007F41414100020408E2
:100B3000102000004141417F0004020102040040F6
:100B40004040404000000307080000205454784013
:100B5000007F284444380038444444280038444442
:100B6000287F0038545454180000087E09020018E9
:100B700024241C78007F080404780000447D400091
:100B8000002040403D00007F102844000000417FCD
:100B90004000007C04780478007C08040478003865
:100BA00044444438007C1824241800182424187C59
:100BB000007C080404080048545454240004043FF2
:100BC0004424003C4040207C001C2040201C003C71
:100BD0004030403C004428102844004C9090907CC9
:100BE000004464544C440000083641000000007783
:100BF0000000000041360800000201020402003C2F
:100C00002623263C00000000000000000000000039
:100C10000000000000C0E0F0F8F81800C0F0FCFE92
:100C2000FFFFFFFFFFFFFF7E00000000000000004D
:100C30000080C0E0E0E0E0E0E0E0E0C08000000034
:100C40000080C0E0E0E0E0E0E0E0E0C08000000024
:100C5000E0E0C0C0E0E0E0E00000E0E0C0C0E0E0D4
:100C6000E0E0E0C0800000000080C0E0E0E0E0E004
:100C7000E0E0E0C080000000000000000000000094
:100C8000000000E0F0F0F0E0ECEEF7F37020007C04
:100C90007C7C7E007E7E7E7F7F7F000080C0E07E49
:100CA0005B4F5BFEC00000C000DCD7DEDEDED7DCC1
:100CB00000C0000000000000000000000000000074
:100CC0000000000000000000000000000000F8FC30
:100CD000FEFFE000FFFFFFFFFFFF80FFFFFFFFFFC2
:100CE000FFFFFFFF1F0701000000000000000000E1
:100CF000FFFFFF8100000000000081C3C3C30000AC
:100D0000FFFFFF8100000000000081FFFFFF0000E7
:100D1000FFFFFF01000000000000FFFFFF010000D7
:100D2000000001FFFFFF0000FFFFFF9D1C1C1C1CBB
:100D30001C1C9DDFDFDF0000000000000000000041
:100D40000000000F1F3F7F7F7F7F7F3F1E0C001F33
:100D50001F1F3F003F3F3F7F7F7F00307B7F78300A
:100D6000202030787F3B0003000F7F0F0F0F7F0F95
:100D70000003000000000000000000000000000070
:100D80000000000000000000000000000000030F51
:100D90001F3F3F3F3F1F1F3F3F7F7F7F3F3F1F3F23
:100DA0007F7F7F7F7C7878381C0F00000000000078
:100DB00000010307070707070707070301000000F3
:100DC00000010307070707070707070301000000E3
:100DD00007070700000000000000070707000000E9
:100DE00000000007070700000001030707070707C7
:100DF00007070703010000000000000000000000DA
:100E000000000000000000000000000000000000E2
:100E100000000000000000000000000000000000D2
:100E200000000000000000000000000000000000C2
:100E300000000000000000000000000000000000B2
:100E400000000000000011241FBECFEFDAE0DEBF7B
:100E5000CDBF11E0A0E0B1E0E2ECF4E602C0059005
:100E60000D92AC3BB107D9F726E0ACEBB1E001C085
:100E70001D92A231B207E1F70E94D3260C940B32E7
:100E80000C940000B0E0A0E0E8E4F7E00C944D2EF4
:100E900020913A0130913B012817390721F4209124
:100EA00006042032A9F190933B0180933A0120E29D
:100EB000209306046C01F12CE12C1092050405E04E
:100EC00014E0D0E0C0E08AE0882E912CA12CB12C57
:100ED000C701B601A50194010E948A2E605D6033AE
:100EE00011F4209731F0C114D104E104F10409F4A4
:100EF00060E2F80162938F01C701B601A501940178
:100F00000E948A2E69017A012196C530D10501F728
:100F100080E094E0CDB7DEB7ECE00C94692E482F6A
:100F20002091FF039091C60357E0291302C080E08F
:100F3000089530E0529FF001539FF00D1124E953C2
:100F4000FC4F8181681306C08081481303C08581EE
:100F50008111EECF2F5F3F4F2770E7CFFC01AC012F
:100F60004C5F5F4F8FEF91E32191822728E030E0C3
:100F700087FF09C0880F892721503109C9F7E41775
:100F8000F50791F70895880FF7CFE8EDF0E080813D
:100F90008E7F80831092E2001092DA001092E100BE
:100FA000A0EEB0E08C9181608C9380818F778083FC
:100FB00019BCA7EDB0E08C918E7F8C9380818F7EE1
:100FC00080831092970308952091E4003091E5000A
:100FD00095E6A9012091EC00822F817020FF06C0C8
:100FE0008091E80080FF06C080E008952091E8002D
:100FF00022FD1AC08091BC03882389F0853089F0D6
:101000008091EB0085FD0FC02091E4003091E50058
:1010100042175307F9F29150E1F684E0089582E017
:10102000089583E0089581E008958091BE0387FFCD
:1010300013C08091E80082FF06C08091E8008B77A2
:101040008093E80004C08091BC038111F2CF089521
:101050008091BC038823D9F38091E80080FFF8CF0A
:101060008091E8008E77ECCF982F9093E900242FA1
:10107000762F50E0891731F07091EC002091ED004F
:101080005091F00021FD07C09F5F973071F780936A
:10109000E90081E008953091EB003E7F3093EB0052
:1010A0003091ED003D7F3093ED003091EB003160E9
:1010B0003093EB007093EC002093ED005093F00020
:1010C0002091EE0027FDE0CF80E00895B0E0A0E0A1
:1010D000ECE6F8E00C94512EC8EDD0E088818F7ECC
:1010E0008883E7EDF0E080818160808384E082BFC7
:1010F00081E08093970388818E7F888302EE10E0E1
:10110000F80110821092DA0081EEC82ED12CF6017F
:10111000108288818F77888388818068888388811E
:101120008F7D888319BC1092BC031092BD0310926E
:10113000BB031092BA0390EEE92EF12CF7018081E7
:101140008B7F808388818160888342E060E080E0DB
:101150000E943408F60180818E7F8083F8018081AF
:1011600081608083808188608083F70180818E7FA9
:101170008083888180618883CDB7DEB7E8E00C94F6
:101180006D2EFC018091C4039091C50386179707CB
:10119000A0F06115710529F49091E8009E77909375
:1011A000E80090E06115710551F4911108C080913B
:1011B000E80082FF34C080E00895BC01F2CF809146
:1011C000BC038823C1F18530C1F18091E80083FD23
:1011D00030C08091E80082FDEACF8091E80080FF76
:1011E000E1CF8091F3002091F200382F6115710555
:1011F00019F02830310558F091E02830310509F018
:1012000090E02091E8002E772093E800CBCF8191E9
:101210008093F100615071092F5F3F4FE7CF8091BC
:10122000BC03882341F0853041F08091E80083FFC2
:10123000BECF81E0089582E0089583E00895809113
:101240009903089587E797E7909301088093000832
:1012500088E19AE00FB6F894A895809360000FBEDD
:1012600090936000FFCF2FB7F89460919103709135
:10127000920380919303909194032FBF089520913E
:1012800039012223C9F02091950327FF15C0E62FCD
:10129000E695E695E695EE31D8F4E80FF92FF11DC5
:1012A000677021E030E001C0220F6A95EAF72095CF
:1012B0008281282322830895FC0132960896219189
:1012C000621303C0DF0111971C92E817F907B9F701
:1012D0000895209139012223C1F02091950327FF21
:1012E00014C0E62FE695E695E695EE31F8F4E80FA2
:1012F000F92FF11D677021E030E001C0220F6A95DF
:10130000EAF78281822B82830895FC0132962FEFC7
:1013100030E04191641751F02F3F19F4411101C0A1
:10132000232F3F5F3630A9F72F3F09F40895820F2E
:10133000911D27FD9A95FC0162830895A3E0B0E01A
:10134000E4EAF9E00C94572E20918E0330918F033C
:1013500028173907A1F090938F0380938E03E091B3
:101360008C03F0918D03309751F024E029839B8307
:101370008A830680F781E02DCE0101960995239698
:10138000E2E00C94732EA3E0B0E0E9ECF9E00C94F9
:10139000572E20918A0330918B0328173907A1F02B
:1013A00090938B0380938A03E0918C03F0918D03DB
:1013B000309751F023E029839B838A830680F7814D
:1013C000E02DCE01019609952396E2E00C94732E50
:1013D000FA01811101C0FB0109950895ECE7F3E0E2
:1013E0001182828184608283089580917403982F92
:1013F0009E7F71F480917403817082608093740386
:10140000809177038B3518F08AE5809377030895F0
:10141000843080F7F5CFAF92BF92DF92EF92FF92C8
:101420000F931F93CF93DF93082F162FE901E42F1B
:10143000F0E0EA56F94F611110C0E4915E2F4E2F93
:101440004983E8835A83DF91CF911F910F91FF90D9
:10145000EF90DF90BF90AF900895E62EF12C44916D
:10146000D42EE42FF0E026E0829FC00111242FEF5C
:1014700030E0B9010E94332E802F90E0880F991F31
:1014800055E5569FD001579FB00D11248A1B9B0B29
:10149000982F990F890F5901AE18BF08AE9ED00141
:1014A000AF9EB00DBE9EB00D11245B2F189F800122
:1014B0001124012F11275901A01AB10AAE9E8001F3
:1014C000AF9E100DBE9E100D11245901A81AB1082F
:1014D000AE9CC001AF9C900DBE9C900D1124892F35
:1014E0009927281B390B2E9FC0012F9F900D3E9FDF
:1014F000900D1124E92F62307105A1F050F46115AF
:10150000710509F49DCF6130710581F0EB2F512FEA
:1015100097CF6430710569F080F06630710509F489
:101520008FCFF4CFE42F4B2F592F8ACFE42F412FA9
:1015300087CFEB2F542F492F83CF4B2F5D2DE12FDA
:101540007FCF282F35EB2303C001112497FF04C060
:1015500080589109892F089580589F4FFBCFCF93D2
:101560008091C10290E0880F991FFC01EE54FE4F5C
:10157000208186559E4FFC0180819091C8021916EA
:1015800014F42093C8029091C80297FF04C0922FD0
:1015900091959093C8029091C902191614F4209362
:1015A000C9029091C90297FF03C021952093C902F7
:1015B0009091CB02191614F48093CB029091CB0238
:1015C00097FF04C0982F91959093CB029091CA02F7
:1015D000191614F48093CA029091CA0297FF03C0AF
:1015E00081958093CA028091C802882389F0C091B6
:1015F000C902CC2369F00E94A10A8823E1F08093FC
:10160000C8028C2F0E94A10A8823B9F08093C902D6
:101610008091CB02882369F0C091CA02CC2349F0A3
:101620000E94A10A8093CB028C2F0E94A10A809372
:10163000CA02CF91089581E0E2CF81E0E7CF80E058
:101640000895F894E82FE295EF70F0E031A1282F8B
:101650002F7081E090E001C0880F2A95EAF7982F5B
:101660009095932391A392A1892B82A378940895B6
:101670009091950392FF10C041E0282F24712430EF
:1016800009F040E031E0282F2871283009F030E0DF
:10169000431711F02CE0822793FF10C041E0282F60
:1016A0002471243109F040E031E0282F28712831DD
:1016B00009F030E0431711F02CE0822730919603B7
:1016C00030FF10C051E0282F2171213009F050E087
:1016D00041E0282F2871283009F040E0541711F01C
:1016E00029E0822731FF10C041E0282F21712131EC
:1016F00009F040E031E0282F2871283109F030E06E
:10170000431711F029E0822794FD877E08958238DF
:101710009105B9F1B0F48133910509F47DC048F425
:101720008932910509F46DC08A32910509F47BC0B4
:1017300008958533910509F45FC08933910509F156
:101740000895833E9105D9F138F4803E910529F141
:10175000823E910579F10895863E9105D9F1873E43
:10176000910509F43EC0843E910541F52091960310
:1017700021FF24C08091950384FD19C087EE90E07D
:10178000089520919503237009F05AC02091960383
:1017900023FF14C089E290E008952091950320FD75
:1017A00038C03091960330FF09C024FF43C090E059
:1017B00080E008952091950322FDF7CF08952091B0
:1017C000950322FD3AC03091960330FD39C024FFC5
:1017D000F5CFEDCF2091950323FFF0CF24FDE7CF88
:1017E000CDCF2091950323FD2EC03091960331FF7C
:1017F000EECF84EE90E008952091950325FFDECF93
:10180000C9CF2091950325FD21C02091960323FF88
:10181000D5CF89E390E0D2CF2091950326FFCECF9C
:101820008AE290E008952091950326FFC7CF81E3D7
:1018300090E0089583EE90E0089582EE90E00895A0
:1018400080EE90E0089586EE90E0089585E390E0C4
:101850000895972F7830B8F46630A8F48C30B0F43F
:1018600070E026E0929F600D711D1124FB0190E352
:10187000899FE00DF11D1124EE0FFF1FE856FE4F6A
:1018800085919491089580E090E0089581E0FCCFE7
:101890001F93CF93DF930E94870BEC01C11580E566
:1018A000D807F0F5C11580E4D80708F09CC0C03E09
:1018B000D10520F5CD3CD10508F082C0C83AD1054C
:1018C00078F4C53AD10508F073C0C130D10519F1DB
:1018D000209709F1C430D105F0F4D0E0C0E01BC07E
:1018E000C33CD105D0F7C85AD0E0CC0FDD1FC05B98
:1018F000DE4F0990D881C02DD4640DC0C11580E29F
:10190000D80708F0D1C0C11581E0D80708F05AC047
:10191000C83ED10510F7CE01DF91CF911F910895F8
:10192000C03682E5D80718F5C03482E5D80708F03C
:101930006BC0C03282E5D80708F05FC0C11582E5F0
:10194000D80708F497C02C2F2695269580E2289F6B
:10195000900111248C2F8370C1E0D0E002C0CC0F25
:10196000DD1F8A95E2F7C22BD32BDD68D4CFC03AB6
:1019700082E5D80760F4C03882E5D80708F459C07A
:10198000CF71D0E0DC2FCC27C46FD06AC4CFC03C6D
:1019900082E5D80708F462C0C03E82E5D80708F0A7
:1019A0009CCFDC2FCC27CC27DF71C06FD06AB3CFA0
:1019B000C55AD0E0C35BDE4FC881D0E0D064ABCF66
:1019C000D065A9CF8D2F0E94380B182FCE019927F3
:1019D0000E94870BC12FD0E0DC2FCC27CC27DF71F2
:1019E000C82BD92B98CFCE0199270E94870BCC27E3
:1019F000DF70C82BD92BD06A8ECFCF71D0E0DC2F0F
:101A0000CC27C16FD06A87CF2C2F269526952770BB
:101A100080E2289F900111248C2F8370C1E0D0E0D8
:101A200002C0CC0FDD1F8A95E2F7C22BD32BDC68F6
:101A300072CF2C2F26952695277080E2289F900143
:101A400011248C2F8370C1E0D0E002C0CC0FDD1FC9
:101A50008A95E2F7C22BD32BDA685DCF8C2F8F717A
:101A60000E94380BC82FD0E0DC2FCC27CC27DF71A9
:101A7000D06251CF8C2F8F710E94380B55E0D695D4
:101A8000C7955A95E1F7CF70D0E0DC2FCC27282FEF
:101A900030E084FF05C044E0220F331F4A95E1F790
:101AA000C22BD32BD06937CF8D2F8F710E94380B6B
:101AB000182FCE0199270E94870BC12FD0E0DC2F71
:101AC000CC27CC27DF71C82BD92BD2CF8091220213
:101AD00081111092220208958095909121029823FD
:101AE0009093210208958091FF039091C60398136B
:101AF00001C008958F5F8770FACFB0E0A0E0E3E8FF
:101B0000FDE00C94502E7C010091960210919702FA
:101B10008091230290912402082B192BCFE0D0E072
:101B2000CC24C394D12CBC2EC6010C2E02C0880F2D
:101B3000991F0A94E2F780239123892B49F4219776
:101B400090F7B12C8B2DCDB7DEB7E9E00C946C2E5D
:101B5000B7018C2F0E94290C0E94480C019779F341
:101B6000F1CFCF93DF93EC010E947D0DBE010E9467
:101B7000290C0E94480CDF91CF910895983078F598
:101B8000863068F5E82FF0E086E0989FE00DF11DC3
:101B900011249E2F977083E0F695E7958A95E1F7DB
:101BA000EE0FFF1FEE0FFF1FE052FE4F50E040E030
:101BB00080E0219130E0092E02C0369527950A94E5
:101BC000E2F721703327042E01C0220F0A94EAF7AE
:101BD000822B4F5F5F4F4430510559F7089580E0E5
:101BE0000895983098F5863088F5E82FF0E086E083
:101BF000989FE00DF11D11248E2F877041E001C0E8
:101C0000440F8A95EAF783E0F695E7958A95E1F720
:101C1000EE0FFF1FEE0FFF1FE052FE4F30E020E0FF
:101C200070E05191DF011197CB01022E02C0969511
:101C300087950A94E2F7817081958527842385270B
:101C40008C932F5F3F4F2430310559F708959093BF
:101C5000970280939602089521E030E002C0220F9F
:101C6000331F8A95E2F720953095809196029091E6
:101C70009702822393230E94270E08959091FF01DB
:101C8000809589238093FF01282F277069F4891795
:101C900059F09091960392FF07C086958695869598
:101CA0000E942C0E1092FF01089521E030E002C046
:101CB000220F331F8A95E2F7809196029091970246
:101CC000822B932B0E94270E0895909324028093D9
:101CD00023020895FC0124812223C1F08081918197
:101CE0000E94B10D92959F70963091F058F4925FDA
:101CF0009F70923058F4803F19F030F4883E30F4F1
:101D000081E008959A5FF4CF843FD1F380E0089595
:101D1000883EB0F3813FD1F7F3CFA6E0B0E0E3E92E
:101D2000FEE00C94562E26E0FC01DE011196019097
:101D30000D922A95E1F7FC01258189819A81222360
:101D400099F0662389F00E947D0D182F682F8981F4
:101D50009A810E94F10D69817A81812F0E94290C5C
:101D60002696E3E00C94722E0E94BE0D182FF3CF3E
:101D70009C013A9521153F4120F491FF02C082E079
:101D8000089580E00895CF93DF93682F81E06A3053
:101D900019F06D3031F480E00E94510FDF91CF9146
:101DA0000895809110069091110626E0FC01AAE0AA
:101DB000B6E001900D922A95E1F7603E08F458C014
:101DC00026E0FC0111922A95E9F7C0911006D09106
:101DD000110646E050E0BE018AE096E00E94FE2E29
:101DE0009E012A503440892B41F1C90145E0969566
:101DF00087954A95E1F741E050E0BA0102C0660FCD
:101E0000771F8A95E2F7CB0160910804709109046D
:101E1000862B972BB9016B5F7F4FE5E07695679531
:101E2000EA95E1F702C0440F551F6A95E2F7842B4B
:101E3000952B90930904809308042A5F3F4F4091AB
:101E40000704642F70E0C9010E94332E481B4630FE
:101E500010F4240F311D211572E0370710F030E027
:101E600020E0265F3B4F309311062093100696CF5B
:101E7000F6E06F9FB00111246B5F764F46E050E0B3
:101E80000E94E82EA2CFCF93DF93EC01FE01849154
:101E9000811103C0DF91CF9108950E94C30E219656
:101EA000F5CFCF93382FE0911006F0911106EA504C
:101EB000F44020910704622F70E0CF010E94332E7E
:101EC000281B822F332361F066E00E947E2EC82FEC
:101ED000C15010F4CF91089580E20E94C30EF8CF54
:101EE0009F01280F311D2115324018F080E0F0E0ED
:101EF000E0E08E0F9F2F911D865F9B4F9093110600
:101F000080931006E7CF0E94430F81E00E94510F9B
:101F100008958091210290912002892B8093BE0127
:101F2000909122029923A1F0892B8093BE01809188
:101F300039018823E1F18091950387FF38C08EE154
:101F4000E0ECF1E090E08150A0F591110E94660D67
:101F500040E250E060E072E08EEB91E00E94FE2EE5
:101F6000892B21F180E2EEEBF1E0A0E0B2E00190FC
:101F70000D928A95E1F7E0918C03F0918D033097F3
:101F8000A9F080913901882359F08091950387FF4A
:101F900007C08091BE018093BF0186E08093BE019F
:101FA0000280F381E02D8EEB91E00995089586E0A3
:101FB000C7CF2191222339F29F5FC5CF882341F0FB
:101FC0008095909120028923809320020E94890F9E
:101FD000089580918603882329F082E20E94DE0F13
:101FE000109286030895882339F090912002982B4F
:101FF000909320020E94890F0895882321F00E9467
:102000006C0D0E94890F0895882339F09091210268
:10201000982B909321020E94890F08950F931F938C
:10202000CF93DF93EC01FC0101900020E9F78F01D1
:1020300001501109C017D10728F0DF91CF911F91EE
:102040000F91089589910E94C30EF4CF0F931F93AF
:10205000CF93DF938B01EA019091BC03943061F53B
:102060008093E9008FEF9091E800815095FD06C0C4
:1020700095ED9A95F1F700008111F5CF8091E80078
:1020800085FF1AC00E94E407811111C08091E80009
:1020900085FD06C08091E8008E778093E800F2CF3E
:1020A000F80181918F018093F100219779F7809158
:1020B000E8008E778093E800DF91CF911F910F9118
:1020C000089543E050E0BC0182E00E94261008958C
:1020D00046E050E0BC0182E00E9426100895CF93B4
:1020E000DF93EC0180913901811111C048E050E08B
:1020F000BE0181E00E94261080E2FE01AAE9B3E061
:1021000001900D928A95E1F7DF91CF91089580912A
:10211000950387FF05C040E282E050E0BE01EACFB0
:1021200048E081E0FACF609132018091740380FF32
:1021300020C08091310143E0849FC0011124845369
:102140009D4F539A2BB1277F3BB138605FB7F8940E
:10215000FC01649FE00DF11D1124BF016817790790
:10216000D1F45FBF8FE594E00197F1F700C0000064
:102170000895809133019091340123E0829FF00112
:102180001124E453FD4F8917A0F6118210821282A8
:102190008F5F3396F8CFFC014191CF01E8E03BB966
:1021A000000000C047FF2BB9440F000000C000C072
:1021B00000C02BB900C0EA9591F7D0CFB0E0A0E005
:1021C000E4EEF0E10C944F2E7C015B016A018091FA
:1021D000570201E010E08A3010F40AE010E0C1E09C
:1021E000D0E0B501C701F6010995811104C021961F
:1021F0000C171D072CF4CDB7DEB7EAE00C946B2E5C
:10220000CC9F9001CD9F300D300D112490E080E0E7
:1022100045E34A95F1F70000019682179307C1F74D
:10222000E0CF80913102811119C088EC90E02091BB
:10223000E30027FD10C0EFE3FCE93197F1F700C0A0
:1022400000000197A1F782E0809331020E94C50748
:102250001092BC0303C081E08093310281E0909131
:102260003102913011F080E0089508950E9411111B
:10227000882359F0E0918C03F0918D03309729F079
:102280000190F081E02D0995089580E008950F9365
:102290001F930E941111882329F00E9433091F9176
:1022A0000F9108950E94330900915802109159022C
:1022B00020915A0230915B02600F711F821F931FA1
:1022C000EECFB0E0A0E0E7E6F1E10C94512E6C0116
:1022D0007B0164E670E088E70E94912B8C01E601A7
:1022E000EC0CFD1C17FD0BC0FE01849164E670E050
:1022F0000E94FD2B8C012196CE15DF0599F70E94D7
:10230000732C81E00115110509F080E0CDB7DEB72F
:10231000E8E00C946D2E80918403909185039111D7
:1023200003C091E089270895882369F062E070E096
:1023300088E997E00E946111811103C080918403B4
:1023400008951092840380918403EBCFCF93C091C2
:102350008403809185038823D1F00E943309605A59
:1023600075418F4F9F4F60938003709381038093DB
:10237000820390938303C11108C062E070E086E994
:1023800097E00E946111811105C0C09184038C2FD8
:10239000CF91089581E080938403F7CFB0E0A0E06F
:1023A000E4EDF1E10C944D2E49015A016B017C01E1
:1023B0000E94F5098401A4016A2D7B2D88E090E03C
:1023C0000E94E93194014A2D5B2DB601C70100E25C
:1023D0000E94CD2E622F84E290E00E94D731CDB7CB
:1023E000DEB7ECE00C94692EA3E0B0E0EAEFF1E197
:1023F0000C94532EF82E062F142FE22E8091740386
:1024000080FF52C0909175039F1108C09091760390
:10241000961304C090917703941729F090917E034E
:10242000926090937E03E82FE695F0E0E654FE4F2D
:10243000908190937C038E7F823001F5412F1B3574
:1024400008F04AE59E012F5F3F4F602F8F2D0E94BD
:102450000B0A8091740380FF11C02B8139814A815E
:10246000809133019091340153E0859FF001112454
:10247000E453FD4F8917E0F00E949310F09275032A
:102480000093760310937703EE2071F0209174038C
:1024900060917803709179033F2DA80180917A03B0
:1024A00090917B030E94CE112396E6E00C946F2E50
:1024B0004183308322838F5F3396DCCFE4E7F3E000
:1024C000438121E1421B08F440E021E062818181E7
:1024D0000E94F4110895E4E7F3E0438121E1420F03
:1024E00008F44FEF21E0628181810E94F411089588
:1024F000E4E7F3E0628121E1621B08F460E021E09F
:10250000438181810E94F4110895E4E7F3E0628140
:1025100021E1620F08F46FEF21E0438181810E9485
:10252000F4110895E4E7F3E0818121E043816281C1
:102530008A500E94F4110895E4E7F3E0818121E0DC
:1025400043816281865F0E94F4110895809178032F
:10255000882319F08150809378032091740330917F
:1025600075034091760350917703609178037091E1
:10257000790380917A0390917B030E94CE11089594
:1025800080917803833018F48F5F809378032091D3
:1025900074033091750340917603509177036091F5
:1025A00078037091790380917A0390917B030E9464
:1025B000CE110895E4E7F3E083E0808311828FEF8A
:1025C00082838AE583831482ACE7B3E012968C9110
:1025D0001297836012968C93758123E030E04FEF61
:1025E0005AE560E0868197810E94CE11089590910E
:1025F000960392FB222720F9281779F080FB92F9A5
:1026000090939603609195037091960384E090E017
:102610000E94F53182E00E943E0E0895A4E0B0E0F1
:10262000E4E1F3E10C94562E40913A0250913B02C2
:1026300060913C0270913D022FB7F8948091910314
:1026400090919203A0919303B09194032FBF841BA8
:10265000950BA60BB70B11E084369105A105B105CA
:1026600070F10E9447116E5F7F4F8F4F9F4F6983BC
:102670007A838B839C838091110190911201825CFB
:102680009D4F4091100150E04530510510F044E05D
:1026900050E0BE016F5F7F4F0E940B2F82E090E001
:1026A0000E94BD2D182F882351F00E94330960939A
:1026B0003A0270933B0280933C0290933D02812F3B
:1026C0002496E3E00C94722EACE0B0E0EAE6F3E18D
:1026D0000C94572E88E0E4E7F3E0DE0111960190B8
:1026E0000D928A95E1F780917C0390917D03A091F2
:1026F0007E03B0917F0389879A87AB87BC872B8540
:1027000040915302509154026091550270915602CB
:102710003FB7F8948091910390919203A091930315
:10272000B09194033FBF841B950BA60BB70B843667
:102730009105A105B10510F4222319F18091190129
:1027400090911A01825C9D4F4091180150E04D30EC
:10275000510510F04CE050E0BE016F5F7F4F0E94CA
:102760000B2F83E090E00E94BD2D882369F00E942A
:1027700033096093530270935402809355029093EF
:10278000560210927E0381E02C96E2E00C94732EA8
:10279000EF92FF921F93CF93DF9300D000D00F9260
:1027A000CDB7DEB77B0190E080E00E94BD2D182FF1
:1027B000882309F487C04091030150E04115510579
:1027C00011F041E050E06091040170910501625CFC
:1027D0007D4FCE0105960E940B2F409136025091FD
:1027E000370260913802709139022FB7F8948091C6
:1027F000910390919203A0919303B09194032FBF02
:10280000841B950BA60BB70B84369105A105B1056A
:1028100040F48FE392E00E94AE079D81891709F48E
:1028200051C081E090E00E94BD2D81111AC010E0DE
:102830008091320290913302A0913402B09135021E
:10284000F70180839183A283B383812F0F900F9030
:102850000F900F900F90DF91CF911F91FF90EF900D
:10286000089540910B0150E04530510510F044E0CF
:1028700050E060910C0170910D01625C7D4FCE01C2
:1028800001960E940B2F8FE392E00E94AE079D817C
:102890008913CDCF0E9433096093360270933702BB
:1028A000809338029093390289819A81AB81BC81EF
:1028B0008093320290933302A0933402B093350296
:1028C00011E0B6CF80913F0290914002A091410269
:1028D000B091420289839A83AB83BC831111E4CF08
:1028E000A7CFA8E0B0E0E7E7F4E10C94572E66EE3E
:1028F0007EEF90E080E00E94F53160E082E090E0C1
:102900000E94D73160E083E090E00E94D7311092BE
:1029100024021092230260E074E184E090E00E94BF
:10292000F53160E086E090E00E94D7316FEF87E0FC
:1029300090E00E94D73140E050E0BA0188E090E09A
:102940000E94E93160E084E290E00E94D73160E0CB
:1029500087E190E00E94D73160E08CE090E00E9437
:10296000D73160E08DE090E00E94D73119821A8261
:102970001B821C821D821E821F82188648E050E046
:1029800068E170E0CE0101960E94C73140E050E05E
:10299000BA0180E290E00E94E93140E050E0BA01E3
:1029A0008FE090E00E94E93140E050E0BA0183E11D
:1029B00090E00E94E9312896E2E00C94732E1F9279
:1029C0000F920FB60F9211242F933F934F935F9363
:1029D0006F937F938F939F93AF93BF93EF93FF93E7
:1029E0008091E10082FF09C08091E20082FF05C072
:1029F0008091E1008B7F8093E1008091DA0080FF7D
:102A000024C08091D80080FF20C08091DA008E7FA2
:102A10008093DA008091D90080FF9DC080E189BD5C
:102A200082E189BD09B400FEFDCF81E08093BC0343
:102A300080919703811109C00E94C5070E94660812
:102A40008091E20084608093E2008091E10080FF49
:102A500017C08091E20080FF13C08091E2008E7F5A
:102A60008093E2008091E20080618093E200809197
:102A7000D80080628093D80019BC85E08093BC03A5
:102A80008091E10084FF2BC08091E20084FF27C089
:102A900080E189BD82E189BD89B5982F917080FF61
:102AA000FBCF8091D8008F7D8093D8008091E1008A
:102AB0008F7E8093E1008091E2008F7E8093E20020
:102AC0008091E20081608093E2008091BD038823C1
:102AD00009F447C084E08093BC038091BC038091DB
:102AE000E10083FF27C08091E20083FF23C0809133
:102AF000E100877F8093E10082E08093BC03109225
:102B0000BD038091E1008E7F8093E1008091E2001F
:102B10008E7F8093E2008091E20080618093E200EA
:102B200042E060E080E00E9434088091F00088601C
:102B30008093F000FF91EF91BF91AF919F918F91A2
:102B40007F916F915F914F913F912F910F900FBEA9
:102B50000F901F90189519BC1092BC031092970308
:102B600074CF8091E30087FD93E09093BC03B5CFD1
:102B700078941F921FB61F9211248F939F93AF9347
:102B8000BF938091910390919203A0919303B09190
:102B900094030196A11DB11D80939103909392031C
:102BA000A0939303B0939403BF91AF919F918F91A2
:102BB0001F901FBE1F9018959C014FB7F8948091ED
:102BC000910390919203A0919303B09194034FBF0E
:102BD000821B930B08952FB7F894809191039091E5
:102BE0009203A0919303B09194032FBF08950E9484
:102BF000EB159C019091C8028091C902982B21F09D
:102C00003093C5022093C4029091CA028091CB02F6
:102C1000982B21F03093C3022093C202E0918C03E1
:102C2000F0918D03309749F082E08093C6020480D2
:102C3000F581E02D86EC92E009950895109221022D
:102C400080913901E0ECF1E08823F9F0809195035F
:102C500087FF1BC08EE1DF011D928A95E9F790E0A6
:102C600080E00E94C30990E080E00E949E091092DB
:102C700020020E94890F86E0E6ECF2E0DF011D925F
:102C80008A95E9F70E94F715089586E0E4CFAAE255
:102C9000B0E0EDE4F6E10C94562E8EEB93E020913B
:102CA000F100FC012193CF01F3E0863C9F07B9F7C7
:102CB0008091BF03833009F470C0B8F4813009F407
:102CC00047C0823009F4B1C08091E80083FF7EC222
:102CD0008091BE039091BF039A3008F077C2E92F2C
:102CE000F0E0E35FFD4C0C94AC2E8A3009F48CC00C
:102CF0008B3009F46FC0893039F78091BE0381327F
:102D000019F78091C2039091C3030297E8F680916E
:102D1000E800877F8093E8008091E80082FF38C058
:102D20009091F3008091F200029731F48091F100CC
:102D3000813011F0863021F48091F1008093990365
:102D40008091E8008B778093E8000E941508BCCF43
:102D50008091BE03813A09F0B7CF8091E800877F68
:102D60008093E8008091C2039091C303892B61F4A2
:102D700060E28AE993E070E00E94C1088091E80077
:102D80008B778093E800A0CF60E090E080E0F3CF05
:102D90008091BC038111C0CF97CF8091BE03813A4F
:102DA00009F092CF8091C2039091C303892B09F05F
:102DB0008BCF8091E800877F8093E8008091E800C6
:102DC00080FFFCCF809139018093F1008091E80071
:102DD0008E77B9CF8091BE03813209F075CF809193
:102DE000C2039091C303892B09F06ECF8091E80054
:102DF000877F8093E8000E9415088091C00380932C
:102E000039010E941E1660CF8091BE03813209F005
:102E10005BCF8091E800877F8093E8000E941508CF
:102E20008091C103809398034FCF8091BE03813A74
:102E300009F04ACF8091E800877F8093E800809175
:102E4000E80080FFFCCF80919803BECF803899F0D6
:102E5000823809F0BBC18091C2038F70873008F0BF
:102E6000B5C18093E9008091EB0085FB882780F94C
:102E70001092E90006C08091BA039091BB039111B2
:102E800082609091E800977F9093E8008093F10032
:102E90001092F1008091E8008E7794C1882309F4A4
:102EA00082C1823009F092C18091C003811185C135
:102EB0008091C2038F702FEF280F263008F086C153
:102EC0008093E9002091EB0020FF77C1933031F42B
:102ED0008091EB0080628093EB006FC19091EB00DA
:102EE00090619093EB0021E030E001C0220F8A95C1
:102EF000EAF72093EA001092EA008091EB008860E4
:102F0000EACF811163C11091C0031F778091E30064
:102F10008078812B8093E3008091E800877F809305
:102F2000E8000E9415088091E80080FFFCCF8091A6
:102F3000E30080688093E30082E0111183E08093D6
:102F4000BC0344C18058823008F040C18091C00366
:102F50009091C1038C3D23E09207A1F583E08A8321
:102F60008AE289834FB7F894DE01139620E03EE0B1
:102F700051E2E32FF0E050935700E49120FF03C0AB
:102F8000E295EF703F5FEF708E2F90E0EA30C0F077
:102F9000C7968D939D932F5F243159F74FBF809132
:102FA000E800877F8093E8006AE270E0CE01019636
:102FB0000E94C1088091E8008B778093E80006C1E9
:102FC000C096E7CF4091C2035091C303292F332706
:102FD0002330310509F444C078F52130310509F476
:102FE0006FC08BE390E0E4E9F8E02230310509F0AE
:102FF000EDC02091E800277F2093E8002091C403D2
:103000003091C5038217930708F49C0140E0211515
:10301000310509F064C0411162C08091E80082FD71
:10302000C9CF8091BC03882329F2853019F28091A1
:10303000E80083FFF2CFBECF21323105A9F1223261
:10304000310509F0C3C04115510509F443C04130B1
:10305000510509F0BBC086EB90E0EAE9F7E0C9CF83
:10306000992781309105C1F0009759F0029709F036
:10307000ADC0E1EEF8E0E4918E2F90E0E1EEF8E0F3
:1030800007C0E1E0F9E0E4918E2F90E0E1E0F9E0A3
:10309000009709F49BC0ADCFEFEEF8E0E4918E2FDE
:1030A00090E0EFEEF8E0F4CF4115510571F04130BA
:1030B000510509F08BC089E090E0EFEBF8E099CF83
:1030C00082E190E0EFECF8E094CF89E090E0E6EA6E
:1030D000F8E08FCF84E490E0E0E5F8E08ACF8091DB
:1030E000BC03882309F466CF853009F463CF80914F
:1030F000E80083FD5FCF8091E80082FD8ECF809154
:10310000E80080FF84CF9091F3008091F2002115B8
:10311000310519F08830910550F041E0089709F029
:1031200040E08091E8008E778093E80070CF449172
:103130004093F1003196215031090196E8CF803853
:1031400009F044C08091E800877F8093E800809177
:10315000BD038093F1009ECE811138C01091C00351
:103160001230A0F58091E800877F8093E8001093EB
:10317000BD030E941508112311F084E005C0809161
:10318000E30087FDFACF81E08093BC0342E061EC6D
:1031900081E00E94340842E261EC82E00E9434083F
:1031A0008091BC0313C08091C003813079F481E029
:1031B000933009F080E08093BB031092E900809186
:1031C000E800877F8093E8000E9415088091E8005E
:1031D00083FF0AC08091E800877F8093E800809198
:1031E000EB0080628093EB00AA96E3E00C94722ED1
:1031F0001F920F920FB60F9211242F933F934F936C
:103200005F936F937F938F939F93AF93BF93CF936E
:10321000DF93EF93FF93D091E900DF708091EC0092
:10322000C82FC17080FDC0E81092E9008091F000C5
:10323000877F8093F00078940E9447161092E900EF
:103240008091F00088608093F000CD2BCF70C09308
:10325000E900FF91EF91DF91CF91BF91AF919F91E5
:103260008F917F916F915F914F913F912F910F902F
:103270000FBE0F901F9018950E941E162FEF84E32B
:103280009CE0215080409040E1F700C0000088E1C0
:103290009AE00FB6F894A895809360000FBE9093C3
:1032A0006000FFCF4091C102662309F456C0242F6D
:1032B00030E0220F331FF901EE54FE4F90818D3C18
:1032C00031F491959093C9020E94F71508958E3CB0
:1032D000C9F38F3C21F491959093C802F5CF803DBE
:1032E000D9F326553E4FF9019081893D19F4909309
:1032F000CA02EACF8A3D11F49195F9CF8B3D21F4B2
:1033000091959093CB02E0CF8C3DD9F39FE2980F3B
:10331000983070F4815D990B21E030E001C0220FFC
:103320008A95EAF78091C702822B8093C702CCCF9F
:103330008D3D51F481E08093C1028091C1028417D8
:1033400019F20E94AF0AC0CF8E3D11F482E0F3CF94
:103350008F3D09F0B9CF83E0EECF8D3C39F49091E9
:10336000C90297FF09C01092C902AECF8E3C69F422
:103370009091C9021916BCF38D5D833008F0A4CF7B
:103380001092C1024111DDCF9FCF8F3C39F4909153
:10339000C80297FFF1CF1092C80296CF803D29F462
:1033A0009091C8021916BCF3E7CF893D39F490918A
:1033B000CA0219160CF71092CA0286CF8A3D29F468
:1033C0009091CA0297FFD8CFF6CF8B3D39F4809108
:1033D000CB0287FF79CF1092CB0276CF8C3D29F4B8
:1033E0008091CB021816BCF36FCF9FE2980F9830F4
:1033F00008F0C2CF815D990B21E030E0A90102C045
:10340000440F551F8A95E2F7CA0180959091C70233
:1034100089238BCF882399F19CEF980F913A40F440
:10342000682F8EEB91E00E943F090E94890F08955A
:1034300090E2980F983050F4877091E001C0990F96
:103440008A95EAF7892F0E946C0DEFCF9BE5980FC4
:10345000933028F490E080E00E94C309089598E535
:10346000980F9B3128F490E080E00E949E09089517
:1034700093E3980F933118F460E00E945219089575
:10348000CF93C82F8823D9F18CEF8C0F813AC8F5E0
:1034900080913901882311F18091950387FF1EC027
:1034A000EC2FE695E695E695F0E0E254FE4F82813A
:1034B00090E04C2F477021E030E002C0220F331F14
:1034C0004A95E2F782239323892B91F06C2F8EEBA0
:1034D00091E00E943F090E94890F0AC0E0ECF1E0F0
:1034E00086EC91E02191C21789F38E179F07D1F7DF
:1034F0006C2F8EEB91E00E9469090E94890FCF9199
:10350000089580E28C0F883068F4C77021E030E0C5
:1035100001C0220FCA95EAF780912102822B809385
:103520002102EBCFEBE5EC0FE33040F4F0E0E35B9E
:10353000FE4F808190E00E94C309E1CFE8E5EC0FE7
:10354000EB3150F4F0E0EE0FFF1FE05BFE4F8081A7
:1035500091810E949E09D3CF83E38C0F833178F64B
:1035600061E08C2F0E945219CACF1F93CF93DF9333
:10357000182FD0E0C0E0893311F4C0E5D0E0812FEE
:103580000E94401A209739F4812F0E940A1ADF9175
:10359000CF911F9108958FE99FE00197F1F700C047
:1035A00000002197EFCF0F931F93CF93DF93C42F8A
:1035B000D22FFC0185818823A9F0409389030E94C2
:1035C000EB159093880380938703C77081E001C057
:1035D000880FCA95EAF70E940410DF91CF911F91DE
:1035E0000F91089510918903141336C080918703B9
:1035F000909188030E94DC152091370130913801A9
:103600008217930748F5C0E2CD0F1D17B9F080E28D
:10361000810F883040F4177081E001C0880F1A953F
:10362000EAF70E94FD0FC83048F481E09D2F9770A3
:1036300001C0880F9A95EAF70E940410802F0E941B
:10364000B51AC83050F6D77081E001C0880FDA95FE
:10365000EAF70E94FD0FC1CFC77081E001C0880F5B
:10366000CA95EAF7F6CF0F931F93CF93DF93C82F36
:103670008B010E94B80ED82F0E94F30F8C2F0E944E
:10368000401A0115110559F48C2F0E940A1A8D2F2A
:103690000E94DE0FDF91CF911F910F9108958FE966
:1036A0009FE00197F1F700C0000001501109E9CF38
:1036B0000E941111882319F00E94EB1508950E94B1
:1036C0004711CB01089560917403669570E041E065
:1036D00050E086E391E00E94F12E892B19F481E0FD
:1036E00080937D030E94581B90936F0380936E0319
:1036F00080917E03846080937E03089520917403FB
:1037000020FF35C0217022602093740380917E03D6
:10371000816080937E03662381F030917503409130
:1037200076035091770360917803709179038091CB
:103730007A0390917B030E94CE1160917403669589
:1037400070E041E050E086E391E00E94F12E892B89
:1037500079F00E94EE0981E08093710320E04091AE
:10376000770360917603809175030E94F4110895A8
:103770000E94631BF0CF809174038695815009F4F9
:1037800081E061E00E947E1B089561E081E00E947B
:103790007E1B0895A4E1B0E0E0EDFBE10C944C2E1B
:1037A0008E01035F1F4F88E0D8011D928A95E9F7CB
:1037B00088E8C82E81E0D82EF12CE12CAA24A3940D
:1037C000B12C22E9822E21E0922EF60181916F0127
:1037D0008F3F09F442C0F894E82FE295EF70F0E0D3
:1037E00021A18F70A50102C0440F551F8A95E2F7F1
:1037F000CA01922F982B91A392A18095892382A32D
:10380000789400C0ECE8F1E0712C31E021912F3F79
:1038100009F46BC0A22FA295AF70B0E090968C9186
:1038200090E02F7002C0959587952A95E2F780FD6C
:103830005CC0832F782A330F8E169F0639F7F60166
:10384000319780818F3F11F00E94210B50EA5A95E9
:10385000F1F7F801EE0DFF1D70828FEFE81AF80AFC
:10386000A4E0EA16F10409F0B0CF48E050E0B80156
:103870008CE592E00E94FE2E009741F028E0F801CE
:10388000ACE5B2E001900D922A95E1F70091650256
:10389000892B69F181E0809329020E94EB159093B6
:1038A00028028093270280912702909128020E948B
:1038B000DC15059700F110E009591D4F44E050E078
:1038C0006CE572E0C8010E94FE2EF12C892B51F0AC
:1038D00084E0ECE5F2E0D80101900D928A95E1F7E1
:1038E000FF24F3941092290207C080E0A3CF8091B7
:1038F00029028111D8CFF12C0E941111E82EE091FC
:103900006502882309F47DC019821A821B821C82F9
:103910000E2F10E009591D4F809157028A30D8F5BB
:1039200048EC53E1BE016F5F7F4FC8010E94DE107B
:10393000882309F455C04EE053E1BE016F5F7F4F0D
:10394000C8010E94DE10882309F44AC044E653E10E
:10395000BE016F5F7F4FC8010E94DE10882309F40B
:103960003FC0109257028091640290E044E050E022
:10397000BE016F5F7F4F89599D4F0E94FE2E21E04F
:1039800020933002892BF1F4E12C8E2D8F2964963F
:10399000EDE00C94682E80912A0290912B020E94F7
:1039A000DC15843F914008F0BBCF80913002882322
:1039B00059F384E0FE013196DF011D928A95E9F703
:1039C00010923002E0916402F0E0E959FD4F8981E4
:1039D0009A81AB81BC8180839183A283B383D5CF4D
:1039E000809157028F3F31F08F5F809357028A306A
:1039F00008F4B9CF0E94EB1590932B0280932A0212
:103A0000D4CFF0E0E959FD4F84E0AFE3B2E001909C
:103A10000D928A95E1F78FE392E00E94AE078093C2
:103A20003E028090430290904402A0904502B090E4
:103A3000460280912C0290912D02A0912E02B0910D
:103A40002F0288169906AA06BB06D1F080922C0296
:103A500090922D02A0922E02B0922F020E9411117C
:103A600081110EC00E943309861A970AA80AB90A62
:103A70008092580290925902A0925A02B0925B0230
:103A80008CE0E7E4F2E0DE01119601900D928A9558
:103A9000E1F7809147028695D0904802C090490294
:103AA000B0904A020091500210915102909152023E
:103AB00010925102112309F468CF14FD90937F03F3
:103AC00010FF0BC029819091740320FF1AC09160F0
:103AD0009093740360E00E947E1B11FF06C020E0FB
:103AE0004B2D6C2D8D2D0E94F41112FF04C000236C
:103AF000A9F00E94631B13FF48CF81E080937103FC
:103B000044CF9E7F909374030E94EE0980917E03C0
:103B1000816080937E030E949310DFCF0E94EE09A4
:103B2000EACFB0E0A0E0E7E9FDE10C944D2E7C0186
:103B3000FC018481882309F4ACC061E0C7010E94C4
:103B40008D0EEC01F7018581882309F4A5C580E27B
:103B500080932901D0939902C09398029E0130521C
:103B60002115F0E23F0730F4F7018681807F39F1BB
:103B7000FE010BC0CE0190548115904108F05DC04C
:103B8000F7018681807FFE0109F0FF27ED33F10503
:103B900060F4E455FF4FE491E0932901F70181813E
:103BA00080939B02808180939A02C0348EE7D8076D
:103BB00009F451C0C1349EE7D90709F4D1C5CE013B
:103BC0002115304308F4992720E28C33910520F425
:103BD000FC01E455FF4F20811F922F939F938F93F9
:103BE000F70180811F928F9381811F928F938CE3C5
:103BF00091E09F938F931F9288E18F938EE792E0DD
:103C00009F938F930E94142F2DB73EB7225F3F4F93
:103C10000FB6F8943EBF0FBE2DBFC3373CE7D307A6
:103C200009F03FC5F7018581882321F18091860342
:103C30008823A1F10E94E90F1DC0CE019A9581153C
:103C40009F4108F495CFCE01805A9245809708F4A1
:103C5000ACCFFE019BCF8091960290919702F2E04B
:103C60008F270E94270E80912102827219F486EE1E
:103C70000E94B51A8091FF01877059F0F701858184
:103C8000882339F08091960382FF03C082E00E946E
:103C90003E0ECDB7DEB7ECE00C94692E10922102F7
:103CA0000E94660D0E94EB1588579C4E90937902F6
:103CB0008093780281E080938603DCCFC11580E594
:103CC000D80708F020C5F7018681807F51F1CE0129
:103CD0009927109220028832910508F071C08E3128
:103CE000910508F074C0049708F45FC082E08093E7
:103CF00020026DC0C03E92E5D90708F043C0C03C29
:103D0000E2E5DE0770F4C036F2E5DF0708F4FBC435
:103D1000C03A22E5D20728F0C43B32E5D30709F0C8
:103D2000F2C4F7018581882309F45BC5C137FCE73C
:103D3000DF0709F4DBC0C2372CE7D20709F4E0C083
:103D4000C0373CE7D30709F057C580913701909100
:103D500038010E944207EC01FC012191CF01203281
:103D6000D1F32AE0822E2881222309F483CF213047
:103D700009F068C099818A81913099F522960E9454
:103D8000B51A34C0CE0187579C47029708F0BBC4D0
:103D9000C8CFF7018681807F09F099CF8D2F8F7171
:103DA000823159F028F4823041F00E94E90FB9CFF6
:103DB000843109F4B6CF8631C1F710922002F5CFD5
:103DC0008D32910509F492CF28F48A9771F70E94F9
:103DD000890FA7CF8C349105D1F38D329240B9F37E
:103DE000E4CF923029F422960E94401A2196BBCF4C
:103DF000933021F422960E940A1AF8CF943011F0E1
:103E00002196F4CF229630E020E0AE014F5F5F4F65
:103E10008053990B8A30910550F02150310930F3CD
:103E20008FE99FE00197F1F700C00000F6CF829E76
:103E3000B001839E700D11249C01260F371F8981CC
:103E4000EA01E3CFE22FF0E0E85EFE4F9490822F8C
:103E500086958695869590E0FC01E85FFE4FC490BC
:103E60002770D12C022E02C0D594C7940A94E2F791
:103E7000E1E0CE22DD24FC01E850FF4FA490B12CFC
:103E8000022E02C0B594A7940A94E2F7F1E0AF22A3
:103E9000BB24FC01E851FF4F049110E002C01595CE
:103EA00007952A95E2F701701127C114D10419F082
:103EB00081EE0E94401AA114B10419F086EE0E940E
:103EC000401A892D0E94B51AA114B10419F086EE8A
:103ED0000E940A1AC114D10419F081EE0E940A1A34
:103EE0000115110509F482CF8CE249CF8091370189
:103EF0009091380105969093380180933701BACE9E
:103F000080913701909138010597F5CF06E221EEB7
:103F100041EE6AE17CE7C7010E94D31AABCE07E20B
:103F200025EE45EE6BE17CE7F6CF06E221EE40EEB2
:103F300068E17CE7F0CF07E225EE44EE69E17CE73B
:103F4000EACF06E221EE42EE6CE17CE7E4CF07E245
:103F500025EE46EE6DE17CE7DECF08E221E045EE9E
:103F60006EE17CE7D8CF80919503816080939503C3
:103F700095C0809196038860809396038FC080914E
:103F800095038260F3CF809195038460EFCF809199
:103F900095038860EBCF809196038160EDCF80918F
:103FA00096038260E9CF809195038061DFCF809195
:103FB00095038062DBCF809195038064D7CF0E9408
:103FC0001E16809195038068D1CF809195038C60F7
:103FD000CDCF809196038360CFCF809195038E7F64
:103FE000C5CF80919603877FC7CF809195038D7F42
:103FF000BDCF809195038B7FB9CF80919503877F4B
:10400000B5CF809196038E7FB7CF809196038D7F39
:10401000B3CF809195038F7EA9CF809195038F7D3B
:10402000A5CF809195038F7BA1CF0E941E16809112
:1040300095038F779BCF80919503837F97CF809156
:1040400096038C7F99CF8091950382FB992790F9F5
:1040500021E0922790FB82F990FB83F987CF809132
:104060009603982F909591708E7F892B90FB81F904
:1040700083CF90919503892F8F7B96FF806476CFB5
:104080000E941E1690919503892F97FB87F98058FF
:104090006DCF61E08EE090E00E94D7316091950392
:1040A0007091960384E090E00E94F5310E941E1604
:1040B000E1CD60E0EFCF90919503892F8F7E94FF43
:1040C000806154CF90919503892F8E7F90FF8160FE
:1040D0004DCF90919603892F877F93FF88604CCFB7
:1040E0008091740380FF1EC0282F2E7F20937403BD
:1040F0003091750340917603509177036091780376
:104100007091790380917A0390917B030E94CE1184
:104110000E94EE0980917E03816080937E030E945D
:104120009310A8CD81608093740361E086950E940E
:104130007E1BA0CD4BEB5BE165EC7BE10E94E809C7
:1041400099CD45EC5BE16BEB7BE1F8CF42E952E1C5
:104150006CE972E1F3CF4CE952E162E972E1EECF32
:1041600048E752E165E872E1E9CF45E852E168E7E6
:1041700072E1E4CF4EE552E16BE672E1DFCF4BE650
:1041800052E16EE572E1DACF46EA52E160EC72E1AB
:10419000D5CF40EC52E166EA72E1D0CF61E081E038
:1041A000C6CF0E941E162FEF34E34CE02150304062
:1041B0004040E1F700C000000E9422096FEF7FEF4E
:1041C00090E080E00E94F5310E943C1980919603B6
:1041D00082FB882780F991E089270E94F712F70176
:1041E0008581C081D181882309F449C0CE010E9414
:1041F0007D0D182F682FCE010E94F10DBE01812F79
:104200000E94290C0E94480CD82FC92FA82EF70114
:10421000C580B680B2949FE0B9228091FF0187707B
:10422000E9F00C2DCC20D9F08C2F807F803451F018
:1042300080E28D0F883090F0B11004C08C2F807E0A
:10424000803261F08091960382FF08C082E00E9474
:104250003E0E8091FF01877001E009F000E0DC2E46
:10426000D2948FE0D822FBE0FD1508F469C0ED2D53
:10427000F0E0E95EFD4C0C94AC2E80E0AECFCE01B8
:104280000E94BE0D182FBACF1C2F1F70C07F11F0D7
:104290001295107FCC20B9F0112369F080E28D0FC8
:1042A000883010F0A11009C080912102182B1093C2
:1042B00021020E94890F8D2F41C080912002182B6E
:1042C00010932002F6CF8D2F0E940A1A1123C1F1FC
:1042D000D05ED83010F0A11004C0812F0E946C0D68
:1042E00006C01095809120021823109320020E948E
:1042F000890F26C01C2F1F70C07FC03211F012958D
:10430000107FAA2059F021E0A21609F472C0CC2037
:1043100009F47EC0BB2009F441C0CDCF8091960343
:1043200082FD38C0CC2081F1112339F08091210227
:10433000182B109321020E94890F80E00E94401ADE
:104340002D2D2850330B2430310510F40E943611E6
:104350000023A9F08091FF0180FD11C0F7011582B3
:104360008695869586950E94550EC7010E94911DDF
:104370008091FF018695869586950E942C0E60E0BF
:10438000C7010E948D0E85CC80E00E940A1A11237D
:10439000B9F2A3CFCC2099F0B11004C0812F0E94B4
:1043A0000410CECF31E0B312CBCF80912202912FF7
:1043B0009823191729F2182B10932202C1CFB1109C
:1043C000BFCF812F0E94FD0F90912202812F892360
:1043D00029F0812F80958923809322028091DF012B
:1043E000912F982309F4ACCF109518231093DF0177
:1043F000A7CFCC2029F045E04B1508F4A1CFCECFB4
:1044000084E08B1508F49CCF812F0E94FD0F98CF7C
:10441000BB20D1F399E3A91209C0EFEFF7EE23E037
:10442000E150F0402040E1F700C000008D2F0E94D5
:104430000A1A86CF8C2F86958695837069F0813015
:1044400009F07ECF8D2F9C2F9370C11002C080E0A9
:1044500090E00E949E0974CF8D2F9C2F9370C11005
:1044600002C080E090E00E94C3096ACF6C2D8D2FBE
:104470000E94521965CF8C2F837009F03FC0C11084
:104480005FCF4D2F429546954770440F440F2D2F17
:104490002F7030E0042E02C0220F331F0A94E2F77F
:1044A00090E080E0D4FF09C08FE090E002C0880F68
:1044B000991F4A95E2F780959095C695C695C37069
:1044C000C23099F078F44091230250912402C13017
:1044D00039F0822B932B842395230E94650E30CFD5
:1044E000242B352B822B932BF8CF822B932B2091CF
:1044F00023023091240282279327EFCF8695CC2088
:1045000011F08C2F8170882309F41ACF4D2F42951A
:1045100046954770440F440F2D2F2F7030E0042E26
:1045200002C0220F331F0A94E2F790E080E0D4FF2C
:1045300009C08FE090E002C0880F991F4A95E2F70A
:1045400080959095C695C695C370C23099F078F461
:104550004091960250919702C13039F0822B932BF3
:10456000842395230E94270EEBCE242B352B822B00
:10457000932BF8CF822B932B2091960230919702A8
:1045800082279327EFCFCF70CC2029F08C2F0E9469
:10459000550E8D2F04CF8D2F0E94FD0F8C2F0E9462
:1045A0002C0ECECE8D2F32EFA31699F13A1570F066
:1045B00040EFA416D1F091EFA91691F0CC2009F4A8
:1045C0005BC0B11078CE8C2F8F7127C0E3EFAE1691
:1045D00039F1F4EFAF12F2CF8091960382FD2EC035
:1045E0008C2F8F71CC20D9F218C0CC2069F024E038
:1045F0002B1508F4A5CECF7181E090E002C0880FA2
:10460000991FCA95E2F7B8CF35E03B1508F498CE6C
:10461000F2CF8C2F8F71C110C2CF0E94550E90CE59
:1046200090E080E0CC2009F49DCFCF7181E090E054
:1046300002C0880F991FCA95E2F794CFCC2089F069
:10464000CF718C2F0E94550E8091960382FF07C078
:1046500048E0C49FC001112483608093FF018C2F28
:10466000DCCF81E00E943E0E81E08B1508F068CE21
:1046700082E00E943E0E64CEBB2059F0893309F0DF
:10468000D5CE9FEFE7EEF3E09150E040F040E1F748
:10469000CBCE8C2F8F7183CFC134FEE7DF0709F0BB
:1046A00059C080918603882309F43BCB00912102F5
:1046B000109122020E94EB1588579C4E909379022C
:1046C00080937802F7018581882309F42ACB102B87
:1046D0001D7909F06ACBC034F2E5DF0708F00ACB98
:1046E000C11522E5D20708F01CCBC11530E4D30771
:1046F00008F0E4CAC11540E2D40708F04ACBC63E30
:10470000D10509F40ECBCE01E4CAC6312CE7D2079D
:1047100009F047C0809121028A7A91E009F490E083
:104720009093DE0169E2811165E38EEB91E00E94D6
:1047300069090E94890F9ECAC6313CE7D30719F563
:104740008091DE0169E2811165E38EEB91E00E94C8
:104750003F09EFCFC3374CE7D40709F0A2CF8ACA8D
:1047600070E060E084E392E00E94331B70E060E060
:1047700085E292E00E94331B70E060E08CE190E003
:104780000E94331B77CA809121028272FE01E0529F
:10479000F847E531F10508F022CDED5DFD4C0C94B4
:1047A000AC2EC330ECE7DE0709F408CD50F4C11598
:1047B0002CE7D20709F4F5CCC130DC4709F404CD6D
:1047C0000ECDCB354CE7D40709F457CDCC358CE76B
:1047D000D80709F4FBCCCA35DC4709F000CD81E0ED
:1047E000FCCCFE01E851FC47E730F10508F0A4CF0E
:1047F000E85CFD4C0C94AC2EFE01E851FC47E73020
:10480000F105B0F310928903CE019057839708F019
:104810007CCF84E090E00E94C13190939603809316
:104820009503FE01E150F047E232F10508F09BCB21
:10483000E15CFD4C0C94AC2EB0E0A0E0E2E2F4E2CE
:104840000C94522E8091FE01807F09F054C080911B
:10485000FD01882309F44FC0E091FF0387E0D82EC3
:104860008091C6038E1709F446C00E2F10E0ED9D0F
:10487000F0011124E953FC4F8481882309F440C0DE
:10488000D09EE001D19ED00D1124FE01E953FC4FD2
:1048900091818091F901981333C090818091F80142
:1048A00098132EC0858181112BC0E280F380809106
:1048B000FA019091FB01E81AF90A60E088EF91E0B3
:1048C0000E948D0E8091370190913801E816F9060B
:1048D000B8F48091FE018F7080618093FE01C35314
:1048E000DC4F88818F708061888388EF91E00E941F
:1048F000911D0E94730DCDB7DEB7E7E00C946E2ECC
:10490000F8013196E770ACCFA4E1B0E0EAE8F4E258
:104910000C94482E8C0186E0F801DE011F96019070
:104920000D928A95E1F7F8013480658088EFE82ED2
:1049300081E0F82E8091FC0181112AC0311003C062
:10494000FF24F3941CC06620F9F0C8010E946A0E8F
:10495000F82E8823C9F087E0F801A8EFB1E00190B4
:104960000D928A95E1F78091FC01813031F48091BC
:10497000F8019091F9010E94B10D0E941C248F2D25
:104980006496E1E10C94642EC8010E94911DD8CF79
:10499000C280D3807090FD018091FA019091FB015B
:1049A0004601881A990AA0903701B0903801772003
:1049B00009F4F7C04080518060E088EF91E00E94E8
:1049C0008D0E8A149B0408F0A5C0332009F4B8CFDB
:1049D0008091FE01382F307F2091F901F8019181FB
:1049E000311158C0F62C291314C02091F801908180
:1049F00029130FC0611047C08F7080618093FE0142
:104A000088EF91E00E94911D8091FE01F80186835C
:104A1000B6CF611038C0652D842D0E948F07652D9B
:104A2000842D0E948F07E82E8111A9CF4F86588AC6
:104A30008F8598890E94B10D292F22952F702430DF
:104A400058F49F70223088F0992399F0F8019681EC
:104A5000907F79F4FE2C93CF2A5F2F70223068F07C
:104A6000C8010E94911DE72CF5CF992311F08823EE
:104A700089F3805E883070F3F3CF803F58F3815F15
:104A8000833070F7E7CF8091FE0181608093FE0153
:104A9000F12C75CF291315C02091F80190812913AD
:104AA00010C061100EC08683C8010E94911D87E06E
:104AB000F801A8EFB1E001900D928A95E1F7F72C8B
:104AC0005ECFC8010E946A0E882309F45DCF66207C
:104AD00009F45ACF8091FE01803288F02091F801CC
:104AE0003091F90139872887DB86CA869091FC01CD
:104AF0009C871D868E87CE0108960E94911D87E0B7
:104B0000F801A8EFB1E001900D928A95E1F70E94BB
:104B10001C2416CF8091FE01982F907F51F488EFCE
:104B200091E00E94911D87E0F70111928A95E9F7C3
:104B3000AFCF332009F404CF2091F901F80191811E
:104B4000291311C02091F801908129130CC0611024
:104B50000AC08683C8010E94911D87E0F701119267
:104B60008A95E9F7ACCFC8010E946A0E882309F440
:104B70000BCF662009F408CF8091FE01803208F443
:104B8000BECF2091F8013091F9013A832983DC826C
:104B9000CB829091FC019D831E828F83CE01019672
:104BA000ACCF60E088EF91E00E948D0E8A149B04E8
:104BB00008F0B9CF332009F4C3CEF62C662009F4EF
:104BC000E3CE9091F901F801818198130DC0909185
:104BD000F8018081981308C087E0A8EFB1E0019048
:104BE0000D928A95E1F7CBCEC8010E946A0E811121
:104BF00086CF8091FE0181608093FE01C8010E94F2
:104C0000911DBDCEABE1B0E0E8E0F6E20C94562E8B
:104C10004E8B5F8B688F798F8A8F9B8F911110924B
:104C200020021D8A86E0FE017696DE011F96019025
:104C30000D928A95E1F78B89882329F061E0CE01F6
:104C40000F960E948D0E87E0FE013F96DE011896BA
:104C500001900D928A95E1F7CE0108960E94842476
:104C600081110CC087E0FE013896DE01119601909B
:104C70000D928A95E1F78C8581110BC017E0809128
:104C8000FF039091C603891331C06B96E3E00C9447
:104C9000722E2091C60330E0C901019687709927D2
:104CA0004091FF034817190699F097E0929FD001B1
:104CB000939FB00D1124A953BC4FFE013196019072
:104CC0000D929A95E1F78093C6030E94730DD6CF9B
:104CD0000E941E161092C6031092FF0387E0E8EFB1
:104CE000F1E0DF011D928A95E9F7C8CF819FC001ED
:104CF000112489539C4F0E948424882331F280918F
:104D0000FF0390E00196877099278093FF03B7CF48
:104D1000A6E0B0E0EEE8F6E20C94552E0E94EB150A
:104D20008C0180912502909126028017910781F0D5
:104D300019821A820E94EB15682F49815A81792FB6
:104D400080E090E00E940226109326020093250244
:104D50002696E4E00C94712E1F921FB61F92112428
:104D60008F939F93AF93BF9380919003811113C052
:104D70008091910390919203A0919303B091940339
:104D80004196A11DB11D8093910390939203A0932E
:104D90009303B0939403BF91AF919F918F911F9014
:104DA0001FBE1F901895CDB7DEB72E970FB6F8949B
:104DB000DEBF0FBECDBF85B7806885BF85B7806871
:104DC00085BF84B7877F84BF0FB6F894A89580917C
:104DD0006000886180936000109260000FBE80E8E0
:104DE00090E00FB6F89480936100909361000FBE3D
:104DF0008FE19BE09093BD018093BC010E94C507A9
:104E00000E9466088091E20084608093E2007894BA
:104E10008091BC038823A1F01091E9001F7090914C
:104E2000EC00892F817090FD80E8182B1092E9002A
:104E30008091E80083FD0E9447161F701093E900DF
:104E400082E084BD93E095BD9AEF97BD80936E009C
:104E5000109258021092590210925A0210925B025C
:104E60000E9411118093200180912001882309F470
:104E700078C0109231018BE1809332010E941111B0
:104E800081110E94D12C809120018091200194E019
:104E9000811190E09093650284E0891B8093640205
:104EA00084E90E94210B86E60E94210B87E90E947B
:104EB000210B86EC0E94210B0CE811E082E9E82E20
:104EC00081E0F82ED8018D918D018F3F11F00E9465
:104ED000210BE016F106B1F788E0E7E6F2E0DF012A
:104EE000282F1D922A95E9F7ECE5F2E0DF011D92EB
:104EF0008A95E9F790E080E00E94C131863E9E4F9E
:104F000011F00E94711482E090E00E94B33180930E
:104F10006F0284E090E00E94C131909396038093E9
:104F200095030E94CA1BEFEFF6E721E0E150F04045
:104F30002040E1F700C000000E94CA1B0E9411112E
:104F4000E4E08111E0E0F0E0E959FD4F808181FF6C
:104F50000CC06FEF7FEF90E080E00E94F5310E947F
:104F600022098BE18093310187CF83E090E00E949A
:104F7000B33190E00E94650E0E94111112E0811180
:104F800010E00E941111811101C012E01093BC02C7
:104F900080E8809307040E948B2B6BE070E08FE227
:104FA00096E00E9461118823E9F18091BC0265E0DE
:104FB00070E081FD1EC18AE296E00E9461118823A3
:104FC00089F16DE070E088E196E00E94611188232C
:104FD00049F10E943309605A75418F4F9F4F60938A
:104FE0008003709381038093820390938303EAE0AC
:104FF000F4E080E092E0DF019C011D9221503040FE
:10500000E1F7F0931106E09310068FEF9FEF909376
:1050100009048093080481E08093850380938403CE
:105020001092BD028091660281117BC090E080E009
:105030000E94C131863E9E4F21F00E9471140E9451
:10504000DA1288E090E00E94BB314B015C0184E2FF
:1050500090E00E94B331282F30E040E050E060E063
:1050600070E080E090E000E20E94B22E2829392909
:105070004A295B2920937403309375034093760388
:1050800050937703609378037093790380937A0346
:1050900090937B0380917E03836080937E032E7FB9
:1050A00089F50E94DA1288E090E00E94BB316B0122
:1050B0007C0184E290E00E94B331282F30E040E090
:1050C00050E060E070E080E090E00E94B22EB22FED
:1050D000A32FF42FE52F5B0197018601BC29A12B9B
:1050E000FE29E32BB0937403A0937503F09376032A
:1050F000E093770360937803B092790380937A0307
:1051000090937B030E94F5090E94EE09809174033D
:1051100080FF04C060E086950E947E1B81E0809342
:1051200066020E941111811102C00E94D42C81E2FA
:1051300091E090938D0380938C0310E4612E2224E0
:105140002394312C8091BC0300E112E1853009F4F5
:105150008CC00E94CA1BF0E7EF2EF2E0FF2EA7E6FC
:10516000CA2EA2E0DA2ED601F70191918D9122E0AC
:10517000E837F20709F483C09817B9F30E941111B8
:10518000882E10E077247394D6010D916D01F701FC
:1051900091907F01901629F19026B12CAA24A39416
:1051A000892D8A21B1F08820A1F0BF8218870E9442
:1051B000EB159A8789877B8691E0802F8A2109F4F5
:1051C00090E09C874F81588569857A858B850E9400
:1051D0000226B394AA0CF6E0BF12E2CFF701319792
:1051E00000831F5F183081F60E944711DD24D3949D
:1051F0004BC085E296E0E1CE8091BC03843029F17A
:105200000E948B111092900388E190E00FB6F89401
:10521000A895809360000FBE6092600083B7817F85
:10522000846083BF83B7816083BF7894889583B798
:105230008E7F83BF0FB6F894A89580916000886137
:1052400080936000109260000FBE8091BB038823A2
:1052500061F00E94CA1BE7E6F2E08191811140C231
:10526000AFE6B2E0AE17BF07C1F78091BC0385304F
:1052700009F4C2CF0E941E160E9436116ACF9813FD
:105280007DCF0E948826D12C0E941111882389F09D
:1052900080918603882369F00E94EB1520917802A3
:1052A00030917902821B930B8F3F9F4710F40E942D
:1052B000E90F80917D03882309F444C08091740331
:1052C000869590917C03891B809370038091710374
:1052D000882361F0109271030E94581B90936F0312
:1052E00080936E0310927303109272030E94581BF6
:1052F00020916E0330916F03AC01421B530B4F3F63
:105300005F4700F540917D024423B1F010927D0289
:1053100040917B0250917C02841B950B8F3F9F47ED
:1053200058F4405D5A4850937C0240937B02809130
:105330007E03886080937E032053384F30936F0341
:1053400020936E0380917A02882361F010927A0292
:1053500080917D03811106C08091740360E0869581
:105360000E947E1B80918503882309F453C080919D
:10537000BE029091BF020E94DC15C29758F10E94B4
:10538000EB159093BF028093BE028AE094E0909365
:105390001106809310060E941111882309F4C2C0DF
:1053A0008EE496E00E94430F8091960290919702BE
:1053B0008230910509F4B3C08330910509F4ACC083
:1053C000892B21F486E496E00E94830F8EE792E019
:1053D0000E940E108091080490910904892B09F015
:1053E000A6C0809184038823A9F00E94330900910C
:1053F0008003109181032091820330918303601B0D
:10540000710B820B930B6F3F7F4F8F4F9F4710F4B1
:105410000E948B11D1100E94A61186E0E6ECF2E00A
:10542000DE01119601900D928A95E1F7D090C702A6
:10543000F090C8020091C902E090CA021091CB021C
:105440001092C8021092C9021092CA021092CB02A6
:10545000802F8F29B1F08091C4029091C5020E94E3
:10546000DC15E091C102F0E0EE0FFF1FEE55FE4F9C
:10547000208131812817390720F4F092C802009367
:10548000C9028E2D812BB1F08091C2029091C3028E
:105490000E94DC15E091C102F0E0EE0FFF1FE6561E
:1054A000FE4F208131812817390720F4E092CA028B
:1054B0001093CB028091C702D81217C08091C80206
:1054C000882311F08F1111C02091C902222311F0FD
:1054D00002130BC09091CB02992311F0911305C0D8
:1054E0003091CA02332309F411C10E94F71586E0F6
:1054F000FE013196A6ECB2E001900D928A95E1F79B
:105500000E9436119091C002891709F41BCE809336
:10551000C0020E94330913CE80E496E055CF8AE39F
:1055200096E052CF86E596E00E94430F53CF8091DC
:105530008503882309F455CF8091BD02811151CF95
:105540000E94A6112091080430910904211531050B
:1055500009F447CF80E0082F10E07101082E02C047
:10556000EE0CFF1C0A94E2F7A70142235323452BBC
:1055700011F48F5FF0CF9091BC0290FF98C0880F1C
:10558000880F880F80932C0110922F01895F8093E0
:105590002D0183E08093300124E630E047E050E0C5
:1055A0006AE271E088E70E942B2C892B09F019CF61
:1055B000A80175E0440F551F7A95E1F78091BC0270
:1055C00080FF87C0ECE9F2E080E2DF011D928A955E
:1055D000E9F7E6E9F1E0FE87ED8702E911E067E02F
:1055E000962EAD85BE852D91BE87AD87F801419081
:1055F0008F01440E552E511CC201865F9B4F2C011A
:10560000E22FF0E0E456FD4F30E020E0792C721AF2
:10561000C22C022E01C0CC0C0A94EAF7520190E091
:10562000D5018D915D018C21672D691B6770862ED8
:10563000062E000C770BB82F01C0BB0F8A94EAF737
:105640008B2E7195619571096770772701C08695DA
:105650006A95EAF7882A8081882A80829F5F98303D
:10566000F9F62F5F3F4F31962830310579F6ED85F9
:10567000FE85EA59F14009F0B4CF04E610E020E2DB
:1056800030E04CE952E060E488E70E944C2C892B22
:1056900009F0A7CEE094F094809108049091090459
:1056A000E822F922F0920904E09208049ACE829549
:1056B000880F807680932C01980136952795369532
:1056C000279520932F01815E80932D012093300137
:1056D00063CF465F5B4F04E610E020E230E0D3CFBB
:1056E00009BD19BD09B400FEFDCF8091D8008F7DA2
:1056F0008093D8008091E00082608093E0008091E8
:10570000E00081FDFCCF0E941E16AFCD822B892BBD
:1057100009F4EDCEEACE1092B9008CE08093B80087
:105720000895B0E0A0E0E7E9FBE20C944E2EB82E1D
:10573000EB010E94EB156C01EE24E394F12CC431D3
:10574000D10560F025E0E22EF12CCF3FDC0731F0EF
:10575000CE0164E170E00E94332E7B0184EAA82E22
:1057600094E8992E1092BC00A092BC000E94EB1508
:105770008C018091BC0087FF0DC08091B900887FAB
:105780008830F9F08091B900887F8031D1F00FEF37
:105790001FEF08C0C8010E94DC15E816F90648F79B
:1057A0000EEF1FEFCF3FDC07E9F2C6010E94DC15C8
:1057B000C817D907B8F6C801CDB7DEB7EBE00C942F
:1057C0006A2EB092BB009092BC000E94EB158C0137
:1057D0008091BC0087FF0AC08091B900887F883122
:1057E00011F08034A1F610E000E0E5CFC8010E947E
:1057F000DC15E816F90660F7D3CF0F931F93CF930C
:10580000DF93EB018093BB0084E88093BC000E948F
:10581000EB158C018091BC0087FF11C02091B9006D
:10582000287F81E090E0283211F490E080E09195AB
:1058300081959109DF91CF911F910F910895CF3FED
:10584000DC0741F3C8010E94DC15C817D90710F71F
:105850008EEF9FEFEFCFB0E0A0E0E1E3FCE20C942D
:10586000512E6B018A017901B9010E94912BE60149
:105870000C0D1D1DC017D10711F097FF08C024E9BA
:105880002093BC00CDB7DEB7E8E00C946D2EB701D5
:1058900089910E94FD2BEECFB0E0A0E0E2E5FCE2B2
:1058A0000C94512EC62F6A017901B8010E94912BE8
:1058B00097FD0CC0B8018C2F0E94FD2BE601EC0C6B
:1058C000FD1CCE15DF0511F097FF08C024E92093D9
:1058D000BC00CDB7DEB7E8E00C946D2EB80189911D
:1058E0000E94FD2BEECF84E98093BC0008958EE1E9
:1058F0004A9B02C08150E1F74A9BFECF08955A9817
:1059000080E28A95F1F75A9A0895FC013BE03A95B6
:10591000F1F798E020E080E031E040E14A95F1F7CE
:10592000880F4A9B02C08160232742E04A95F1F725
:10593000000040E14A95F1F7915079F790E19A958E
:10594000F1F799B132E03A95F1F7000040E14A955C
:10595000F1F792FB992790F992272081920F90837B
:105960000895A1E0B0E0E7EBFCE20C94532E19821D
:105970008C017C01E60EF11C0E151F0541F481E03F
:105980009981911180E02196E6E00C946F2E0E949F
:10599000772CCE0101960E94852CF80181938F010E
:1059A000EBCF529A5A9A089552985A9AEA9AE9E68F
:1059B000F0E080818F7C808308956150770B91E0C7
:1059C00001C0990F6A95EAF720E031E0911108C013
:1059D000222391F05A9A80E28A95F1F75A98089515
:1059E000492F482339F05A9A232740E24A95F1F784
:1059F0009695ECCF5A98F9CF5A98EDCFFF920F9326
:105A00001F93CF93DF93EC018C01060F111DC0177C
:105A1000D10729F4CDB7DEB7E5E00C94702EF990EC
:105A20000E947F2C68E08F2D0E94DD2CF0CF1F920A
:105A30000F920FB60F9211240F931F932F933F9342
:105A40004F935F936F937F938F939F93AF93BF9386
:105A5000EF93FF93CF93DF930F92CDB7DEB7198209
:105A60000E94772CCE0101960E94852C082F069566
:105A700006950695282F22952570902F9570290F51
:105A8000922F937026952695920F9827977089816B
:105A9000982B09F05CC0053008F059C080E18A9568
:105AA000F1F75A9A529A82E08A95F1F700C05A9813
:105AB00088E0089F80011124D801A050BF4F16969E
:105AC000ED91FC9117973097A9F060918601709144
:105AD000870114962D913C911597260F371F11962B
