:100000000C9454030C9471030C9471030C941C29EC
:100010000C9471030C9471030C9471030C94710390
:100020000C9471030C9471030C94BB0D0C94D411BB
:100030000C9477230C9471030C9471030C9471034A
:100040000C9471030C9471030C9471030C94710360
:100050000C9471030C94940E0C9471030C94710322
:100060000C9471030C9471030C9471030C94710340
:100070000C9471030C9471030C9471030C94710330
:100080000C9471030C9471030C9471030C94710320
:100090000C9471030C9471030C9471030C94710310
:1000A0000C9471030C9471030C9471032B001400D5
:1000B0001A00090013000A002947042815241622F3
:1000C0001721070029521D001B000600190005001A
:1000D000000000000000000025522C004C00407E73
:1000E0001C0018000F000D00284812280C240832AC
:1000F00011210B00597C38003700360010000E002B
:10010000000000000000000024522A00010014003A
:100110001A00080015001700010004281624072201
:1001200009210A0001001D001B000600190005003E
:1001300000000000000001000100010001000100BA
:1001400012000C0018001C00010013280F240E32AE
:100150000D210B000100380037003600100011009F
:100160000000000000000100010001002B0014004D
:100170001A00080015001700E1000400160007002F
:1001800009000A00E0001D001B0006001900050020
:10019000000000000000E20023522C004C00E600AA
:1001A00012000C0018001C00280013000F000E00A5
:1001B0000D000B0039003800370036001000110028
:1001C00000000000000062520100010001001E005A
:1001D0001F00200021002200290023002400250008
:1001E00026002700010001000100010001000100BC
:1001F0000000000000000100235201000100010086
:1002000001000100010001000100010001000100E6
:1002100001000100010001000100010001000100D6
:1002200000000000000062520100010001004200D5
:10023000430044004500010001003E003F00400033
:100240004100010001003A003B003C003D0001007C
:1002500000000000000001000100010001002B0867
:100260002B041901417E01000100E300E200E100DE
:10027000E000010001000100010001000100010097
:1002800000000000000001000100010001002F003B
:1002900030002602270224020100340033002E0021
:1002A0002D002002010037283624252222210100BA
:1002B0000000000000000100010001000100260014
:1002C000250024001E022502010023002200210037
:1002D00021022302280020001F001E00010001004F
:1002E00000000000000027000100010000006A5229
:1002F000000000006252000000000000000000004A
:1003000000000000000000000000000000000000ED
:1003100000000000000001000100010000000000DA
:100320000000147C137C000000000000127C107C94
:10033000117C000000000000707C727C717C000069
:100340000000000000000100010001000100280081
:100350004A0052004D000100010001005000510010
:100360004F00010001000100010001000100010037
:100370000000000000000100010001000100010078
:1003800001000100010001000100E300E200E100C2
:10039000E000010001000100010001000100010076
:1003A000000000000000010001000100010068528F
:1003B000D400CD00D500010001000100CF00CE0027
:1003C000D000010001000100010001000100010056
:1003D0000000000000000100DF00D100010001006A
:1003E000010001000100010001000100DC00D90052
:1003F000DA00DB0001000100010001000100010042
:100400000000000000000100DD00D200010001003A
:10041000AE00A900A800010001000100AC00AA0084
:10042000AB0001000100010001000100010001001A
:1004300000000000000001000100010001000100B7
:1004400001000100010001000100010001000100A4
:100450000100010001000100010001000100010094
:1004600000000000000001000100010000DA02812C
:10047000FFD9F1DB20A4A62EAF00A0C000A1C800C8
:10048000AED580A81FD300408D14200000AF00AE71
:10049000000000000000000000000000000000005C
:1004A000000000000000000000000000000000004C
:1004B000000000007E0F00D4FFFFFFC7000000789F
:1004C00000000000000000002A2B280000000000AF
:1004D00000000000000000000000002900000000F3
:1004E0002C1E3420212224342627252E362D373861
:1004F000271E1F202122232425263333362E37386A
:100500001F0405060708090A0B0C0D0E0F10111227
:10051000131415161718191A1B1C1D2F3130232DF3
:10052000350405060708090A0B0C0D0E0F101112F1
:10053000131415161718191A1B1C1D2F3130354CA2
:1005400005010902A10185020901A100050919019E
:10055000290815002501950875018102050109305A
:1005600009311581257F95027508810609381581A5
:10057000257F950175088106050C0A38021581252D
:100580007F950175088106C0C005010980A101851C
:100590000319012AB700150126B7009501751081CE
:1005A00000C0050C0901A101850419012AA002154A
:1005B0000126A002950175108100C005010906A160
:1005C000018506050719E029E7150025019508753D
:1005D0000181020507190029EF1500250195F07525
:1005E00001810205081901290595057501910295FA
:1005F0000175039101C005010906A101050719E074
:1006000029E71500250195087501810295017508F6
:1006100081010507190029FF150026FF00950675C1
:1006200008810005081901290595057501910295B4
:100630000175039101C009023B00020100A0FA0903
:100640000400000103010100092111010001224001
:1006500000070581030800010904010001030000EF
:100660000009211101000122B600070582032000C4
:1006700001120100020000000853460100010001C0
:100680000200010C0343006F0072006E0065000061
:1006900000100366006F006F007300740061006E4D
:1006A000000000040309040011241FBECFEFDAE0AC
:1006B000DEBFCDBF11E0A0E0B1E0ECECF6E502C09A
:1006C00005900D92AE39B107D9F725E0AEE9B1E05A
:1006D00001C01D92A534B207E1F70E949E230C943D
:1006E000252B0C9400009C0180912E0190912F01EC
:1006F000A901465351094330510510F488960895D5
:100700002430310568F02E31310548F028323105AA
:1007100038F49C01220F331F820F931F0895C29655
:100720000895B0E0A0E0E7E9F3E00C94522A2091AC
:100730002C0130912D012817390721F42091430510
:100740002032A9F190932D0180932C0120E2209377
:1007500043056C01F12CE12C1092420502E415E0F6
:10076000D0E0C0E08AE0882E912CA12CB12CC701EA
:10077000B601A50194010E94832A605D603311F4E3
:10078000209731F0C114D104E104F10409F460E2CE
:10079000F80162938F01C701B601A50194010E947F
:1007A000832A69017A012196C530D10501F78DE3CD
:1007B00095E0CDB7DEB7ECE00C946E2AFC01AC01FD
:1007C0004C5F5F4F8FEF91E32191822728E030E06B
:1007D00087FF09C0880F892721503109C9F7E4171D
:1007E000F50791F70895880FF7CFE8EDF0E08081E5
:1007F0008E7F80831092E2001092DA001092E10066
:10080000A0EEB0E08C9181608C9380818F778083A3
:1008100019BCA7EDB0E08C918E7F8C9380818F7E88
:10082000808310920E0508952091E4003091E50038
:1008300095E6A9012091EC00822F817020FF06C06F
:100840008091E80080FF06C080E008952091E800D4
:1008500022FD1AC080913305882389F0853089F004
:100860008091EB0085FD0FC02091E4003091E50000
:1008700042175307F9F29150E1F684E0089582E0BF
:10088000089583E0089581E008958091350587FFFC
:1008900013C08091E80082FF06C08091E8008B774A
:1008A0008093E80004C0809133058111F2CF089550
:1008B000809133058823D9F38091E80080FFF8CF39
:1008C0008091E8008E77ECCF982F9093E900242F49
:1008D000762F50E0891731F07091EC002091ED00F7
:1008E0005091F00021FD07C09F5F973071F7809312
:1008F000E90081E008953091EB003E7F3093EB00FA
:100900003091ED003D7F3093ED003091EB00316090
:100910003093EB007093EC002093ED005093F000C7
:100920002091EE0027FDE0CF80E00895B0E0A0E048
:10093000ECE9F4E00C94562AC8EDD0E088818F7E73
:100940008883E7EDF0E080818160808384E082BF6E
:1009500081E080930E0588818E7F888302EE10E00F
:10096000F80110821092DA0081EEC82ED12CF60127
:10097000108288818F7788838881806888838881C6
:100980008F7D888319BC1092330510923405109224
:1009900032051092310590EEE92EF12CF70180819D
:1009A0008B7F808388818160888342E060E080E083
:1009B0000E946404F60180818E7F8083F80180812B
:1009C00081608083808188608083F70180818E7F51
:1009D0008083888180618883CDB7DEB7E8E00C949E
:1009E000722AFC0180913B0590913C058617970780
:1009F000A0F06115710529F49091E8009E7790931D
:100A0000E80090E06115710551F4911108C08091E2
:100A1000E80082FF34C080E00895BC01F2CF8091ED
:100A200033058823C1F18530C1F18091E80083FD51
:100A300030C08091E80082FDEACF8091E80080FF1D
:100A4000E1CF8091F3002091F200382F61157105FC
:100A500019F02830310558F091E02830310509F0BF
:100A600090E02091E8002E772093E800CBCF819191
:100A70008093F100615071092F5F3F4FE7CF809164
:100A80003305882341F0853041F08091E80083FFF1
:100A9000BECF81E0089582E0089583E008958091BB
:100AA0001005089587E797E7909301088093000861
:100AB00088E19AE00FB6F894A895809360000FBE85
:100AC00090936000FFCF2FB7F89460910805709164
:100AD000090580910A0590910B052FBF089520917B
:100AE0002B012223C9F020910C0527FF15C0E62F0A
:100AF000E695E695E695EE31D8F4E80FF92FF11D6D
:100B0000677021E030E001C0220F6A95EAF7209576
:100B10008281282322830895FC0132960896219130
:100B2000621303C0DF0111971C92E817F907B9F7A8
:100B3000089520912B012223C1F020910C0527FF5D
:100B400014C0E62FE695E695E695EE31F8F4E80F49
:100B5000F92FF11D677021E030E001C0220F6A9586
:100B6000EAF78281822B82830895FC0132962FEF6F
:100B700030E04191641751F02F3F19F4411101C049
:100B8000232F3F5F3630A9F72F3F09F40895820FD6
:100B9000911D27FD9A95FC0162830895A3E0B0E0C2
:100BA000E4EDF5E00C945C2A2091050530910605F2
:100BB00028173907A1F09093060580930505E09169
:100BC0000305F0910405309751F024E029839B83BD
:100BD0008A830680F781E02DCE0101960995239640
:100BE000E2E00C94782AA3E0B0E0E9EFF5E00C94A1
:100BF0005C2A209101053091020528173907A1F0E0
:100C00009093020580930105E0910305F09104059E
:100C1000309751F023E029839B838A830680F781F4
:100C2000E02DCE01019609952396E2E00C94782AF6
:100C30008091C80490E0880F991FFC01EB56FE4F8D
:100C4000208183579E4FFC0180819091CF0419161B
:100C500014F42093CF049091CF0497FF04C0922FF7
:100C600091959093CF049091D004191614F4209389
:100C7000D0049091D00497FF03C021952093D00415
:100C80009091D204191614F48093D2049091D20456
:100C900097FF04C0982F91959093D2049091D1041E
:100CA000191614F48093D1049091D10497FF03C0D6
:100CB00081958093D1043091CF043323A1F020910A
:100CC000D004222381F045EB3403C0011124992381
:100CD000F1F09093CF0445EB2403900111243323CA
:100CE000D1F03093D0044091D204442379F0309174
:100CF000D104332359F025EB4203A0011124509372
:100D0000D2043203900111243093D104089581E07C
:100D10008093CF04E0CF81E08093D004E4CF80E0E3
:100D20000895F894E82FE295EF70F0E031A1282FB4
:100D30002F7081E090E001C0880F2A95EAF7982F84
:100D40009095932391A392A1892B82A378940895DF
:100D500090910C0592FF06C0282F28712830F9F4D5
:100D6000877F846093FF06C0282F28712831F1F413
:100D7000877E846120910D0520FF06C0382F3871D1
:100D80003830D9F4877F816021FF06C0282F287171
:100D90002831D1F4877E816194FD877E0895282FC4
:100DA00024712430F9F68B7F8860DCCF282F2471E2
:100DB000243101F78B7E8861DDCF382F31713130DE
:100DC00019F78E7F8860E0CF282F2171213121F71C
:100DD0008E7E8861E1CF82389105B9F1B0F481331C
:100DE000910509F47DC048F48932910509F46DC07C
:100DF0008A32910509F47BC008958533910509F481
:100E00005FC08933910509F10895833E9105D9F1B9
:100E100038F4803E910529F1823E910579F10895DB
:100E2000863E9105D9F1873E910509F43EC0843E86
:100E3000910541F520910D0521FF24C080910C05FD
:100E400084FD19C087EE90E0089520910C05237071
:100E500009F05AC020910D0523FF14C089E290E0EB
:100E6000089520910C0520FD38C030910D0530FF0C
:100E700009C024FF43C090E080E0089520910C0554
:100E800022FDF7CF089520910C0522FD3AC0309144
:100E90000D0530FD39C024FFF5CFEDCF20910C05B5
:100EA00023FFF0CF24FDE7CFCDCF20910C0523FD0C
:100EB0002EC030910D0531FFEECF84EE90E0089505
:100EC00020910C0525FFDECFC9CF20910C0525FD13
:100ED00021C020910D0523FFD5CF89E390E0D2CF2B
:100EE00020910C0526FFCECF8AE290E00895209154
:100EF0000C0526FFC7CF81E390E0089583EE90E0D4
:100F0000089582EE90E0089580EE90E0089586EED8
:100F100090E0089585E390E00895972F7830B8F435
:100F20006630A8F48A30B0F470E026E0929F600D3D
:100F3000711D1124FB0190E3899FE00DF11D112427
:100F4000EE0FFF1FE455FF4F85919491089580E0C7
:100F500090E0089581E0FCCF1F93CF93DF930E9430
:100F6000EB06EC01C11580E5D807F0F5C11580E46A
:100F7000D80708F09CC0C03ED10520F5CD3CD10576
:100F800008F082C0C83AD10578F4C53AD10508F016
:100F900073C0C130D10519F1209709F1C430D105D2
:100FA000F0F4D0E0C0E01BC0C33CD105D0F7C85A74
:100FB000D0E0CC0FDD1FCD5CDE4F0990D881C02D75
:100FC000D4640DC0C11580E2D80708F0D1C0C115A6
:100FD00081E0D80708F05AC0C83ED10510F7CE010D
:100FE000DF91CF911F910895C03682E5D80718F59B
:100FF000C03482E5D80708F06BC0C03282E5D8075C
:1010000008F05FC0C11582E5D80708F497C02C2FFF
:101010002695269580E2289F900111248C2F8370BD
:10102000C1E0D0E002C0CC0FDD1F8A95E2F7C22BF1
:10103000D32BDD68D4CFC03A82E5D80760F4C0383E
:1010400082E5D80708F459C0CF71D0E0DC2FCC2757
:10105000C46FD06AC4CFC03C82E5D80708F462C030
:10106000C03E82E5D80708F09CCFDC2FCC27CC27E8
:10107000DF71C06FD06AB3CFC55AD0E0C05DDE4F1C
:10108000C881D0E0D064ABCFD065A9CF8D2F0E94AE
:10109000A806182FCE0199270E94EB06C12FD0E099
:1010A000DC2FCC27CC27DF71C82BD92B98CFCE01D2
:1010B00099270E94EB06CC27DF70C82BD92BD06A6A
:1010C0008ECFCF71D0E0DC2FCC27C16FD06A87CF15
:1010D0002C2F26952695277080E2289F90011124B9
:1010E0008C2F8370C1E0D0E002C0CC0FDD1F8A9549
:1010F000E2F7C22BD32BDC6872CF2C2F26952695D6
:10110000277080E2289F900111248C2F8370C1E00A
:10111000D0E002C0CC0FDD1F8A95E2F7C22BD32BA3
:10112000DA685DCF8C2F8F710E94A806C82FD0E09F
:10113000DC2FCC27CC27DF71D06251CF8C2F8F7161
:101140000E94A80655E0D695C7955A95E1F7CF704D
:10115000D0E0DC2FCC27282F30E084FF05C044E00E
:10116000220F331F4A95E1F7C22BD32BD06937CF1B
:101170008D2F8F710E94A806182FCE0199270E94EB
:10118000EB06C12FD0E0DC2FCC27CC27DF71C82B9A
:10119000D92BD2CF8091530281111092530208951E
:1011A00090910D0592FF05C0909153029813809382
:1011B0005302089580959091D90498239093D9046F
:1011C0000895209131029091000256E0291302C047
:1011D00080E0089530E0529FF001539FF00D1124FC
:1011E000EF5FFD4F7181761306C07081781303C0E5
:1011F0007281741304C02F5F3F4F2770E7CF81E0E7
:101200000895452B41F0682381E06F3F09F080E0AD
:1012100080958170089581E0FBCF8091310290919B
:101220000002981301C008958F5F8770FACFB0E075
:10123000A0E0EDE1F9E00C94552A7C0100918702D1
:10124000109188028091850290918602082B192BBB
:10125000CFE0D0E0CC24C394D12CBC2EC6010C2E00
:1012600002C0880F991F0A94E2F780239123892BEB
:1012700049F4219790F7B12C8B2DCDB7DEB7E9E07B
:101280000C94712AB7018C2F0E948D070E94AC0725
:10129000019779F3F1CFCF93DF93EC010E94170907
:1012A000BE010E948D070E94AC07DF91CF91089587
:1012B000983078F5863068F5E82FF0E086E0989F62
:1012C000E00DF11D11249E2F977083E0F695E795B0
:1012D0008A95E1F7EE0FFF1FEE0FFF1FEE51FE4F55
:1012E00050E040E080E0219130E0092E02C03695C8
:1012F00027950A94E2F721703327042E01C0220FAC
:101300000A94EAF7822B4F5F5F4F4430510559F73B
:10131000089580E00895983098F5863088F5E82F94
:10132000F0E086E0989FE00DF11D11248E2F87706C
:1013300041E001C0440F8A95EAF783E0F695E7950E
:101340008A95E1F7EE0FFF1FEE0FFF1FEE51FE4FE4
:1013500030E020E070E05191DF011197CB01022EC7
:1013600002C0969587950A94E2F78170819585274A
:10137000842385278C932F5F3F4F2430310559F705
:10138000089590938602809385020895FC018381DD
:101390009481892B29F08081918189238F3F51F499
:1013A00080E00895843FE1F717C0883EA8F0813FB0
:1013B000B9F712C0808191810E944B0992959F706C
:1013C000963099F358F4925F9F70923048F7803FBF
:1013D00019F040F7883E20F781E008959A5FF4CF36
:1013E000A5E0B0E0E6EFF9E00C945B2A25E0FC0113
:1013F000DE01119601900D922A95E1F7FC01228100
:1014000089819A81222399F0662389F00E94170925
:10141000182F682F89819A810E948B0969817A81AE
:10142000812F0E948D072596E3E00C94772A0E9475
:101430005809182FF3CF9C013A9521153F4150F5DB
:10144000FC01EE27F170BC0166277270AC014427E5
:1014500054709C012227387094FF0EC080E1EF2B5E
:1014600009F480E0672B09F08062452B09F0806465
:10147000232B89F08068089581E0EF2B09F480E048
:10148000672B09F08260452B09F08460232B19F04B
:101490008860089580E00895B0E0A0E0E2E5FAE019
:1014A0000C94562A6C017B0164E670E088E70E9488
:1014B0009627EC0197FD12C010E000E0F601E00F66
:1014C000F11F849164E670E00E940228EC01892BF0
:1014D00029F40F5F1F4F0E151F0581F70E94782812
:1014E000CE01CDB7DEB7E8E00C94722A8091D70424
:1014F0009091D804911103C091E089270895882321
:1015000069F062E070E08EE894E00E944C0A892B5A
:1015100019F08091D70408951092D7048091D704D0
:10152000EBCFCF93C091D7048091D8048823D1F01A
:101530000E946305605A75418F4F9F4F6093D3049B
:101540007093D4048093D5049093D604C11108C03D
:1015500062E070E08CE894E00E944C0A892B29F04C
:10156000C091D7048C2FCF91089581E08093D70448
:10157000F7CF0F931F93CF93DF938B01EA019091E5
:101580003305943061F58093E9008FEF9091E80086
:10159000815095FD06C095ED9A95F1F700008111F7
:1015A000F5CF8091E80085FF1AC00E9414048111D4
:1015B00011C08091E80085FD06C08091E8008E771B
:1015C0008093E800F2CFF80181918F018093F100C0
:1015D000219779F78091E8008E778093E800DF917A
:1015E000CF911F910F91089543E050E0BC0182E03C
:1015F0000E94B90A089546E050E0BC0182E00E94D2
:10160000B90A0895CF93DF93EC0180912B018111EA
:1016100011C048E050E0BE0181E00E94B90A80E2BA
:10162000FE01A1E1B5E001900D928A95E1F7DF910D
:10163000CF91089580910C0587FF05C040E282E0BC
:1016400050E0BE01EACF48E081E0FACFB0E0A0E090
:10165000ECE2FBE00C94542A7C015B016A0180916E
:10166000760201E010E08A3010F40AE010E0C1E0F8
:10167000D0E0B501C701F6010995811104C021969A
:101680000C171D072CF4CDB7DEB7EAE00C94702AD6
:10169000CC9F9001CD9F300D300D112490E080E063
:1016A00045E34A95F1F70000019682179307C1F7C9
:1016B000E0CF80916002811119C088EC90E0209108
:1016C000E30027FD10C0EFE3FCE93197F1F700C01C
:1016D00000000197A1F782E0809360020E94F50369
:1016E0001092330503C081E08093600281E0909105
:1016F0006002913011F080E0089508950E94590B26
:10170000882359F0E0910305F0910405309729F002
:101710000190F081E02D0995089580E00895809171
:10172000D90490914405892B8093A0019091530294
:101730009923A1F0892B8093A00180912B0188230C
:10174000E1F180910C0587FF38C08EE1E2EAF1E01B
:1017500090E08150A0F591110E94CA0840E250E04B
:1017600063E372E080EA91E00E94CD2A892B21F1A7
:1017700080E2E0EAF1E0A3E3B2E001900D928A9505
:10178000E1F7E0910305F09104053097A9F080910D
:101790002B01882359F080910C0587FF07C08091A9
:1017A000A0018093A10186E08093A0010280F381D3
:1017B000E02D80EA91E00995089586E0C7CF219158
:1017C000222339F29F5FC5CF80912801877F8093C4
:1017D0002801909144059D7F9093440584FF08C0A3
:1017E0008F7E809328018091D90482608093D904F0
:1017F0008091280185FF08C08F7D8093280180910A
:10180000D90480628093D9040E948F0B0895CF93EE
:10181000DF93EC019C012C70332790912801232B3E
:1018200079F09E7F909328010E94E40BCE01807393
:101830009927C09749F4CE018064DF91CF91089534
:10184000916090932801F2CFCE018F7BF6CF0E945A
:10185000070C9093880280938702089521E030E07E
:1018600002C0220F331F8A95E2F7209530958091B0
:10187000870290918802822393230E94270C089567
:10188000909132028095892380933202282F27700D
:1018900091F4282F082E000C330B9217130659F0E1
:1018A00090910D0592FF07C08595859585950E94BD
:1018B0002E0C10923202089521E030E002C0220F77
:1018C000331F8A95E2F78091870290918802822BDC
:1018D000932B0E94270C0895882341F080959091C6
:1018E00044058923809344050E948F0B0895882323
:1018F00039F090914405982B909344050E948F0BEA
:101900000895882321F00E94DA080E948F0B089521
:10191000882339F09091D904982B9093D9040E9490
:101920008F0B089590910D0592FB222720F928171F
:1019300079F080FB92F990930D0560910C05709100
:101940000D0584E090E00E940F2B82E00E94400C85
:101950000895A4E0B0E0EFEAFCE00C945A2A40912C
:1019600072025091730260917402709175022FB7E8
:10197000F8948091080590910905A0910A05B0910D
:101980000B052FBF841B950BA60BB70B11E08436FC
:101990009105A105B10590F10E94590B882399F199
:1019A0000E9463056E5F7F4F8F4F9F4F69837A83DD
:1019B0008B839C83809111019091120187599D4FD7
:1019C0004091100150E04530510510F044E050E0E6
:1019D000BE016F5F7F4F0E94DA2A82E090E00E9492
:1019E000C229182F882351F00E9463056093720268
:1019F000709373028093740290937502812F2496E2
:101A0000E4E00C94762A0E9463050091770210911D
:101A100078022091790230917A02600F711F821F43
:101A2000931FC0CFEF92FF921F93CF93DF9300D00D
:101A300000D00F92CDB7DEB77B0190E080E00E942E
:101A4000C229182F882309F487C04091030150E070
:101A50004115510511F041E050E060910401709191
:101A6000050167597D4FCE0105960E94DA2A409103
:101A700065025091660260916702709168022FB70B
:101A8000F8948091080590910905A0910A05B091FC
:101A90000B052FBF841B950BA60BB70B8436910546
:101AA000A105B10540F48AE692E00E94DE039D8123
:101AB000891709F451C081E090E00E94C229811188
:101AC0001AC010E08091610290916202A0916302BD
:101AD000B0916402F70180839183A283B383812F45
:101AE0000F900F900F900F900F90DF91CF911F915B
:101AF000FF90EF90089540910B0150E04530510563
:101B000010F044E050E060910C0170910D016759B4
:101B10007D4FCE0101960E94DA2A8AE692E00E9469
:101B2000DE039D818913CDCF0E946305609365021A
:101B300070936602809367029093680289819A810C
:101B4000AB81BC818093610290936202A093630297
:101B5000B093640211E0B6CF80916A0290916B025B
:101B6000A0916C02B0916D0289839A83AB83BC8390
:101B70001111E4CFA7CF1F920F920FB60F9211242D
:101B80002F933F934F935F936F937F938F939F9385
:101B9000AF93BF93EF93FF938091E10082FF09C061
:101BA0008091E20082FF05C08091E1008B7F8093ED
:101BB000E1008091DA0080FF24C08091D80080FF8E
:101BC00020C08091DA008E7F8093DA008091D90066
:101BD00080FF9DC080E189BD82E189BD09B400FE1E
:101BE000FDCF81E08093330580910E05811109C0FE
:101BF0000E94F5030E9496048091E2008460809325
:101C0000E2008091E10080FF17C08091E20080FF38
:101C100013C08091E2008E7F8093E2008091E20009
:101C200080618093E2008091D80080628093D80028
:101C300019BC85E0809333058091E10084FF2BC0BF
:101C40008091E20084FF27C080E189BD82E189BDE7
:101C500089B5982F917080FFFBCF8091D8008F7D40
:101C60008093D8008091E1008F7E8093E100809185
:101C7000E2008F7E8093E2008091E2008160809399
:101C8000E20080913405882309F447C084E0809302
:101C90003305809133058091E10083FF27C0809157
:101CA000E20083FF23C08091E100877F8093E10001
:101CB00082E080933305109234058091E1008E7F9D
:101CC0008093E1008091E2008E7F8093E20080911A
:101CD000E20080618093E20042E060E080E00E94E8
:101CE00064048091F00088608093F000FF91EF9190
:101CF000BF91AF919F918F917F916F915F914F9124
:101D00003F912F910F900FBE0F901F90189519BC07
:101D10001092330510920E0574CF8091E30087FD79
:101D200093E090933305B5CF78941F921FB61F921E
:101D300011248F939F93AF93BF9380910805909147
:101D40000905A0910A05B0910B050196A11DB11DD1
:101D50008093080590930905A0930A05B0930B059D
:101D6000BF91AF919F918F911F901FBE1F901895AB
:101D70009C014FB7F8948091080590910905A091B6
:101D80000A05B0910B054FBF821B930B08952FB727
:101D9000F8948091080590910905A0910A05B091E9
:101DA0000B052FBF08950E94C70E9C019091CF0490
:101DB0008091D004982B21F03093CC042093CB0455
:101DC0009091D1048091D204982B21F03093CA04D1
:101DD0002093C904E0910305F0910405309749F080
:101DE00082E08093CD040480F581E02D8DEC94E0B9
:101DF000099508951092D90480912B01E2EAF1E04F
:101E00008823F9F080910C0587FF1BC08EE1DF016C
:101E10001D928A95E9F790E080E00E94F30590E03A
:101E200080E00E94CE05109244050E948F0B86E050
:101E3000EDECF4E0DF011D928A95E9F70E94D30EE4
:101E4000089586E0E4CFAAE2B0E0E9E2FFE00C9476
:101E50005B2A85E395E02091F100FC012193CF01FD
:101E6000F5E08D339F07B9F780913605833009F48B
:101E700070C0B8F4813009F447C0823009F4B1C0B1
:101E80008091E80083FF7EC28091350590913605F0
:101E90009A3008F077C2E92FF0E0E95DF44D0C9438
:101EA000A52A8A3009F48CC08B3009F46FC08930C0
:101EB00039F780913505813219F780913905909174
:101EC0003A050297E8F68091E800877F8093E80062
:101ED0008091E80082FF38C09091F3008091F20079
:101EE000029731F48091F100813011F0863021F4B5
:101EF0008091F100809310058091E8008B778093AA
:101F0000E8000E944504BCCF80913505813A09F074
:101F1000B7CF8091E800877F8093E80080913905F2
:101F200090913A05892B61F460E281E195E070E0DF
:101F30000E94F1048091E8008B778093E800A0CFA5
:101F400060E090E080E0F3CF809133058111C0CF55
:101F500097CF80913505813A09F092CF809139056C
:101F600090913A05892B09F08BCF8091E800877F0B
:101F70008093E8008091E80080FFFCCF80912B01E6
:101F80008093F1008091E8008E77B9CF809135057C
:101F9000813209F075CF8091390590913A05892BEE
:101FA00009F06ECF8091E800877F8093E8000E945F
:101FB00045048091370580932B010E94FA0E60CF73
:101FC00080913505813209F05BCF8091E800877FF1
:101FD0008093E8000E9445048091380580930F05A6
:101FE0004FCF80913505813A09F04ACF8091E800C2
:101FF000877F8093E8008091E80080FFFCCF80918C
:102000000F05BECF803899F0823809F0BBC18091AE
:1020100039058F70873008F0B5C18093E900809151
:10202000EB0085FB882780F91092E90006C08091BB
:10203000310590913205911182609091E800977F6F
:102040009093E8008093F1001092F1008091E800F5
:102050008E7794C1882309F482C1823009F092C13D
:1020600080913705811185C1809139058F702FEFDF
:10207000280F263008F086C18093E9002091EB00FC
:1020800020FF77C1933031F48091EB008062809320
:10209000EB006FC19091EB0090619093EB0021E019
:1020A00030E001C0220F8A95EAF72093EA001092EF
:1020B000EA008091EB008860EACF811163C1109142
:1020C00037051F778091E3008078812B8093E300B0
:1020D0008091E800877F8093E8000E94450480910A
:1020E000E80080FFFCCF8091E30080688093E300EC
:1020F00082E0111183E08093330544C1805882301F
:1021000008F040C180913705909138058C3D23E05F
:102110009207A1F583E08A838AE289834FB7F89416
:10212000DE01139620E03EE051E2E32FF0E0509311
:102130005700E49120FF03C0E295EF703F5FEF701E
:102140008E2F90E0EA30C0F0C7968D939D932F5F5D
:10215000243159F74FBF8091E800877F8093E800D2
:102160006AE270E0CE0101960E94F1048091E800DD
:102170008B778093E80006C1C096E7CF4091390580
:1021800050913A05292F33272330310509F444C0F3
:1021900078F52130310509F46FC08BE390E0E6E378
:1021A000F6E02230310509F0EDC02091E800277FEC
:1021B0002093E80020913B0530913C05821793075E
:1021C00008F49C0140E02115310509F064C041117B
:1021D00062C08091E80082FDC9CF809133058823D9
:1021E00029F2853019F28091E80083FFF2CFBECF4B
:1021F00021323105A9F12232310509F0C3C0411560
:10220000510509F443C04130510509F0BBC086EBCC
:1022100090E0E0E4F5E0C9CF992781309105C1F065
:10222000009759F0029709F0ADC0E3E8F6E0E491B9
:102230008E2F90E0E3E8F6E007C0E3EAF6E0E491F1
:102240008E2F90E0E3EAF6E0009709F49BC0ADCF53
:10225000E1E9F6E0E4918E2F90E0E1E9F6E0F4CFD9
:102260004115510571F04130510509F08BC089E0ED
:1022700090E0E1E6F6E099CF82E190E0E1E7F6E078
:1022800094CF89E090E0E8E4F6E08FCF80E490E03E
:10229000E6EFF5E08ACF80913305882309F466CF15
:1022A000853009F463CF8091E80083FD5FCF809192
:1022B000E80082FD8ECF8091E80080FF84CF90916E
:1022C000F3008091F2002115310519F08830910555
:1022D00050F041E0089709F040E08091E8008E77E7
:1022E0008093E80070CF44914093F10031962150E3
:1022F00031090196E8CF803809F044C08091E800A8
:10230000877F8093E800809134058093F1009ECE12
:10231000811138C0109137051230A0F58091E80086
:10232000877F8093E800109334050E9445041123B1
:1023300011F084E005C08091E30087FDFACF81E0D1
:102340008093330542E061EC81E00E94640442E244
:1023500061EC82E00E9464048091330513C0809197
:102360003705813079F481E0933009F080E0809383
:1023700032051092E9008091E800877F8093E800A1
:102380000E9445048091E80083FF0AC08091E80024
:10239000877F8093E8008091EB0080628093EB0060
:1023A000AA96E3E00C94772A1F920F920FB60F9231
:1023B00011242F933F934F935F936F937F938F934A
:1023C0009F93AF93BF93CF93DF93EF93FF93D091FE
:1023D000E900DF708091EC00C82FC17080FDC0E87B
:1023E0001092E9008091F000877F8093F00078944C
:1023F0000E94230F1092E9008091F0008860809382
:10240000F000CD2BCF70C093E900FF91EF91DF91E9
:10241000CF91BF91AF919F918F917F916F915F917C
:102420004F913F912F910F900FBE0F901F901895D5
:102430000E94FA0E2FEF84E39CE0215080409040F0
:10244000E1F700C0000088E19AE00FB6F894A89583
:10245000809360000FBE90936000FFCF4091C8044E
:10246000662309F456C0242F30E0220F331FF901F0
:10247000EB56FE4F90818D3C31F491959093D004B2
:102480000E94D30E08958E3CC9F38F3C21F49195A0
:102490009093CF04F5CF803DD9F323573E4FF901F8
:1024A0009081893D19F49093D104EACF8A3D11F4CB
:1024B0009195F9CF8B3D21F491959093D204E0CF83
:1024C0008C3DD9F39FE2980F983070F4815D990BA1
:1024D00021E030E001C0220F8A95EAF78091CE0416
:1024E000822B8093CE04CCCF8D3D51F481E080933C
:1024F000C8048091C804841719F20E941806C0CF3E
:102500008E3D11F482E0F3CF8F3D09F0B9CF83E027
:10251000EECF8D3C39F49091D00497FF09C0109212
:10252000D004AECF8E3C69F49091D0041916BCF360
:102530008D5D833008F0A4CF1092C8044111DDCF27
:102540009FCF8F3C39F49091CF0497FFF1CF109239
:10255000CF0496CF803D29F49091CF041916BCF397
:10256000E7CF893D39F49091D10419160CF71092F8
:10257000D10486CF8A3D29F49091D10497FFD8CF1A
:10258000F6CF8B3D39F48091D20487FF79CF10923A
:10259000D20476CF8C3D29F48091D2041816BCF376
:1025A0006FCF9FE2980F983008F0C2CF815D990BF2
:1025B00021E030E0A90102C0440F551F8A95E2F7DF
:1025C000CA0180959091CE0489238BCF882399F1FD
:1025D0009CEF980F913A40F4682F80EA91E00E94B6
:1025E0006F050E948F0B089590E2980F983050F479
:1025F000877091E001C0990F8A95EAF7892F0E94B0
:10260000DA08EFCF9BE5980F933028F490E080E054
:102610000E94F305089598E5980F9B3128F490E007
:1026200080E00E94CE05089593E3980F933118F44B
:1026300060E00E942E120895CF93DF93EC010E9478
:10264000E612CE010E941B0A9E01205E310928304D
:10265000310510F0CD2B29F40E94810CDF91CF9130
:1026600008950E946C0CFACF8732910509F4ACC032
:10267000A8F58232910509F493C0F0F48F319105E9
:1026800009F484C060F48E31910509F47AC09C018C
:1026900030522115304308F058C0992756C0803277
:1026A000910509F478C08132910589F7662309F410
:1026B0004CC08CE590E049C08432910509F47AC0A1
:1026C00008F473C08532910509F479C0863291050A
:1026D000F1F66623D1F181E690E037C0833222E043
:1026E0009207B1F1D8F48E3122E09207D9F140F48B
:1026F0008833910561F6662341F181E390E025C0BE
:10270000803222E0920799F1813242E0940709F089
:10271000BECF6623D1F085E390E017C0853222E07A
:102720009207D9F048F1863222E0920751F08732C1
:1027300042E0940709F0ABCF662339F087E392E0DB
:1027400004C0662311F086E392E00E941C130895F2
:102750006623D9F385E392E0F8CF6623B1F382E2F2
:1027600092E0F3CF662389F388E392E0EECF66230D
:1027700061F38FE192E0E9CF662339F381E392E0E0
:10278000E4CF662311F389E590E0DFCF6623E9F219
:102790008AE590E0DACF6623C1F28BE590E0D5CFF1
:1027A000662399F28DE590E0D0CF662371F28EE535
:1027B00090E0CBCF662349F28FE590E0C6CF662349
:1027C00021F280E690E0C1CF662309F4BECF82E615
:1027D00090E0BBCFCF93C82F8823D9F18CEF8C0F1B
:1027E000813AC8F580912B01882311F180910C0565
:1027F00087FF1EC0EC2FE695E695E695F0E0E056E3
:10280000FE4F828190E04C2F477021E030E002C003
:10281000220F331F4A95E2F782239323892B91F0ED
:102820006C2F80EA91E00E946F050E948F0B0AC016
:10283000E2EAF1E088EA91E02191C21789F38E176C
:102840009F07D1F76C2F80EA91E00E9499050E94C2
:102850008F0BCF91089580E28C0F883068F4C77099
:1028600021E030E001C0220FCA95EAF78091D90437
:10287000822B8093D904EBCFEBE5EC0FE33040F4EF
:10288000F0E0E05DFE4F808190E00E94F305E1CF33
:10289000E8E5EC0FEB3150F4F0E0EE0FFF1FED5CDC
:1028A000FE4F808191810E94CE05D3CF83E38C0FB0
:1028B000833178F661E08C2F0E942E12CACF1F93CD
:1028C000CF93DF93182FD0E0C0E0893311F4C0E537
:1028D000D0E0812F0E94EA13209739F4812F0E94C3
:1028E000E612DF91CF911F9108958FE99FE0019744
:1028F000F1F700C000002197EFCF0F931F93CF9304
:10290000DF93C42FD22FFC0182818823A9F040934A
:1029100000050E94C70E9093FF048093FE04C770C9
:1029200081E001C0880FCA95EAF70E94880CDF9108
:10293000CF911F910F91089510910005141336C087
:102940008091FE049091FF040E94B80E209129010D
:1029500030912A018217930748F5C0E2CD0F1D1769
:10296000B9F080E2810F883040F4177081E001C037
:10297000880F1A95EAF70E94810CC83048F481E06C
:102980009D2F977001C0880F9A95EAF70E94880CD6
:10299000802F0E945F14C83050F6D77081E001C0CC
:1029A000880FDA95EAF70E94810CC1CFC77081E0E9
:1029B00001C0880FCA95EAF7F6CFB0E0A0E0E3EED9
:1029C000F4E10C94542AEC018AE0A82E28812223F9
:1029D00009F48FC02130C9F599818A81913021F4A1
:1029E00022960E945F1405C0923029F422960E941C
:1029F000EA132196EBCF933021F422960E94E6123F
:102A0000F8CF943011F02196F4CF229630E020E0F8
:102A1000AE014F5F5F4F8053990B8A30910550F0A4
:102A20002150310930F38FE99FE00197F1F700C0A1
:102A30000000F6CFA29EB001A39E700D11249C0150
:102A4000260F371F8981EA01E3CFE22FF0E0E0543F
:102A5000FB4FB490822F86958695869590E0FC0179
:102A6000E055FB4FE4902770F12C022E02C0F59444
:102A7000E7940A94E2F731E0E322FF24FC01E056F8
:102A8000FB4FC490D12C022E02C0D594C7940A9457
:102A9000E2F731E0C322DD24FC01E057FB4F049153
:102AA00010E002C0159507952A95E2F701701127ED
:102AB000E114F10419F081EE0E94EA13C114D1046B
:102AC00019F086EE0E94EA138B2D0E945F14C11448
:102AD000D10419F086EE0E94E612E114F10419F017
:102AE00081EE0E94E6120115110509F482CF8CE2F5
:102AF00078CFCDB7DEB7EAE00C94702ACF93DF939E
:102B0000EC010E941B0A9E01205E3109283031052C
:102B100010F0209741F40E94880C8C2F0E94EA1339
:102B2000DF91CF9108950E94770CF7CF833222E096
:102B3000920709F43FC028F58E3122E0920709F48C
:102B400043C090F48833910509F44DC0662329F001
:102B5000209144052260209344059C0130522115A8
:102B6000304328F5992723C0803222E0920789F16B
:102B7000813242E0940751F76623C9F085E390E083
:102B800016C0853222E09207D1F040F1863222E071
:102B9000920749F0873242E09407C1F6662339F084
:102BA00087E392E004C0662311F086E392E00E947E
:102BB0007E1508956623D9F385E392E0F8CF662366
:102BC000B1F382E292E0F3CF662389F388E392E0E7
:102BD000EECF662361F38FE192E0E9CF662339F30C
:102BE00081E392E0E4CF662311F381E390E0DFCF4D
:102BF000B0E0A0E0EEEFF5E10C94562A6C018B01F9
:102C0000E42E8091280182FF76C0C091FC04D0910F
:102C1000FD04CC15DD0521F0C114D10409F06BC011
:102C2000809128018B7F8093280121E081FD0FC0D6
:102C30008091FA049091FB046801C81AD90ACE0168
:102C40000E94730321E0C816D90608F420E0217021
:102C5000F22E8091280120FB81F980932801FE014A
:102C600093E0F695E7959A95E1F7EE71FF27E65226
:102C7000FB4F20813181AE014F70552781E090E0FC
:102C800002C0880F991F4A95E2F7FF2079F1822B45
:102C9000932B918380838091D90481FF08C0809118
:102CA000280180618093280182E00E94DA088091E7
:102CB000D90485FF08C08091280180628093280193
:102CC00080E20E94DA086F2DCE010E949615E11075
:102CD0003CC060912801669561708091FC049091E0
:102CE000FD040E9434130E94E40B2BC08095909544
:102CF00082239323CECFF60183E0F695E7958A955C
:102D0000E1F7EE71FF27E652FB4F96012F70332754
:102D100081E090E002C0880F991F2A95E2F7208198
:102D200031818223932361E0892B09F460E0C6019D
:102D30000E9434138091FC049091FD048C159D0534
:102D400091F21093FB040093FA04CDB7DEB7E8E0EC
:102D50000C94722A0F931F93CF93DF938C01EB0196
:102D60000E947E15209741F4C8010E941C13DF9138
:102D7000CF911F910F9108958FE99FE00197F1F78F
:102D800000C000002197EECFACE0B0E0EAECF6E145
:102D90000C94512A8E010F5F1F4F88E0D8011D92BD
:102DA0008A95E9F78BE6C82E81E0D82EF12CE12C2C
:102DB000AA24A394B12C25E7822E21E0922EF601BD
:102DC00081916F018F3F09F442C0F894E82FE2959A
:102DD000EF70F0E021A18F70A50102C0440F551FD4
:102DE0008A95E2F7CA01922F982B91A392A1809520
:102DF000892382A3789400C0EFE6F1E0712C31E0E2
:102E000021912F3F09F46BC0A22FA295AF70B0E0C3
:102E100090968C9190E02F7002C0959587952A9599
:102E2000E2F780FD5CC0832F782A330F8E169F0651
:102E300039F7F601319780818F3F11F00E9491069A
:102E400050EA5A95F1F7F801EE0DFF1D70828FEFF1
:102E5000E81AF80AA4E0EA16F10409F0B0CF48E055
:102E600050E0B8018BE792E00E94CD2A009741F034
:102E700028E0F801ABE7B2E001900D922A95E1F766
:102E800000918402892B69F181E0809358020E94AD
:102E9000C70E9093570280935602809156029091EC
:102EA00057020E94B80E059700F110E007571D4F1A
:102EB00044E050E06BE772E0C8010E94CD2AB12CDB
:102EC000892B51F084E0EBE7F2E0D80101900D92FC
:102ED0008A95E1F7BB24B3941092580207C080E0B2
:102EE000A3CF809158028111D8CFB12C0E94590BE9
:102EF000F82EE0918402882309F472C019861A869C
:102F00001B861C860E2F10E007571D4F80917602FE
:102F10008A3088F542E15DE0BE01675F7F4FC801FE
:102F20000E94260B882309F44AC049EA5CE0BE01EE
:102F3000675F7F4FC8010E94260B882309F43FC0BA
:102F4000109276028091830290E044E050E0BE014E
:102F5000675F7F4F87579D4F0E94CD2A21E02093C6
:102F60005F02892BF1F4F12C1F2D812F8B292C96D8
:102F7000EDE00C946D2A8091590290915A020E94C2
:102F8000B80E843F914030F680915F02882359F358
:102F9000FE01399684E0DF011D928A95E9F71092CF
:102FA0005F02E0918302F0E0E757FD4F89859A8543
:102FB000AB85BC8580839183A283B383D5CF809179
:102FC00076028F3F31F08F5F809376028A3008F46B
:102FD000B9CF0E94C70E90935A0280935902D4CF62
:102FE000F0E0E757FD4F84E0AAE6B2E001900D92D1
:102FF0008A95E1F78AE692E00E94DE0380936902F7
:10300000C0906E02D0906F02E0907002F09071025A
:1030100080915B0290915C02A0915D02B0915E0292
:10302000C816D906EA06FB0611F410E09ECFC0923E
:103030005B02D0925C02E0925D02F0925E020E941E
:10304000590B182F8111F1CF0E946305C61AD70AB8
:10305000E80AF90AC0927702D0927802E0927902E7
:10306000F0927A0282CFB0E0A0E0E9E3F8E10C94BC
:103070004C2A4C01DC0113968D919C911497892B5D
:1030800039F08C9111969C9189238F3F09F0E0C70C
:10309000CDB7DEB7E2E10C94682A8091E00191E0BF
:1030A00089278093E00180913202877089F3D401EF
:1030B00012968C91882361F380910D0582FFE8CFF1
:1030C00082E00E94400CE4CF8091E001882309F463
:1030D00042C11092E001E03CF10508F095C0E038F3
:1030E000F10508F002C1E034F10508F0C8C021E0A4
:1030F00030E040E050E060E070E080E090E00E2FD3
:103100000E94AB2AA091C0012A2BA091C1013A2BA9
:10311000A091C2014A2BA091C3015A2BA091C401D6
:103120006A2BA091C5017A2BA091C6018A2BA09190
:10313000C7019A2B2093C0013093C1014093C20173
:103140005093C3016093C4017093C5018093C6017D
:103150009093C701EF010E94C70E8C01D401129613
:103160008C91882309F404C38091280182FF08C050
:103170002AE932E040E0B80190E080E00E94F815D2
:10318000C231BCE7DB0709F4E4C208F0B9C2C031C0
:10319000FCE7DF0709F4D3C280912E0190912F0143
:1031A0000596C1312CE7D20709F4CEC2CE01905268
:1031B0008115904308F0EBC21092FD041092FC04BC
:1031C000D40112968C91882309F4C2C7C137BCE799
:1031D000DB0709F4BBC3C237ECE7DE0709F4C0C361
:1031E000C037FCE7DF0709F0A8C78091290190915B
:1031F0002A010E949103FC01019620812032D9F31B
:10320000CF010E94DD144FCFEF3FF10511F008F020
:103210006ECF8F01005C110921E030E040E050E00A
:1032200060E070E080E090E00E94AB2AA091D801BD
:103230002A2BA091D9013A2BA091DA014A2BA09117
:10324000DB015A2BA091DC016A2BA091DD017A2BC6
:10325000A091DE018A2BA091DF019A2B2093D80147
:103260003093D9014093DA015093DB016093DC0184
:103270007093DD018093DE019093DF016BCF8F01AE
:103280000054110921E030E040E050E060E070E0DF
:1032900080E090E00E94AB2AA091C8012A2BA09167
:1032A000C9013A2BA091CA014A2BA091CB015A2BFC
:1032B000A091CC016A2BA091CD017A2BA091CE01D7
:1032C0008A2BA091CF019A2B2093C8013093C9017A
:1032D0004093CA015093CB016093CC017093CD0110
:1032E0008093CE019093CF0135CF8F010058110903
:1032F00021E030E040E050E060E070E080E090E00D
:103300000E94AB2AA091D0012A2BA091D1013A2B87
:10331000A091D2014A2BA091D3015A2BA091D401A4
:103320006A2BA091D5017A2BA091D6018A2BA0916E
:10333000D7019A2B2093D0013093D1014093D20131
:103340005093D3016093D4017093D5018093D6013B
:103350009093D701FFCEE034F10508F067C02090CC
:10336000C0013090C1014090C2015090C3016090F3
:10337000C4017090C501B091C601A091C70121E0C0
:1033800030E040E050E060E070E080E090E00E2F40
:103390000E94AB2AA22CA222B32CB322C42CC4229A
:1033A000D52CD522E62CE622F72CF7220B2F08236A
:1033B0001A2F19230E94C42A09F06AC6E03CF105BD
:1033C00008F08EC0E038F10508F0EBC0E034F105FC
:1033D00008F0B9C021E030E040E050E060E070E08B
:1033E00080E090E00E2F0E94AB2A2095309540950A
:1033F00050956095709580959095222133214421B8
:103400005521662177218B239A232093C001309385
:10341000C1014093C2015093C3016093C4017093F2
:10342000C5018093C6019093C7013DCEE038F105F8
:10343000E0F42090C8013090C9014090CA0150903A
:10344000CB016090CC017090CD01B091CE01A091E4
:10345000CF0121E030E040E050E060E070E080E04B
:1034600090E08F010054110993CFE03CF105E0F4A6
:103470002090D0013090D1014090D2015090D301E2
:103480006090D4017090D501B091D601A091D70180
:1034900021E030E040E050E060E070E080E090E06B
:1034A0008F010058110974CF2090D8013090D901B4
:1034B0004090DA015090DB016090DC017090DD01FA
:1034C000B091DE01A091DF0121E030E040E050E06A
:1034D00060E070E080E090E08F01005C110958CF5F
:1034E000EF3FF10511F008F075CF8F01005C110975
:1034F00021E030E040E050E060E070E080E090E00B
:103500000E94AB2A20953095409550956095709516
:1035100080959095222133214421552166217721E0
:103520008B239A232093D8013093D9014093DA0159
:103530005093DB016093DC017093DD018093DE0129
:103540009093DF01B0CD8F010054110921E030E0EC
:1035500040E050E060E070E080E090E00E94AB2A44
:1035600020953095409550956095709580959095F3
:103570002221332144215521662177218B239A234F
:103580002093C8013093C9014093CA015093CB01E5
:103590006093CC017093CD018093CE019093CF01C5
:1035A00082CD8F010058110921E030E040E050E069
:1035B00060E070E080E090E00E94AB2A20953095BA
:1035C0004095509560957095809590952221332176
:1035D00044215521662177218B239A232093D00102
:1035E0003093D1014093D2015093D3016093D40121
:1035F0007093D5018093D6019093D70154CDEF3FBE
:10360000F10511F008F0A7CDE034F10548F5A090E0
:10361000C001B090C101C090C201D090C301E09040
:10362000C401F090C501A091C6011091C70121E02D
:1036300030E040E050E060E070E080E090E00E2F8D
:103640000E94AB2AA222B322C422D522E622F7226C
:10365000082F0A2319230E94C42A09F07CCD23CD08
:10366000E038F10598F4A090C801B090C901C0906D
:10367000CA01D090CB01E090CC01F090CD01A09197
:10368000CE011091CF01E054F109D1CFE03CF1051A
:1036900098F4A090D001B090D101C090D201D09008
:1036A000D301E090D401F090D501A091D601109102
:1036B000D701E058F109BBCFA090D801B090D90153
:1036C000C090DA01D090DB01E090DC01F090DD01E8
:1036D000A091DE011091DF01E05CF109A8CF80919B
:1036E000870290918802E2E08E270E94270C809149
:1036F000D904827209F0D7CC86EE0E945F14D3CC35
:10370000C4313CE7D307B9F080F090912801892FAC
:103710008E7F90FF8160C5319CE7D90709F046CDC7
:10372000809328010E94E40B41CD809128018160A3
:10373000809328013BCD809128018E7FF1CF80912D
:103740002E0190912F01059790932F0180932E01C8
:103750002DCD80912E0190912F010E949103FC01AB
:10376000019620812032D9F3CF010E94DD141ECDB5
:10377000809128018F7EC13ED10539F0C53ED1052B
:1037800009F057C0809128018F7D80932801809196
:10379000280180FF15CDF4018281CB32D10509F4D7
:1037A00064C0C933D10508F04BC0CD32D10538F41F
:1037B0009E012E5131092A30310508F045C0882379
:1037C00009F4BDC03091D90480915302282F232BD6
:1037D000922F9D7F09F45CC01092FD041092FC04AE
:1037E000FE0123E0F695E7952A95E1F7EE71FF27B4
:1037F000E652FB4F9E012F70332781E090E002C01C
:10380000880F991F2A95E2F7809590952081318144
:10381000822393239183808360E0CE010E949615DA
:10382000809153028D7F0E94D00882E00E94400C5C
:103830003ACCCE0190528115904308F0A8CFC0CC6D
:10384000C436D10509F4BBCFCE31F2E0DF0709F46D
:10385000B6CF70F4CE31D10540F0C832D10508F4AE
:10386000AECFC833D10509F4AACF8111A5CCA8CC1D
:10387000C03232E0D307C8F3C23292E0D90708F46D
:103880009ECF9E01235232402530310570F797CFED
:1038900096E0F401AAE9B2E001900D929A95E1F761
:1038A00010929C0210929E0210929D024091FC0484
:1038B0005091FD044C175D0759F59091280191FD39
:1038C00027C04091FA045091FB04B801641B750BAA
:1038D0004091290150912A0164177507C8F431FFFE
:1038E00006C090619093280182E00E94DA088091DE
:1038F000D90485FF08C08091280180628093280147
:1039000080E20E94DA0860E0CE010E949615CBCBDF
:103910009091280121FB91F9909328018D7F0E94BD
:10392000D008D093FD04C093FC041093FB040093D3
:10393000FA048091280184608093280176CF940155
:1039400040E0B801CE010E94F815ADCB809129016D
:1039500090912A01059690932A0180932901A3CB87
:103960008091290190912A010597F5CF06E221EE79
:1039700041EE6AE17CE7C4010E947D1494CB07E22A
:1039800025EE45EE6BE17CE7F6CF06E221EE40EE58
:1039900068E17CE7F0CF07E225EE44EE69E17CE7E1
:1039A000EACF06E221EE42EE6CE17CE7E4CF07E2EB
:1039B00025EE46EE6DE17CE7DECF08E221E045EE44
:1039C0006EE17CE7D8CF10920005CE019057839727
:1039D00008F07CC384E090E00E94EB2A90930D05F0
:1039E00080930C05FE01E150F047E232F10520F42E
:1039F000EF5CF44D0C94A52A80910C0581608093B6
:103A00000C0595C080910D05886080930D058FC0D1
:103A100080910C058260F3CF80910C058460EFCF1C
:103A200080910C058860EBCF80910D058160EDCF12
:103A300080910D058260E9CF80910C058061DFCF18
:103A400080910C058062DBCF80910C058064D7CF1C
:103A50000E94FA0E80910C058068D1CF80910C05F0
:103A60008C60CDCF80910D058360CFCF80910C0508
:103A70008E7FC5CF80910D05877FC7CF80910C05C4
:103A80008D7FBDCF80910C058B7FB9CF80910C05C8
:103A9000877FB5CF80910D058E7FB7CF80910D05C3
:103AA0008D7FB3CF80910C058F7EA9CF80910C05BF
:103AB0008F7DA5CF80910C058F7BA1CF0E94FA0E40
:103AC00080910C058F779BCF80910C05837F97CFDA
:103AD00080910D058C7F99CF80910C0582FB9927F1
:103AE00090F921E0922790FB82F990FB83F987CF30
:103AF00080910D05982F909591708E7F892B90FB6A
:103B000081F983CF90910C05892F8F7B96FF80647C
:103B100076CF0E94FA0E90910C05892F97FB87F9BA
:103B200080586DCF61E08EE090E00E94F12A6091B4
:103B30000C0570910D0584E090E00E940F2B0E940F
:103B4000FA0EB1CA60E0EFCF90910C05892F8F7EFD
:103B500094FF806154CF90910C05892F8E7F90FF48
:103B600081604DCF90910D05892F877F93FF8860ED
:103B70004CCF0E94FA0E2FEF34E38CE021503040FE
:103B80008040E1F700C000000E9452056FEF7FEF18
:103B900090E080E00E940F2B0E94181280910D058A
:103BA00082FB882780F991E089270E94920CF4011A
:103BB0008281C081D181882309F44DC0CE010E9449
:103BC0001709182F682FCE010E948B09BE01812F83
:103BD0000E948D070E94AC07D82FC92F482ED40110
:103BE00012961C91129715967C9072949FE0792200
:103BF000809132028770F1F0612E1123E1F08C2F59
:103C0000807F803451F080E28D0F883098F0711001
:103C100004C08C2F807E803269F080910D0582FF78
:103C200009C082E00E94400C8091320287706624B5
:103C300063948111612C5C2E52948FE05822BBE07A
:103C4000B51508F469C0E52DF0E0ED5AF44D0C947B
:103C5000A52A80E0AACFCE010E945809182FB6CF1E
:103C60000C2F0F70C07F11F00295007F1123B9F067
:103C7000002369F080E28D0F883010F0411009C0F8
:103C80008091D904082B0093D9040E948F0B8D2FAB
:103C900041C080914405082B00934405F6CF8D2F39
:103CA0000E94E6120023C1F1D05ED83010F041101E
:103CB00004C0802F0E94DA0806C000958091440558
:103CC0000823009344050E948F0B26C00C2F0F7011
:103CD000C07FC03211F00295007F442059F0E1E02E
:103CE0004E1609F464C0112309F46EC0772009F45C
:103CF00064C0CDCF80910D0582FD37C0112379F1CD
:103D0000002339F08091D904082B0093D9040E9434
:103D10008F0B80E00E94EA13A52DA850BB0B1497CF
:103D200010F40E947E0B6620A9F08091320280FD83
:103D300011C0F40112828595859585950E945C0CD1
:103D4000C4010E943318809132028595859585952E
:103D50000E942E0C60E0C4010E94F00999C980E025
:103D60000E94E6120023C1F2A4CF112371F08091CA
:103D70005302802B711003C00E94880CCDCFF1E05C
:103D80007F12FACF0E94D008C7CF711006C00E94E0
:103D9000CA08802F0E94810CBFCF21E0721609F45F
:103DA000BBCF802F0E94810C0E94CA08B5CF11237F
:103DB00031F035E0371508F4AFCF802FDDCF84E048
:103DC000871508F4A9CFE5CF772019F399E34912B5
:103DD00009C0AFEFB7EEE3E0A150B040E040E1F73B
:103DE00000C000008D2F0E94E61296CF8C2F869582
:103DF0008695837069F0813009F08ECF8D2F9C2FCE
:103E00009370111102C080E090E00E94CE0584CF33
:103E10008D2F9C2F9370111102C080E090E00E94C2
:103E2000F3057ACF612F8D2F0E942E1275CF8C2F24
:103E3000837009F03FC011116FCF4D2F4295469509
:103E40004770440F440F2D2F2F7030E0042E02C016
:103E5000220F331F0A94E2F790E080E0D4FF09C0FC
:103E60008FE090E002C0880F991F4A95E2F7809595
:103E70009095C695C695C370C23099F078F440917C
:103E8000850250918602C13039F0822B932B842316
:103E900095230E94C10940CF242B352B822B932BD5
:103EA000F8CF822B932B20918502309186028227B6
:103EB0009327EFCF8695112311F08C2F81708823E3
:103EC00009F42ACF4D2F429546954770440F440F71
:103ED0002D2F2F7030E0042E02C0220F331F0A94C2
:103EE000E2F790E080E0D4FF09C08FE090E002C0EC
:103EF000880F991F4A95E2F780959095C695C695CB
:103F0000C370C23099F078F44091870250918802D2
:103F1000C13039F0822B932B842395230E94270CE8
:103F2000FBCE242B352B822B932BF8CF822B932B7C
:103F3000209187023091880282279327EFCFCF709C
:103F4000112329F08C2F0E945C0C8D2F15CF8D2F03
:103F50000E94810C8C2F0E942E0CDECE8D2FF2EF52
:103F60004F1699F1F41570F020EF4216D1F031EFB1
:103F7000431691F0112309F45BC0711088CE8C2F89
:103F80008F7127C093EF491639F1A4EF4A12F2CF8F
:103F900080910D0582FD2EC08C2F8F711123D9F2D7
:103FA00018C0112369F0B4E0B71508F4B5CECF718D
:103FB00081E090E002C0880F991FCA95E2F7B8CF60
:103FC000E5E0E71508F4A8CEF2CF8C2F8F71111120
:103FD000C2CF0E945C0CA0CE90E080E0112309F4D7
:103FE0009DCFCF7181E090E002C0880F991FCA95E4
:103FF000E2F794CF112389F0CF718C2F0E945C0CD3
:1040000080910D0582FF07C0F8E0CF9FC001112409
:104010008360809332028C2FDCCF81E00E94400CC1
:1040200021E0271508F078CE82E00E94400C74CE83
:10403000772059F0893309F0D5CE3FEF87EE93E032
:10404000315080409040E1F7CBCE8C2F8F7183CFE1
:1040500061E0C4010E94F009EC01815A9245FE0121
:104060004F9720F4B0EAEB27B2E5FB27D401129674
:104070008C91882309F4C3CAEF3FF10509F008F4D5
:1040800023C8E935FC4711F40C944D181092E00157
:10409000C034FEE7DF0709F422CBC1342EE7D20794
:1040A00009F059C870E060E084E392E00E94AA162B
:1040B00070E060E085E292E00E94AA1670E060E0A5
:1040C0008CE190E00E94AA160C945318C6313CE78C
:1040D000D30799F48091D9048A7A91E009F490E0A9
:1040E0009093E10169E2811165E380EA91E00E9429
:1040F00099050E948F0B0C945318C3309CE7D90785
:1041000009F444CD50F4C115BCE7DB0709F431CD07
:10411000C130DC4709F440CD4ACDCB35FCE7DF07A1
:1041200009F497CDCC352CE7D20709F437CDCA3541
:10413000DC4709F03CCD81E038CDFE01E851FC4779
:10414000E730F10508F03FCCE15AF44D0C94A52A74
:10415000FE01E851FC47E730F105B0F3C631DC471A
:1041600009F025CD8091E10169E2811165E380EAE2
:1041700091E00E946F05BDCFB0E0A0E0E2ECF0E27C
:104180000C94572A8091FF01807F09F052C08091E2
:10419000FC01882309F44DC0C091310286E0D82E7D
:1041A000809100028C1709F444C08091FD01909128
:1041B000FE01D0E0009709F441C02091FA0130914E
:1041C000FB01422F43234F3FC9F1DC9E8001DD9E5E
:1041D000100D1124F801EF5FFD4F418143132EC0F4
:1041E000308132132BC02281211128C0E380F4805A
:1041F000E81AF90A60E08AEF91E00E94F0098091E4
:10420000290190912A01E816F906C0F48091FF0176
:104210008F7080618093FF01F801EA5FFD4F80811C
:104220008F70806180838AEF91E00E9433180E9432
:104230000D09CDB7DEB7E7E00C94732A2196C7705D
:10424000AFCFA1E1B0E0E7E2F1E20C944C2A8C019F
:1042500085E0F801DE011D9601900D928A95E1F747
:10426000F80162808AEFC82E81E0D82EA090FD016F
:10427000B090FE01A5016091FB018091FA010E94BE
:104280000109482E882309F46BC1F801E380F4800A
:104290007090FC0147018A189B08A0902901B090FA
:1042A0002A01772009F424C12080318060E0C60112
:1042B0000E94F0095090FF018A149B0408F0D0C0BE
:1042C0004091FD015091FE01D090FA01C090FB0198
:1042D000852D807F6C2D09F07CC08D2D0E940109F9
:1042E000762C8823D9F0F80181818C1117C0808148
:1042F0008D1114C0611012C0852D8F708061809364
:10430000FF018AEF91E00E9433188091FF01F801CC
:104310008583872D6196E2E10C94682AA701632DBD
:10432000822D0E940109F82E81E08625F11001C03E
:1043300080E080FF05C0462D632D822D0E94E1089C
:1043400081E08625F11001C080E0F82FF170FF2E8A
:1043500080FF35C0462D632D822D0E94E108E82E96
:1043600081112DC02D863E868D859E850E944B092C
:10437000292F22952F70243058F49F70223088F016
:10438000992399F0F8019581907F79F47E2CC1CF23
:104390002A5F2F70223068F0C8010E943318EF2C7A
:1043A000F5CF992311F0882389F3805E883070F36C
:1043B000F3CF803F58F3815F833070F7E7CF6620FB
:1043C00009F4A7CF8091FF0181608093FF01712CD8
:1043D000A0CF8D2D0E940109782E8823B1F0F8011D
:1043E00081818C1112C080818D110FC061100DC0B0
:1043F0005582C8010E94331886E0F801AAEFB1E0A7
:1044000001900D928A95E1F784CFC8010E94C609F8
:10441000882301F16620F1F08091FF01803270F075
:104420002091FA013091FB0138872F831986FB8692
:10443000EA868C87CE0107960E94331886E0F80141
:10444000AAEFB1E001900D928A95E1F70E94BC209D
:10445000742C5FCFC8010E9433187724739459CF0E
:10446000852D807F51F48AEF91E00E94331886E019
:10447000F60111928A95E9F7AACFB090FA01A090BF
:10448000FB014091FD015091FE016A2D8B2D0E9490
:104490000109782E882399F0F80181818A110FC0D3
:1044A00080818B110CC061100AC05582C8010E9426
:1044B000331886E0F60111928A95E9F72ACFC801F0
:1044C0000E94C609882331F2662021F28091FF0103
:1044D000803208F4B3CF2091FA013091FB013A8386
:1044E00029831B82FD82EC828E83CE010196A4CFAC
:1044F00060E08AEF91E00E94F0098A149B04C8F6FC
:10450000762C662009F4A6CFF090FA01E090FB012A
:104510004091FD015091FE016E2D8F2D0E940109E9
:10452000882381F0F80191819E110CC090819F1128
:1045300009C096E0AAEFB1E001900D929A95E1F7DB
:10454000782EE7CEC8010E94C609811177CF8091ED
:10455000FF0181608093FF01C8010E943318D9CE0A
:10456000662009F477CFC8010E94C609782E8823F7
:1045700009F470CF86E0F801AAEFB1E001900D9246
:104580008A95E1F78091FA019091FB010E944B0915
:104590000E94BC20BECEA7E1B0E0E1EDF2E20C94B7
:1045A0005B2A4B8B5C8B6D8B7E8B8F8B611110929A
:1045B00044051A8A198A85E0FE017396DE011D966C
:1045C00001900D928A95E1F786E0FE013D96DE01AD
:1045D000179601900D928A95E1F7CE0107960E94F9
:1045E0002121811112C086E0FE013796DE0111966D
:1045F00001900D928A95E1F78A859B85892B29F098
:104600008F81988589238F3F81F516E024C096E03D
:10461000929FD001939FB00D1124AF5FBD4FFE015B
:10462000319601900D929A95E1F7809300020E94D5
:104630000D09EBCF819FC00111248F5F9D4F0E9418
:104640002121882371F08091310290E001968770DA
:104650009927809331028091310290910002891351
:10466000E9CF6796E3E00C94772A2091000230E0CE
:10467000C9010196877099274091310248171906A0
:1046800031F60E94FA0E109200021092310286E07A
:10469000EAEFF1E0DF011D928A95E9F7B6CFA5E0D8
:1046A000B0E0E5E5F3E20C945A2A0E94C70E8C01B3
:1046B000809154029091550280179107A1F08FEFDD
:1046C00089838A831B820E94C70E8160782F9D8315
:1046D0008C8349815A816B818D810E94CB221093FA
:1046E0005502009354022596E4E00C94762A1F921A
:1046F0001FB61F9211248F939F93AF93BF93809106
:104700000705811113C08091080590910905A091BA
:104710000A05B0910B054196A11DB11D80930805B6
:1047200090930905A0930A05B0930B05BF91AF9133
:104730009F918F911F901FBE1F901895CDB7DEB728
:104740002D970FB6F894DEBF0FBECDBF85B780683A
:1047500085BF85B7806885BF84B7877F84BF0FB664
:10476000F894A89580916000886180936000109211
:1047700060000FBE80E890E00FB6F894809361006F
:10478000909361000FBE8FE896E090939F01809315
:104790009E010E94F5030E9496048091E2008460CD
:1047A0008093E2007894809133058823A1F01091E2
:1047B000E9001F709091EC00892F817090FD80E8D6
:1047C000182B1092E9008091E80083FD0E94230FCE
:1047D0001F701093E90082E084BD93E095BD9AEFCD
:1047E00097BD80936E00109277021092780210921B
:1047F000790210927A020E94590B809318010E944C
:10480000590B81110E94D6288091180180911801BE
:1048100094E0811190E09093840284E0891B80935E
:10482000830284E90E94910686E60E94910687E948
:104830000E94910686EC0E9491060FE611E085E742
:10484000E82E81E0F82ED8018D918D018F3F11F077
:104850000E949106E016F106B1F788E0E9E8F2E07F
:10486000DF01282F1D922A95E9F7EBE7F2E0DF013F
:104870001D928A95E9F790E080E00E94EB2A873E3E
:104880009E4F09F45EC067EE7EEF90E080E00E94EC
:104890000F2B60E082E090E00E94F12A60E083E06C
:1048A00090E00E94F12A109286021092850260E048
:1048B00074E184E090E00E940F2B60E086E090E0DD
:1048C0000E94F12A6FEF87E090E00E94F12A40E019
:1048D00050E0BA0188E090E00E94032B60E08DE098
:1048E00090E00E94F12A40E050E0BA0188E190E0B7
:1048F0000E94032B60E087E190E00E94F12A40E0F3
:1049000050E0BA018CE190E00E94032B70E060E07F
:1049100080E290E00E940F2B40E050E0BA0188E175
:1049200090E00E94032B40E050E0BA018FE090E05D
:104930000E94032B40E050E0BA0183E190E00E9426
:10494000032B82E090E00E94E32A8093910284E0AE
:1049500090E00E94EB2A90930D0580930C050E9435
:10496000C416EFEFF6E721E0E150F0402040E1F718
:1049700000C000000E94C4160E94590BE4E081119F
:10498000E0E0F0E0E757FD4F808181FF08C06FEF66
:104990007FEF90E080E00E940F2B0E94520583E0A1
:1049A00090E00E94E32A90E00E94C1098091870272
:1049B000909188020E94070C1092C10480E88093B5
:1049C000A0020E9490276DE070E08FE794E00E94C3
:1049D0004C0A892BC9F58091C10463E070E081FD28
:1049E00098C08CE794E00E944C0A892B69F56DE031
:1049F00070E08CE694E00E944C0A892B29F50E9415
:104A00006305605A75418F4F9F4F6093D304709335
:104A1000D4048093D5049093D604E1ECF2E080E0D6
:104A200092E0DF019C011D9221503040E1F78FEFB1
:104A30009FEF9093C4048093C30481E08093D804D3
:104A40008093D7041092C2040E94590B811102C0B6
:104A50000E94D92889E191E0909304058093030591
:104A6000B8E12B2E312C8091330500E112E1853025
:104A700009F48AC00E94C416F2E9EF2EF2E0FF2E7C
:104A8000A9E8CA2EA2E0DA2ED601F70191918D9104
:104A90002AE932E02E173F0709F480C09817B1F3D6
:104AA0000E94590B882E10E0D6010D916D01F7017F
:104AB00091907F01901629F19026B12CAA24A394FD
:104AC0008A2D8921B1F08820A1F0BF82188791E05A
:104AD0008A2D802309F490E099870E94C70E816097
:104AE000782F9B878A874F81588569858B850E949F
:104AF000CB22B394AA0CF6E0BF12E2CFF7013197B4
:104B000000831F5F183081F60E946305DD24D39473
:104B10004AC089E794E067CF80913305843021F162
:104B20000E94760A1092070530E40FB6F894A89513
:104B3000209260000FBE3093600083B7817F846055
:104B400083BF83B7816083BF7894889583B78E7F56
:104B500083BF0FB6F894A895809160008861809318
:104B60006000109260000FBE80913205882361F0D2
:104B70000E94C416E9E8F2E081918111BBC181E98C
:104B800092E08E179F07C1F780913305853009F4B5
:104B9000C3CF0E94FA0E0E947E0B6CCF981380CF79
:104BA0000E944F23D12C0E94590B8823F9F0809149
:104BB000280182FF1BC00E94C70E7C018091FA046D
:104BC0009091FB045701A81AB90A0091FC041091B6
:104BD000FD04C8010E947303A816B90638F02AE93B
:104BE00032E041E0B701C8010E94F8158091D80475
:104BF000882371F18091C5049091C6040E94B80E7B
:104C0000C29730F00E94C70E9093C6048093C504EB
:104C10008091C3049091C404892B09F093C08091C2
:104C2000D7048823A9F00E9463050091D304109152
:104C3000D4042091D5043091D604601B710B820BF3
:104C4000930B6F3F7F4F8F4F9F4710F40E94760A60
:104C5000D1100E94910A86E0EDECF4E0DE0111969D
:104C600001900D928A95E1F71092CF041092D00432
:104C70001092D1041092D2048B819C81892BC1F0B7
:104C80008091CB049091CC040E94B80EE091C804AE
:104C9000F0E0EE0FFF1FEB57FE4F20813181281708
:104CA000390730F48B818093CF048C818093D004BA
:104CB0008E819D81892BC1F08091C9049091CA0495
:104CC0000E94B80EE091C804F0E0EE0FFF1FE35819
:104CD000FE4F208131812817390730F48D81809370
:104CE000D1048E818093D20446E050E0BE016F5F14
:104CF0007F4F8DEC94E00E94CD2A892B61F4809146
:104D0000CF049091D004892B9091D104892B90915C
:104D1000D204892B11F00E94D30E86E0FE01319659
:104D2000ADECB4E001900D928A95E1F70E947E0B04
:104D30009091C704891709F496CE8093C7040E9406
:104D4000630591CE8091C204811169CF0E94910ABE
:104D50002091C3043091C4042115310509F45FCFBB
:104D600080E041E050E0082F10E07A01082E02C0F8
:104D7000EE0CFF1C0A94E2F7B70162237323672B42
:104D800011F48F5FF0CF9091C10490FF9AC0880F0B
:104D9000880F880F8093230110922601895F8093EA
:104DA000240183E08093270124E630E047E050E0CF
:104DB00061E271E088E70E943028892B09F02FCF4B
:104DC000A80175E0440F551F7A95E1F78091C10461
:104DD00080FF89C0E1EAF2E080E2DF011D928A955E
:104DE000E9F7E9E7F1E0FD87EC8705E711E067E027
:104DF000962E88248394AC85BD852D91BD87AC8784
:104E0000F80141908F01440E552E511CC2018F5361
:104E10009D4F2C01E22FF0E0EF55FD4F30E020E0F8
:104E2000692C621AC82C022E01C0CC0C0A94EAF735
:104E3000520190E0D5018D915D018C21662D691B99
:104E40006770762E062E000C770BB82F01C0BB0FB3
:104E50007A94EAF77B2E71956195710967707727CF
:104E600001C086956A95EAF7782A8081782A70824F
:104E70009F5F9830F9F62F5F3F4F3196283031050C
:104E800079F6EC85FD85ED57F14009F0B4CF04E6E5
:104E900010E020E230E041EA52E060E488E70E945E
:104EA0005128892B09F0BBCEE094F0948091C30483
:104EB0009091C404E822F922F092C404E092C30461
:104EC000AECE8295880F8076809323019801369527
:104ED00027953695279520932601815E809324019E
:104EE0001092270161CF4F535D4F04E610E020E29E
:104EF00030E0D3CF09BD19BD09B400FEFDCF8091CC
:104F0000D8008F7D8093D8008091E00082608093EC
:104F1000E0008091E00081FDFCCF0E94FA0E34CECB
:104F20001092B9008CE08093B8000895B0E0A0E042
:104F3000ECE9F7E20C94532AB82EEB010E94C70E5D
:104F40006C01EE24E394F12CC431D10560F025E02E
:104F5000E22EF12CCF3FDC0731F0CE0164E170E0AE
:104F60000E94382A7B0184EAA82E94E8992E109298
:104F7000BC00A092BC000E94C70E8C018091BC00B6
:104F800087FF0DC08091B900887F8830F9F080914B
:104F9000B900887F8031D1F00FEF1FEF08C0C80142
:104FA0000E94B80EE816F90648F70EEF1FEFCF3F44
:104FB000DC07E9F2C6010E94B80EC817D907B8F697
:104FC000C801CDB7DEB7EBE00C946F2AB092BB00FE
:104FD0009092BC000E94C70E8C018091BC0087FF9C
:104FE0000AC08091B900887F883111F08034A1F621
:104FF00010E000E0E5CFC8010E94B80EE816F906FF
:1050000060F7D3CF0F931F93CF93DF93EB01809380
:10501000BB0084E88093BC000E94C70E8C01809185
:10502000BC0087FF11C02091B900287F81E090E08B
:10503000283211F490E080E0919581959109DF91FB
:10504000CF911F910F910895CF3FDC0741F3C80125
:105050000E94B80EC817D90710F78EEF9FEFEFCF59
:10506000B0E0A0E0E6E3F8E20C94562A6B018A0176
:105070007901B9010E949627E6010C0D1D1DC0178C
:10508000D10711F097FF08C024E92093BC00CDB7E9
:10509000DEB7E8E00C94722AB70189910E940228D9
:1050A000EECFB0E0A0E0E7E5F8E20C94562AC62F78
:1050B0006A017901B8010E94962797FD0CC0B801DA
:1050C0008C2F0E940228E601EC0CFD1CCE15DF059A
:1050D00011F097FF08C024E92093BC00CDB7DEB7DC
:1050E000E8E00C94722AB80189910E940228EECF60
:1050F00084E98093BC0008958EE14A9B02C08150F0
:10510000E1F74A9BFECF08955A9880E28A95F1F71D
:105110005A9A0895FC013BE03A95F1F798E020E0B7
:1051200080E031E040E14A95F1F7880F4A9B02C0E8
:105130008160232742E04A95F1F7000040E14A955B
:10514000F1F7915079F790E19A95F1F799B132E042
:105150003A95F1F7000040E14A95F1F792FB992763
:1051600090F992272081920F90830895A1E0B0E0FA
:10517000ECEBF8E20C94582A19828C017C01E60EC3
:10518000F11C0E151F0541F481E09981911180E019
:105190002196E6E00C94742A0E947C28CE010196A8
:1051A0000E948A28F80181938F01EBCF529A5A9A74
:1051B000089552985A9AEA9AE9E6F0E080818F7C45
:1051C000808308956150770B91E001C0990F6A9533
:1051D000EAF720E031E0911108C0222391F05A9AB9
:1051E00080E28A95F1F75A980895492F482339F0BB
:1051F0005A9A232740E24A95F1F79695ECCF5A98B0
:10520000F9CF5A98EDCFFF920F931F93CF93DF936F
:10521000EC018C01060F111DC017D10729F4CDB781
:10522000DEB7E5E00C94752AF9900E94842868E0C6
:105230008F2D0E94E228F0CF1F920F920FB60F928F
:1052400011240F931F932F933F934F935F936F936B
:105250007F938F939F93AF93BF93EF93FF93CF93DE
:10526000DF930F92CDB7DEB719820E947C28CE0162
:1052700001960E948A28082F069506950695282FE4
:1052800022952570902F9570290F922F9370269557
:105290002695920F982797708981982B09F05CC00A
:1052A000043008F059C080E18A95F1F75A9A529A71
:1052B00082E08A95F1F700C05A9888E0089F800143
:1052C0001124D801A050BF4F1696ED91FC9117976D
:1052D0003097A9F06091690170916A0114962D913F
:1052E0003C911597260F371F11968D919C9112971F
:1052F000680F791F13964C9113978C910995F801BB
:10530000E050FF4F6381662351F020916901309195
:105310006A0184819581820F931F0E9403290E9454
:10532000842880E18A95F1F75A9852985A9A80E138
:105330008A95F1F7F801E050FF4F6081662351F044
:105340002091690130916A0181819281820F931FBE
:105350000E94B6280E947C280F90DF91CF91FF9188
:10536000EF91BF91AF919F918F917F916F915F91DD
:105370004F913F912F911F910F910F900FBE0F9062
:105380001F9018950F931F93CF93DF93EC01049711
:105390000CF04CC0F894529A5A9885E08A95F1F72F
:1053A00000009C2F969595708C2F8570980F892FF3
:1053B00083709695969523E0CC0FDD1F2A95E1F733
:1053C000980F8E01092B0E94842800C068E0802F6E
:1053D0000E94E22880E18A95F1F752985A9A4A9BF6
:1053E0001EC087E090E04A991CC0FE01E050FF4FCC
:1053F00063816623F9F02091690130916A0184810B
:105400009581820F931F0E94B628811113C0529A72
:105410005A9A7894DF91CF911F910F91089500C00F
:10542000DECF019729F4529A5A9A789480E0F2CF0D
:1054300000C0D9CF0E947C2880E28A95F1F75A9863
:10544000529A80E18A95F1F7C050DF4F6881662358
:1054500051F02091690130916A0189819A81820F0E
:10546000931F0E9403290E948428789481E0D2CF60
:10547000AA1BBB1B51E107C0AA1FBB1FA617B7077A
:1054800010F0A61BB70B881F991F5A95A9F7809596
:105490009095BC01CD0108952F923F924F925F925B
:1054A0006F927F928F929F92AF92BF92CF92DF9234
:1054B000EF92FF920F931F93CF93DF93CDB7DEB799
:1054C000CA1BDB0B0FB6F894DEBF0FBECDBF09942D
:1054D0002A88398848885F846E847D848C849B8484
:1054E000AA84B984C884DF80EE80FD800C811B8192
:1054F000AA81B981CE0FD11D0FB6F894DEBF0FBEC1
:10550000CDBFED010895A1E21A2EAA1BBB1BFD0120
:105510000DC0AA1FBB1FEE1FFF1FA217B307E40792
:10552000F50720F0A21BB30BE40BF50B661F771FEA
:10553000881F991F1A9469F76095709580959095CA
:105540009B01AC01BD01CF010895EE0FFF1F059037
:10555000F491E02D0994002E083090F0982F872FB9
:10556000762F652F542F432F322F22270850F4CF48
:10557000220F331F441F551F661F771F881F991F57
:105580000A95B2F7002D08952A153B054C055D05D7
:105590006E057F05800791070895FB01DC0104C0BB
:1055A0008D910190801921F441505040C8F7881B1B
:1055B000990B0895FB01DC0102C001900D9241504E
:1055C0005040D8F70895F999FECF92BD81BDF89A61
:1055D000992780B50895A8E1B0E042E050E00C942E
:1055E000172B262FF999FECF92BD81BDF89A01970E
:1055F00000B4021639F01FBA20BD0FB6F894FA9A1B
:10560000F99A0FBE08950396272F0E94F22A0E944E
:10561000F12A252F0E94F22A242F0C94F22A0196B7
:10562000272F0E94F22A0C94F12ADC01CB01FC0105
:10563000F999FECF06C0F2BDE1BDF89A319600B4EB
:105640000D9241505040B8F70895F894FFCF0210E2
:105650002A10C2112A10C2115D107E10C2117B11D6
:105660008811361DAB1D3E1D081D0C1D421D101D51
:10567000461D521D1C1DA41D201D561D241D5A1DF6
:10568000821D281D5E1D891D2E1D641D6C1D141D8F
:105690004A1D181D4E1D321D681D781D921DA21D2C
:1056A000021D3A1DB21D301E301E661E661EF61EFD
:1056B000121F8C1E8C1E171F9F1FAE1FAE1FC51CF6
:0C56C000CB1CB61CBF1CD11CD71CDD1C71
:1056CC0000000001000000000000000401000000C8
:1056DC000405000000000000014F05020BFB0AF45A
:1056EC000A0021007F22000301AA0001FF0096009E
:1056FC00818283E200E900EA00B500B600B700CD74
:10570C00008301CC008A019201940121022302241E
:10571C00022502260227022A02B300B4006F007091
:10572C00009F01CB019F02A0026902946697C6F408
:10573C00F5F6F731330008101818100800640068EB
:10574C000178001400070007001000070001000199
:0E575C0000010001000200010004000F000027
:00000001FF
