:100000000C9485060C94A2060C94A2060C94622A09
:100010000C94A2060C94A2060C94A2060C94A206C0
:100020000C94A2060C94A2060C94DF100C94F81405
:100030000C947A240C94A2060C94A2060C94A206AA
:100040000C94A2060C94A2060C94A2060C94A20690
:100050000C94A2060C94B8110C94A2060C94A2065F
:100060000C94A2060C94A2060C94A2060C94A20670
:100070000C94A2060C94A2060C94A2060C94A20660
:100080000C94A2060C94A2060C94A2060C94A20650
:100090000C94A2060C94A2060C94A2060C94A20640
:1000A0000C94A2060C94A2060C94A2060000000078
:1000B0000000000000000000000000000000000040
:1000C0000000000000000000000000000000000030
:1000D0007E0F00D4FFFFFFC7000000780000000083
:1000E000000000002A2B2800000000000000000093
:1000F0000000000000000029000000002C1E342039
:10010000212224342627252E362D3738271E1F205E
:100110002122232425263333362E37381F040506A3
:100120000708090A0B0C0D0E0F10111213141516E7
:100130001718191A1B1C1D2F3130232D35040506E5
:100140000708090A0B0C0D0E0F10111213141516C7
:100150001718191A1B1C1D2F3130354C2B00140099
:100160001A00090013000A00294704281524162242
:100170001721070029521D001B0006001900050069
:10018000000000000000245223522C004C00407E4E
:100190001C0018000F000D00284812280C240832FB
:1001A00011210B00737C38003700360010000E0060
:1001B000000000000000255222522A000100140015
:1001C0001A00080015001700010004281624072251
:1001D00009210A0001001D001B000600190005008E
:1001E000000000000000010001000100010001000A
:1001F00012000C0018001C00010013280F240E32FE
:100200000D210B00010038003700360010001100EE
:1002100000000000000001000100010000003602A3
:100220002F0226022F0000000000330034023802A3
:100230003502000000000000000000000000000087
:100240000000000000000000010001000000370273
:10025000300227023000010028002D0234001E0267
:10026000200200000000000000000000000000006C
:100270000000000000000000010001000000230257
:100280001F0235000000000000002E003302640051
:100290002402000000000000000000000000000038
:1002A0000000000000000000010001000000380014
:1002B0002102220200000000280025022D002E024B
:1002C00031020000000000000000000000000000FB
:1002D00000000000000000000100010001003100EA
:1002E0003400360033000000000054285624572202
:1002F0005521000000000000000000000000000088
:1003000000000000000001000000010030002E008D
:10031000610060005F002F00580063285E245D329A
:100320005C212D00000000005B005A0059003500E0
:1003300000000000000000006200010000001E003C
:100340001F0020002100220000003A283B243C220C
:100350003D213E00000044004500680069006A003D
:100360000000000000000000000000000000270066
:1003700026002500240023000000432842244132A7
:1003800040213F0000006F006E006D006C006B00AC
:10039000000000000000010000000000000000005C
:1003A000000000006A520000000000000000000091
:1003B000000000000000000000000000000000003D
:1003C000000000000000010001000100000000002A
:1003D0000000147C137C000000000000127C107CE4
:1003E000117C000000000000707C727C717C0000B9
:1003F00000000000000001000100010001002800D1
:100400004A0052004D00010001000100500051005F
:100410004F00010001000100010001000100010086
:1004200000000000000001000100010001000100C7
:1004300001000100010001000100E300E200E10011
:10044000E0000100010001000100010001000100C5
:1004500000000000000001000100010001006852DE
:10046000D400CD00D500010001000100CF00CE0076
:10047000D0000100010001000100010001000100A5
:100480000000000000000100DF00D10001000100B9
:10049000010001000100010001000100DC00D900A1
:1004A000DA00DB0001000100010001000100010091
:1004B0000000000000000100DD00D200010001008A
:1004C000AE00A900A800010001000100AC00AA00D4
:1004D000AB0001000100010001000100010001006A
:1004E00000000000000001006A520100010001004C
:1004F00001000100010001000100010001000100F4
:1005000001000100010001000100010001000100E3
:100510000000000000000100010001002B00140099
:100520001A00080015001700E1000400160007007B
:1005300009000A00E0001D001B000600190005006C
:10054000000000000000E2002B522C004C00E600EE
:1005500012000C0018001C00280013000F000E00F1
:100560000D000B0039003800370036001000110074
:100570000000000000000100010001006A521E009E
:100580001F00200021002200290023002400250054
:100590002600270001000100010001000100010008
:1005A00000000000000001002B52010001000100CA
:1005B0000100010001000100010001000100010033
:1005C0000100010001000100010001000100010023
:1005D00000000000000001000100010000DA0281BB
:1005E000FFD9F1DB20A4A62EAF00A0C000A1C80057
:1005F000AED580A81FD300408D14200041646A75D9
:100600007374005261697365004C6F7765720044C2
:10061000656661756C74004C617965723A20008082
:100620008182838485868788898A8B8C8D8E8F9042
:1006300091929394A0A1A2A3A4A5A6A7A8A9AAABAE
:10064000ACADAEAFB0B1B2B3B4C0C1C2C3C4C5C625
:10065000C7C8C9CACBCCCDCECFD0D1D2D3D400005D
:10066000AF00AE05010902A10185020901A1000543
:100670000919012908150025019508750181020550
:1006800001093009311581257F9502750881060918
:10069000381581257F950175088106050C0A3802F9
:1006A0001581257F950175088106C0C00501098067
:1006B000A101850319012AB700150126B70095018C
:1006C00075108100C0050C0901A101850419012ADA
:1006D000A002150126A002950175108100C0050138
:1006E0000906A1018506050719E029E7150025017E
:1006F0009508750181020507190029EF15002501EC
:1007000095F0750181020508190129059505750106
:100710009102950175039101C005010906A101052A
:100720000719E029E7150025019508750181029553
:1007300001750881010507190029FF150026FF0032
:1007400095067508810005081901290595057501AB
:100750009102950175039101C009023B000201005D
:10076000A0FA0904000001030101000921110100A0
:10077000012240000705810308000109040100016E
:100780000300000009211101000122B600070582C3
:10079000032000011201000200000008534601007E
:1007A0000100010200010C0343006F0072006E00A3
:1007B00065000000100366006F006F007300740096
:1007C00061006E0000000403090400000000000046
:1007D0003E5B4F5B3E003E6B4F6B3E001C3E7C3EE3
:1007E0001C00183C7E3C18001C577D571C001C5EEA
:1007F0007F5E1C0000183C180000FFE7C3E7FF0005
:10080000001824180000FFE7DBE7FF0030483A0635
:100810000E00262979292600407F05050700407F24
:1008200005253F005A3CE73C5A007F3E1C1C08004F
:10083000081C1C3E7F0014227F2214005F5F005FB3
:100840005F0006097F017F00006689956A0060608D
:100850006060600094A2FFA2940008047E04080077
:1008600010207E20100008082A1C0800081C2A08F6
:1008700008001E10101010000C1E0C1E0C0030384A
:100880003E383000060E3E0E06000000000000005C
:1008900000005F000000000700070000147F147FC5
:1008A0001400242A7F2A12002313086462003649A8
:1008B00056205000000807030000001C22410000E1
:1008C0000041221C00002A1C7F1C2A0008083E0848
:1008D00008000080703000000808080808000000C8
:1008E000606000002010080402003E5149453E00AF
:1008F00000427F4000007249494946002141494D6C
:1009000033001814127F10002745454539003C4A32
:10091000494931004121110907003649494936004A
:10092000464949291E000000140000000040340020
:100930000000000814224100141414141400004193
:10094000221408000201590906003E415D594E007B
:100950007C1211127C007F49494936003E414141D9
:1009600022007F4141413E007F49494941007F09C2
:10097000090901003E41415173007F0808087F00CA
:1009800000417F4100002040413F01007F081422C8
:1009900041007F40404040007F021C027F007F04F6
:1009A00008107F003E4141413E007F0909090600D1
:1009B0003E4151215E007F091929460026494949D7
:1009C000320003017F0103003F4040403F001F20F1
:1009D00040201F003F4038403F006314081463006C
:1009E0000304780403006159494D4300007F4141ED
:1009F0004100020408102000004141417F00040230
:100A0000010204004040404040000003070800008D
:100A10002054547840007F284444380038444444EB
:100A20002800384444287F003854545418000008E3
:100A30007E0902001824241C78007F080404780032
:100A400000447D4000002040403D00007F102844CD
:100A5000000000417F4000007C04780478007C089E
:100A6000040478003844444438007C1824241800D6
:100A7000182424187C007C080404080048545454AA
:100A8000240004043F4424003C4040207C001C20FF
:100A900040201C003C4030403C00442810284400CA
:100AA0004C9090907C004464544C440000083641C3
:100AB000000000007700000000413608000002013D
:100AC000020402003C2623263C0000000000000037
:100AD00000000000000000000000C0E0F0F8F8187E
:100AE00000C0F0FCFEFFFFFFFFFFFFFF7E000000E5
:100AF00000000000000080C0E0E0E0E0E0E0E0E0B6
:100B0000C0800000000080C0E0E0E0E0E0E0E0E065
:100B1000C080000000E0E0C0C0E0E0E0E00000E0F5
:100B2000E0C0C0E0E0E0E0E0C0800000000080C085
:100B3000E0E0E0E0E0E0E0E0C08000000000000075
:100B40000000000000000000E0F0F0F0E0ECEEF744
:100B5000F37020007C7C7C7E007E7E7E7F7F7F0029
:100B60000080C0E07E5B4F5BFEC00000C000DCD7B1
:100B7000DEDEDED7DC00C000000000000000000068
:100B80000000000000000000000000000000000065
:100B9000000000F8FCFEFFE000FFFFFFFFFFFF800A
:100BA000FFFFFFFFFFFFFFFFFF1F07010000000027
:100BB0000000000000FFFFFF810000000000008136
:100BC000C3C3C30000FFFFFF8100000000000081DD
:100BD000FFFFFF0000FFFFFF01000000000000FF1B
:100BE000FFFF010000000001FFFFFF0000FFFFFF0B
:100BF0009D1C1C1C1C1C1C9DDFDFDF000000000076
:100C000000000000000000000F1F3F7F7F7F7F7FFC
:100C10003F1E0C001F1F1F3F003F3F3F7F7F7F0095
:100C2000307B7F7830202030787F3B0003000F7FBF
:100C30000F0F0F7F0F0003000000000000000000F6
:100C400000000000000000000000000000000000A4
:100C5000000000030F1F3F3F3F3F1F1F3F3F7F7FAD
:100C60007F3F3F1F3F7F7F7F7F7C7878381C0F005E
:100C70000000000000000103070707070707070738
:100C80000301000000000103070707070707070724
:100C90000301000000070707000000000000000734
:100CA000070700000000000007070700000001031D
:100CB00007070707070707070301000000000000F8
:100CC0000000000000000000000000000000000024
:100CD0000000000000000000000000000000000014
:100CE0000000000000000000000000000000000004
:100CF00000000000000000000000000000000000F4
:100D00000000000000000000000011241FBECFEF13
:100D1000DAE0DEBFCDBF11E0A0E0B1E0EEEDFEE530
:100D200002C005900D92A83EB107D9F725E0A8EEC4
:100D3000B1E001C01D92A838B207E1F70E94A124DA
:100D40000C941F2F0C940000FC01AC014C5F5F4F12
:100D50008FEF91E32191822728E030E087FF09C0DF
:100D6000880F892721503109C9F7E417F50791F752
:100D70000895880FF7CFE8EDF0E080818E7F8083C3
:100D80001092E2001092DA001092E100A0EEB0E0C2
:100D90008C9181608C9380818F77808319BCA7EDC3
:100DA000B0E08C918E7F8C9380818F7E80831092B7
:100DB0004E0308952091E4003091E50095E6A901E5
:100DC0002091EC00822F817020FF06C08091E80006
:100DD00080FF06C080E008952091E80022FD1AC03F
:100DE00080917303882389F0853089F08091EB002E
:100DF00085FD0FC02091E4003091E50042175307B4
:100E0000F9F29150E1F684E0089582E0089583E0DC
:100E1000089581E008958091750387FF13C0809144
:100E2000E80082FF06C08091E8008B778093E8009D
:100E300004C0809173038111F2CF089580917303F0
:100E40008823D9F38091E80080FFF8CF8091E800F3
:100E50008E77ECCF982F9093E900242F762F50E0D7
:100E6000891731F07091EC002091ED005091F00065
:100E700021FD07C09F5F973071F78093E90081E003
:100E800008953091EB003E7F3093EB003091ED0000
:100E90003D7F3093ED003091EB0031603093EB00FB
:100EA0007093EC002093ED005093F0002091EE0041
:100EB00027FDE0CF80E00895B0E0A0E0E2E6F7E0B3
:100EC0000C949C2BC8EDD0E088818F7E8883E7ED61
:100ED000F0E080818160808384E082BF81E0809344
:100EE0004E0388818E7F888302EE10E0F801108225
:100EF0001092DA0081EEC82ED12CF6011082888182
:100F00008F77888388818068888388818F7D8883B4
:100F100019BC109273031092740310927203109212
:100F2000710390EEE92EF12CF70180818B7F808395
:100F300088818160888342E060E080E00E942A0727
:100F4000F60180818E7F8083F801808181608083BB
:100F5000808188608083F70180818E7F8083888193
:100F600080618883CDB7DEB7E8E00C94B82BFC0134
:100F700080917B0390917C0386179707A0F0611501
:100F8000710529F49091E8009E779093E80090E035
:100F90006115710551F4911108C08091E80082FF3C
:100FA00034C080E00895BC01F2CF809173038823A0
:100FB000C1F18530C1F18091E80083FD30C080919E
:100FC000E80082FDEACF8091E80080FFE1CF8091C8
:100FD000F3002091F200382F6115710519F02830C7
:100FE000310558F091E02830310509F090E020916A
:100FF000E8002E772093E800CBCF81918093F10019
:10100000615071092F5F3F4FE7CF809173038823B1
:1010100041F0853041F08091E80083FFBECF81E050
:10102000089582E0089583E0089580915003089523
:1010300087E797E7909301088093000888E19AE09A
:101040000FB6F894A895809360000FBE909360004F
:10105000FFCF2FB7F89460914803709149038091B6
:101060004A0390914B032FBF089520912C01222316
:10107000C9F020914C0327FF15C0E62FE695E695B1
:10108000E695EE31D8F4E80FF92FF11D677021E0F5
:1010900030E001C0220F6A95EAF72095828128236B
:1010A00022830895FC01329608962191621303C0B1
:1010B000DF0111971C92E817F907B9F708952091FD
:1010C0002C012223C1F020914C0327FF14C0E62FEE
:1010D000E695E695E695EE31F8F4E80FF92FF11D67
:1010E000677021E030E001C0220F6A95EAF7828143
:1010F000822B82830895FC0132962FEF30E04191DC
:10110000641751F02F3F19F4411101C0232F3F5FA5
:101110003630A9F72F3F09F40895820F911D27FD5E
:101120009A95FC0162830895A3E0B0E0EAE9F8E053
:101130000C94A22B209145033091460328173907C0
:10114000A1F09093460380934503E0914303F0910F
:101150004403309751F024E029839B838A830680DF
:10116000F781E02DCE01019609952396E2E00C94DB
:10117000BE2BA3E0B0E0EFEBF8E00C94A22B2091A3
:1011800041033091420328173907A1F0909342039D
:1011900080934103E0914303F0914403309751F071
:1011A00023E029839B838A830680F781E02DCE018B
:1011B000019609952396E2E00C94BE2B80912C03B6
:1011C00090E0880F991FFC01E152FE4F2081895267
:1011D0009E4FFC01808190913303191614F42093E3
:1011E00033039091330397FF04C0922F919590930E
:1011F000330390913403191614F42093340390911F
:10120000340397FF03C02195209334039091360354
:10121000191614F4809336039091360397FF04C097
:10122000982F91959093360390913503191614F4E5
:10123000809335039091350397FF03C08195809388
:101240003503309133033323A1F02091340322235B
:1012500081F045EB3403C00111249923F1F0909300
:10126000330345EB2403900111243323D1F0309351
:10127000340340913603442379F03091350333230E
:1012800059F025EB4203A001112450933603320399
:101290009001112430933503089581E08093330346
:1012A000E0CF81E080933403E4CF80E00895F894A8
:1012B000E82FE295EF70F0E031A1282F2F7081E048
:1012C00090E001C0880F2A95EAF7982F9095932314
:1012D00091A392A1892B82A37894089590914C03B5
:1012E00092FF06C0282F28712830F9F4877F846088
:1012F00093FF06C0282F28712831F1F4877E84617E
:1013000020914D0320FF06C0382F38713830D9F4B2
:10131000877F816021FF06C0282F28712831D1F4F2
:10132000877E816194FD877E0895282F2471243063
:10133000F9F68B7F8860DCCF282F2471243101F7E8
:101340008B7E8861DDCF382F3171313019F78E7F78
:101350008860E0CF282F2171213121F78E7E8861AE
:10136000E1CF82389105B9F1B0F48133910509F4E8
:101370007DC048F48932910509F46DC08A32910527
:1013800009F47BC008958533910509F45FC0893362
:10139000910509F10895833E9105D9F138F4803E15
:1013A000910529F1823E910579F10895863E9105D6
:1013B000D9F1873E910509F43EC0843E910541F57F
:1013C00020914D0321FF24C080914C0384FD19C05E
:1013D00087EE90E0089520914C03237009F05AC0E5
:1013E00020914D0323FF14C089E290E008952091DD
:1013F0004C0320FD38C030914D0330FF09C024FF5D
:1014000043C090E080E0089520914C0322FDF7CF87
:10141000089520914C0322FD3AC030914D0330FDD8
:1014200039C024FFF5CFEDCF20914C0323FFF0CF3F
:1014300024FDE7CFCDCF20914C0323FD2EC030916A
:101440004D0331FFEECF84EE90E0089520914C03E0
:1014500025FFDECFC9CF20914C0325FD21C020916F
:101460004D0323FFD5CF89E390E0D2CF20914C03E9
:1014700026FFCECF8AE290E0089520914C0326FF0C
:10148000C7CF81E390E0089583EE90E0089582EE67
:1014900090E0089580EE90E0089586EE90E0089543
:1014A00085E390E00895972F7830B8F46630A8F47B
:1014B0008C30B0F470E026E0929F600D711D112415
:1014C000FB0190E3899FE00DF11D1124EE0FFF1F3A
:1014D000E45AFE4F85919491089580E090E008953C
:1014E00081E0FCCF1F93CF93DF930E94B109EC0101
:1014F000C11580E5D807F0F5C11580E4D80708F0DC
:101500009CC0C03ED10520F5CD3CD10508F082C07D
:10151000C83AD10578F4C53AD10508F073C0C13096
:10152000D10519F1209709F1C430D105F0F4D0E0CC
:10153000C0E01BC0C33CD105D0F7C85AD0E0CC0FE7
:10154000DD1FC358DE4F0990D881C02DD4640DC073
:10155000C11580E2D80708F0D1C0C11581E0D807D5
:1015600008F05AC0C83ED10510F7CE01DF91CF91E7
:101570001F910895C03682E5D80718F5C03482E57A
:10158000D80708F06BC0C03282E5D80708F05FC00A
:10159000C11582E5D80708F497C02C2F269526950B
:1015A00080E2289F900111248C2F8370C1E0D0E04D
:1015B00002C0CC0FDD1F8A95E2F7C22BD32BDD686A
:1015C000D4CFC03A82E5D80760F4C03882E5D807A6
:1015D00008F459C0CF71D0E0DC2FCC27C46FD06A9B
:1015E000C4CFC03C82E5D80708F462C0C03E82E5A3
:1015F000D80708F09CCFDC2FCC27CC27DF71C06F39
:10160000D06AB3CFC55AD0E0C658DE4FC881D0E00B
:10161000D064ABCFD065A9CF8D2F0E946E09182F53
:10162000CE0199270E94B109C12FD0E0DC2FCC2731
:10163000CC27DF71C82BD92B98CFCE0199270E94D8
:10164000B109CC27DF70C82BD92BD06A8ECFCF71D0
:10165000D0E0DC2FCC27C16FD06A87CF2C2F269506
:101660002695277080E2289F900111248C2F83708B
:10167000C1E0D0E002C0CC0FDD1F8A95E2F7C22B9B
:10168000D32BDC6872CF2C2F26952695277080E20D
:10169000289F900111248C2F8370C1E0D0E002C0FC
:1016A000CC0FDD1F8A95E2F7C22BD32BDA685DCF12
:1016B0008C2F8F710E946E09C82FD0E0DC2FCC27B1
:1016C000CC27DF71D06251CF8C2F8F710E946E09B1
:1016D00055E0D695C7955A95E1F7CF70D0E0DC2F4D
:1016E000CC27282F30E084FF05C044E0220F331FB1
:1016F0004A95E1F7C22BD32BD06937CF8D2F8F714D
:101700000E946E09182FCE0199270E94B109C12F9E
:10171000D0E0DC2FCC27CC27DF71C82BD92BD2CF40
:101720008091A60281111092A60208958095909151
:10173000A50298239093A50208952091820290918A
:10174000510256E0291302C080E0089530E0529F14
:10175000F001539FF00D1124EE5AFD4F7181761365
:1017600006C07081781303C07281741304C02F5FA8
:101770003F4F2770E7CF81E00895452B41F0682364
:1017800081E06F3F09F080E080958170089581E0ED
:10179000FBCF8091820290915102981301C008956D
:1017A0008F5F8770FACFB0E0A0E0E9EDFBE00C942A
:1017B0009B2B7C010091ED021091EE028091D802EA
:1017C0009091D902082B192BCFE0D0E0CC24C39400
:1017D000D12CBC2EC6010C2E02C0880F991F0A9472
:1017E000E2F780239123892B49F4219790F7B12CBC
:1017F0008B2DCDB7DEB7E9E00C94B72BB7018C2F5A
:101800000E94530A0E94720A019779F3F1CFCF9395
:10181000DF93EC010E94D30BBE010E94530A0E9489
:10182000720ADF91CF910895983078F5863068F587
:10183000E82FF0E086E0989FE00DF11D11249E2F27
:10184000977083E0F695E7958A95E1F7EE0FFF1F15
:10185000EE0FFF1FED5CFD4F50E040E080E0219176
:1018600030E0092E02C0369527950A94E2F72170E0
:101870003327042E01C0220F0A94EAF7822B4F5F10
:101880005F4F4430510559F7089580E0089598302E
:1018900098F5863088F5E82FF0E086E0989FE00D17
:1018A000F11D11248E2F877041E001C0440F8A95ED
:1018B000EAF783E0F695E7958A95E1F7EE0FFF1FCB
:1018C000EE0FFF1FED5CFD4F30E020E070E0519126
:1018D000DF011197CB01022E02C0969587950A94DD
:1018E000E2F7817081958527842385278C932F5F6C
:1018F0003F4F2430310559F708959C012C70332750
:101900002C30310531F480649093EE028093ED0227
:1019100008958F7BF9CF21E030E002C0220F331F02
:101920008A95E2F7209530958091ED029091EE0234
:10193000822393230E947D0C0895909183028095C9
:10194000892380938302282F277091F4282F082E53
:10195000000C330B9217130659F090914D0392FF30
:1019600007C08595859585950E948B0C1092830202
:10197000089521E030E002C0220F331F8A95E2F77C
:101980008091ED029091EE02822B932B0E947D0CB0
:1019900008959093D9028093D8020895FC01838121
:1019A0009481892B29F08081918189238F3F51F483
:1019B00080E00895843FE1F717C0883EA8F0813F9A
:1019C000B9F712C0808191810E94070C92959F7097
:1019D000963099F358F4925F9F70923048F7803FA9
:1019E00019F040F7883E20F781E008959A5FF4CF20
:1019F000A5E0B0E0EEEFFCE00C94A12B25E0FC01AB
:101A0000DE01119601900D922A95E1F7FC012281E9
:101A100089819A81222399F0662389F00E94D30B51
:101A2000182F682F89819A810E94470C69817A81D9
:101A3000812F0E94530A2596E3E00C94BD2B0E944F
:101A4000140C182FF3CF9C013A9521153F4120F437
:101A500091FF02C082E0089580E00895CF93DF9364
:101A6000682F81E06A3019F06D3031F480E00E9417
:101A7000BC0DDF91CF9108958091860590918705E7
:101A800026E0FC01A0E8B5E001900D922A95E1F76F
:101A9000603E08F458C026E0FC0111922A95E9F74F
:101AA000C0918605D091870546E050E0BE0180E8F0
:101AB00095E00E94282C9E0120583340892B41F14B
:101AC000C90145E0969587954A95E1F741E050E0D8
:101AD000BA0102C0660F771F8A95E2F7CB016091C9
:101AE0007E0370917F03862B972BB9016B5F7F4F2D
:101AF000E5E076956795EA95E1F702C0440F551F3A
:101B00006A95E2F7842B952B90937F0380937E0355
:101B10002A5F3F4F40917D03642F70E0C9010E940E
:101B20007E2B481B463010F4240F311D211572E026
:101B3000370710F030E020E020583C4F3093870505
:101B40002093860596CFF6E06F9FB001112466536F
:101B5000784F46E050E00E941F2CA2CFCF93DF9336
:101B6000EC01FE018491811103C0DF91CF910895B2
:101B70000E942E0D2196F5CFCF93382FE091860548
:101B8000F0918705E058F34020917D03622F70E0CB
:101B9000CF010E947E2B281B822F332361F066E049
:101BA0000E94C92BC82FC15010F4CF91089580E234
:101BB0000E942E0DF8CF9F01280F311D21153240B4
:101BC00018F080E0F0E0E0E08E0F9F2F911D80582C
:101BD0009C4F9093870580938605E7CF8091A5025F
:101BE0009091A402892B8093EA019091A6029923F7
:101BF000A1F0892B8093EA0180912C018823E1F1E7
:101C000080914C0387FF38C08EE1ECEEF1E090E06C
:101C10008150A0F591110E94900B40E250E064E8E1
:101C200072E08AEE91E00E94282C892B21F180E25B
:101C3000EAEEF1E0A4E8B2E001900D928A95E1F7B6
:101C4000E0914303F09144033097A9F080912C0177
:101C5000882359F080914C0387FF07C08091EA01E7
:101C60008093EB0186E08093EA010280F381E02D0E
:101C70008AEE91E00995089586E0C7CF219122234D
:101C800039F29F5FC5CF882341F080959091A402DF
:101C900089238093A4020E94EE0D089580913D0354
:101CA000882329F082E20E94430E10923D0308959A
:101CB000882339F09091A402982B9093A4020E945B
:101CC000EE0D0895882321F00E94960B0E94EE0DE0
:101CD0000895882339F09091A502982B9093A5023E
:101CE0000E94EE0D0895B0E0A0E0E9E7FEE00C945C
:101CF0009C2B6C017B0164E670E088E70E94DC2885
:101D0000EC0197FD12C010E000E0F601E00FF11FBA
:101D1000849164E670E00E944829EC01892B29F443
:101D20000F5F1F4F0E151F0581F70E94BE29CE01C0
:101D3000CDB7DEB7E8E00C94B82B80913B039091CF
:101D40003C03911103C091E089270895882369F02D
:101D500062E070E081E696E00E94730E892B19F034
:101D600080913B03089510923B0380913B03EBCF9E
:101D7000CF93C0913B0380913C038823D1F00E9414
:101D80002908605A75418F4F9F4F609337037093B6
:101D900038038093390390933A03C11108C062E07D
:101DA00070E08FE596E00E94730E892B29F0C091B8
:101DB0003B038C2FCF91089581E080933B03F7CFB5
:101DC0000F931F93CF93DF938B01EA0190917303DD
:101DD000943061F58093E9008FEF9091E800815095
:101DE00095FD06C095ED9A95F1F700008111F5CFAC
:101DF0008091E80085FF1AC00E94DA06811111C0A7
:101E00008091E80085FD06C08091E8008E77809380
:101E1000E800F2CFF80181918F018093F1002197C2
:101E200079F78091E8008E778093E800DF91CF9179
:101E30001F910F91089543E050E0BC0182E00E94A1
:101E4000E00E089546E050E0BC0182E00E94E00E02
:101E50000895CF93DF93EC0180912C01811111C083
:101E600048E050E0BE0181E00E94E00E80E2FE0109
:101E7000A1E5B3E001900D928A95E1F7DF91CF9152
:101E8000089580914C0387FF05C040E282E050E056
:101E9000BE01EACF48E081E0FACFB0E0A0E0E3E5A0
:101EA000FFE00C949A2B7C015B016A018091C902CE
:101EB00001E010E08A3010F40AE010E0C1E0D0E068
:101EC000B501C701F6010995811104C021960C17CF
:101ED0001D072CF4CDB7DEB7EAE00C94B62BCC9FEF
:101EE0009001CD9F300D300D112490E080E045E34E
:101EF0004A95F1F70000019682179307C1F7E0CFEA
:101F00008091B302811119C088EC90E02091E30028
:101F100027FD10C0EFE3FCE93197F1F700C00000A6
:101F20000197A1F782E08093B3020E94BB06109252
:101F3000730303C081E08093B30281E09091B30208
:101F4000913011F080E0089508950E94800F882359
:101F500059F0E0914303F0914403309729F0019048
:101F6000F081E02D0995089580E0089590914D034A
:101F700092FB222720F9281779F080FB92F99093A1
:101F80004D0360914C0370914D0384E090E00E94FA
:101F9000092F82E00E949D0C0895A4E0B0E0E3EDDB
:101FA000FFE00C94A02B4091C5025091C6026091B5
:101FB000C7027091C8022FB7F8948091480390919E
:101FC0004903A0914A03B0914B032FBF841B950B8B
:101FD000A60BB70B11E084369105A105B10590F170
:101FE0000E94800F882399F10E9429086E5F7F4F1D
:101FF0008F4F9F4F69837A838B839C8380911301DA
:102000009091140184549D4F4091120150E045304D
:10201000510510F044E050E0BE016F5F7F4F0E9419
:10202000352C82E090E00E94082B182F882351F075
:102030000E9429086093C5027093C6028093C7026C
:102040009093C802812F2496E4E00C94BC2B0E944C
:1020500029080091CA021091CB022091CC02309144
:10206000CD02600F711F821F931FC0CFEF92FF92AE
:102070001F93CF93DF9300D000D00F92CDB7DEB780
:102080007B0190E080E00E94082B182F882309F440
:1020900087C04091050150E04115510511F041E024
:1020A00050E0609106017091070164547D4FCE01AC
:1020B00005960E94352C4091B8025091B90260916A
:1020C000BA027091BB022FB7F894809148039091A7
:1020D0004903A0914A03B0914B032FBF841B950B7A
:1020E000A60BB70B84369105A105B10540F48DEB25
:1020F00092E00E94A4069D81891709F451C081E0F5
:1021000090E00E94082B81111AC010E08091B40267
:102110009091B502A091B602B091B702F701808309
:102120009183A283B383812F0F900F900F900F9014
:102130000F90DF91CF911F91FF90EF900895409104
:102140000D0150E04530510510F044E050E0609141
:102150000E0170910F0164547D4FCE0101960E94D3
:10216000352C8DEB92E00E94A4069D818913CDCF82
:102170000E9429086093B8027093B9028093BA0252
:102180009093BB0289819A81AB81BC818093B40218
:102190009093B502A093B602B093B70211E0B6CF08
:1021A0008091BD029091BE02A091BF02B091C00289
:1021B00089839A83AB83BC831111E4CFA7CF1F928D
:1021C0000F920FB60F9211242F933F934F935F936B
:1021D0006F937F938F939F93AF93BF93EF93FF93EF
:1021E0008091E10082FF09C08091E20082FF05C07A
:1021F0008091E1008B7F8093E1008091DA0080FF85
:1022000024C08091D80080FF20C08091DA008E7FAA
:102210008093DA008091D90080FF9DC080E189BD64
:1022200082E189BD09B400FEFDCF81E08093730394
:1022300080914E03811109C00E94BB060E945C0779
:102240008091E20084608093E2008091E10080FF51
:1022500017C08091E20080FF13C08091E2008E7F62
:102260008093E2008091E20080618093E20080919F
:10227000D80080628093D80019BC85E080937303F6
:102280008091E10084FF2BC08091E20084FF27C091
:1022900080E189BD82E189BD89B5982F917080FF69
:1022A000FBCF8091D8008F7D8093D8008091E10092
:1022B0008F7E8093E1008091E2008F7E8093E20028
:1022C0008091E20081608093E20080917403882312
:1022D00009F447C084E08093730380917303809175
:1022E000E10083FF27C08091E20083FF23C080913B
:1022F000E100877F8093E10082E080937303109276
:1023000074038091E1008E7F8093E1008091E20070
:102310008E7F8093E2008091E20080618093E200F2
:1023200042E060E080E00E942A078091F00088602F
:102330008093F000FF91EF91BF91AF919F918F91AA
:102340007F916F915F914F913F912F910F900FBEB1
:102350000F901F90189519BC1092730310924E03A2
:1023600074CF8091E30087FD93E090937303B5CF22
:1023700078941F921FB61F9211248F939F93AF934F
:10238000BF938091480390914903A0914A03B09173
:102390004B030196A11DB11D8093480390934903FF
:1023A000A0934A03B0934B03BF91AF919F918F913C
:1023B0001F901FBE1F9018959C014FB7F8948091F5
:1023C000480390914903A0914A03B0914B034FBF3A
:1023D000821B930B08952FB7F89480914803909136
:1023E0004903A0914A03B0914B032FBF08950E9467
:1023F000EB119C019091330380913403982B21F0D1
:102400003093300320932F0390913503809136034E
:10241000982B21F030932E0320932D03E09143035A
:10242000F0914403309749F082E0809331030480B7
:10243000F581E02D81E393E0099508951092A502BE
:1024400080912C01ECEEF1E08823F9F080914C03AF
:1024500087FF1BC08EE1DF011D928A95E9F790E0AE
:1024600080E00E94B90890E080E00E9494081092F9
:10247000A4020E94EE0D86E0E1E3F3E0DF011D928D
:102480008A95E9F70E94F711089586E0E4CFAAE261
:10249000B0E0EDE4F2E10C94A12B85E793E020910C
:1024A000F100FC012193CF01F3E08D379F07B9F7CD
:1024B00080917603833009F470C0B8F4813009F458
:1024C00047C0823009F4B1C08091E80083FF7EC22A
:1024D00080917503909176039A3008F077C2E92FC6
:1024E000F0E0EF5DF04D0C94F72B8A3009F48CC0CE
:1024F0008B3009F46FC0893039F7809175038132D0
:1025000019F78091790390917A030297E8F6809108
:10251000E800877F8093E8008091E80082FF38C060
:102520009091F3008091F200029731F48091F100D4
:10253000813011F0863021F48091F10080935003B6
:102540008091E8008B778093E8000E940B07BCCF56
:1025500080917503813A09F0B7CF8091E800877FB9
:102560008093E8008091790390917A03892B61F43C
:1025700060E281E593E070E00E94B7078091E80097
:102580008B778093E800A0CF60E090E080E0F3CF0D
:10259000809173038111C0CF97CF80917503813AE9
:1025A00009F092CF8091790390917A03892B09F0F9
:1025B0008BCF8091E800877F8093E8008091E800CE
:1025C00080FFFCCF80912C018093F1008091E80086
:1025D0008E77B9CF80917503813209F075CF8091E4
:1025E000790390917A03892B09F06ECF8091E800EE
:1025F000877F8093E8000E940B0780917703809388
:102600002C010E941E1260CF80917503813209F067
:102610005BCF8091E800877F8093E8000E940B07E2
:102620008091780380934F034FCF80917503813A57
:1026300009F04ACF8091E800877F8093E80080917D
:10264000E80080FFFCCF80914F03BECF803899F027
:10265000823809F0BBC1809179038F70873008F010
:10266000B5C18093E9008091EB0085FB882780F954
:102670001092E90006C0809171039091720391114C
:1026800082609091E800977F9093E8008093F1003A
:102690001092F1008091E8008E7794C1882309F4AC
:1026A00082C1823009F092C180917703811185C186
:1026B000809179038F702FEF280F263008F086C1A4
:1026C0008093E9002091EB0020FF77C1933031F433
:1026D0008091EB0080628093EB006FC19091EB00E2
:1026E00090619093EB0021E030E001C0220F8A95C9
:1026F000EAF72093EA001092EA008091EB008860EC
:10270000EACF811163C1109177031F778091E300B5
:102710008078812B8093E3008091E800877F80930D
:10272000E8000E940B078091E80080FFFCCF8091B9
:10273000E30080688093E30082E0111183E08093DE
:10274000730344C18058823008F040C18091770300
:10275000909178038C3D23E09207A1F583E08A8372
:102760008AE289834FB7F894DE01139620E03EE0B9
:1027700051E2E32FF0E050935700E49120FF03C0B3
:10278000E295EF703F5FEF708E2F90E0EA30C0F07F
:10279000C7968D939D932F5F243159F74FBF80913A
:1027A000E800877F8093E8006AE270E0CE0101963E
:1027B0000E94B7078091E8008B778093E80006C1FC
:1027C000C096E7CF4091790350917A03292F3327A0
:1027D0002330310509F444C078F52130310509F47E
:1027E0006FC08BE390E0E9E5F7E02230310509F0B6
:1027F000EDC02091E800277F2093E80020917B0323
:1028000030917C038217930708F49C0140E0211566
:10281000310509F064C0411162C08091E80082FD79
:10282000C9CF80917303882329F2853019F28091F2
:10283000E80083FFF2CFBECF21323105A9F1223269
:10284000310509F0C3C04115510509F443C04130B9
:10285000510509F0BBC086EB90E0E3E6F6E0C9CF96
:10286000992781309105C1F0009759F0029709F03E
:10287000ADC0E6EAF7E0E4918E2F90E0E6EAF7E0FB
:1028800007C0E6ECF7E0E4918E2F90E0E6ECF7E08D
:10289000009709F49BC0ADCFE4EBF7E0E4918E2FF5
:1028A00090E0E4EBF7E0F4CF4115510571F04130D1
:1028B000510509F08BC089E090E0E4E8F7E099CF9A
:1028C00082E190E0E4E9F7E094CF89E090E0EBE684
:1028D000F7E08FCF80E490E0E9E1F7E08ACF8091E4
:1028E0007303882309F466CF853009F463CF8091A0
:1028F000E80083FD5FCF8091E80082FD8ECF80915C
:10290000E80080FF84CF9091F3008091F2002115C0
:10291000310519F08830910550F041E0089709F031
:1029200040E08091E8008E778093E80070CF44917A
:102930004093F1003196215031090196E8CF80385B
:1029400009F044C08091E800877F8093E80080917F
:1029500074038093F1009ECE811138C010917703EB
:102960001230A0F58091E800877F8093E8001093F3
:1029700074030E940B07112311F084E005C08091BD
:10298000E30087FDFACF81E08093730342E061ECBE
:1029900081E00E942A0742E261EC82E00E942A075D
:1029A0008091730313C080917703813079F481E0C3
:1029B000933009F080E0809372031092E9008091D7
:1029C000E800877F8093E8000E940B078091E80071
:1029D00083FF0AC08091E800877F8093E8008091A0
:1029E000EB0080628093EB00AA96E3E00C94BD2B91
:1029F0001F920F920FB60F9211242F933F934F9374
:102A00005F936F937F938F939F93AF93BF93CF9376
:102A1000DF93EF93FF93D091E900DF708091EC009A
:102A2000C82FC17080FDC0E81092E9008091F000CD
:102A3000877F8093F00078940E9447121092E900FB
:102A40008091F00088608093F000CD2BCF70C09310
:102A5000E900FF91EF91DF91CF91BF91AF919F91ED
:102A60008F917F916F915F914F913F912F910F9037
:102A70000FBE0F901F9018950E941E122FEF84E337
:102A80009CE0215080409040E1F700C0000088E1C8
:102A90009AE00FB6F894A895809360000FBE9093CB
:102AA0006000FFCF40912C03662309F456C0242F09
:102AB00030E0220F331FF901E152FE4F90818D3C2F
:102AC00031F49195909334030E94F71108958E3C50
:102AD000C9F38F3C21F4919590933303F5CF803D5A
:102AE000D9F329523E4FF9019081893D19F4909311
:102AF0003503EACF8A3D11F49195F9CF8B3D21F44E
:102B0000919590933603E0CF8C3DD9F39FE2980FD7
:102B1000983070F4815D990B21E030E001C0220F04
:102B20008A95EAF780913203822B80933203CCCFCF
:102B30008D3D51F481E080932C0380912C03841708
:102B400019F20E94DE08C0CF8E3D11F482E0F3CF6F
:102B50008F3D09F0B9CF83E0EECF8D3C39F49091F1
:102B6000340397FF09C010923403AECF8E3C69F452
:102B7000909134031916BCF38D5D833008F0A4CF17
:102B800010922C034111DDCF9FCF8F3C39F49091EF
:102B9000330397FFF1CF1092330396CF803D29F492
:102BA000909133031916BCF3E7CF893D39F4909126
:102BB000350319160CF71092350386CF8A3D29F498
:102BC0009091350397FFD8CFF6CF8B3D39F48091A4
:102BD000360387FF79CF1092360376CF8C3D29F4E8
:102BE000809136031816BCF36FCF9FE2980F983090
:102BF00008F0C2CF815D990B21E030E0A90102C04D
:102C0000440F551F8A95E2F7CA01809590913203CF
:102C100089238BCF882399F19CEF980F913A40F448
:102C2000682F8AEE91E00E9435080E94EE0D08950B
:102C300090E2980F983050F4877091E001C0990F9E
:102C40008A95EAF7892F0E94960BEFCF9BE5980FA4
:102C5000933028F490E080E00E94B908089598E548
:102C6000980F9B3128F490E080E00E94940808952A
:102C700093E3980F933118F460E00E945215089581
:102C8000CF93C82F8823D9F18CEF8C0F813AC8F5E8
:102C900080912C01882311F180914C0387FF1EC085
:102CA000EC2FE695E695E695F0E0E651FE4F828141
:102CB00090E04C2F477021E030E002C0220F331F1C
:102CC0004A95E2F782239323892B91F06C2F8AEEA9
:102CD00091E00E9435080E94EE0D0AC0ECEEF1E092
:102CE00082EF91E02191C21789F38E179F07D1F7E8
:102CF0006C2F8AEE91E00E945F080E94EE0DCF914A
:102D0000089580E28C0F883068F4C77021E030E0CD
:102D100001C0220FCA95EAF78091A502822B809309
:102D2000A502EBCFEBE5EC0FE33040F4F0E0E65822
:102D3000FE4F808190E00E94B908E1CFE8E5EC0FFA
:102D4000EB3150F4F0E0EE0FFF1FE358FE4F8081AF
:102D500091810E949408D3CF83E38C0F833178F65E
:102D600061E08C2F0E945215CACF1F93CF93DF933F
:102D7000182FD0E0C0E0893311F4C0E5D0E0812FF6
:102D80000E944016209739F4812F0E940A16DF9185
:102D9000CF911F9108958FE99FE00197F1F700C04F
:102DA00000002197EFCF0F931F93CF93DF93C42F92
:102DB000D22FFC0182818823A9F0409340030E9416
:102DC000EB1190933F0380933E03C77081E001C0F5
:102DD000880FCA95EAF70E94690EDF91CF911F9183
:102DE0000F91089510914003141336C080913E0353
:102DF00090913F030E94DC1120912A0130912B0118
:102E00008217930748F5C0E2CD0F1D17B9F080E295
:102E1000810F883040F4177081E001C0880F1A9547
:102E2000EAF70E94620EC83048F481E09D2F977047
:102E300001C0880F9A95EAF70E94690E802F0E94C0
:102E4000B516C83050F6D77081E001C0880FDA950A
:102E5000EAF70E94620EC1CFC77081E001C0880FFF
:102E6000CA95EAF7F6CF0F931F93CF93DF93C82F3E
:102E70008B010E94230DD82F0E94580E8C2F0E9488
:102E800040160115110559F48C2F0E940A168D2F3A
:102E90000E94430EDF91CF911F910F9108958FE90A
:102EA0009FE00197F1F700C0000001501109E9CF40
:102EB000ACE0B0E0EEE5F7E10C94972B8E010F5FEC
:102EC0001F4F88E0D8011D928A95E9F785EBC82E3F
:102ED00081E0D82EF12CE12CAA24A394B12C2FEB65
:102EE000822E21E0922EF60181916F018F3F09F42D
:102EF00042C0F894E82FE295EF70F0E021A18F70C6
:102F0000A50102C0440F551F8A95E2F7CA01922F0E
:102F1000982B91A392A18095892382A3789400C0D5
:102F2000E9EBF1E0712C31E021912F3F09F46BC006
:102F3000A22FA295AF70B0E090968C9190E02F7088
:102F400002C0959587952A95E2F780FD5CC0832F96
:102F5000782A330F8E169F0639F7F6013197808154
:102F60008F3F11F00E94570950EA5A95F1F7F80186
:102F7000EE0DFF1D70828FEFE81AF80AA4E0EA1642
:102F8000F10409F0B0CF48E050E0B8018EEC92E0D7
:102F90000E94282C009741F028E0F801AEECB2E046
:102FA00001900D922A95E1F70091D702892B69F1E2
:102FB00081E08093AB020E94EB119093AA02809370
:102FC000A9028091A9029091AA020E94DC110597A2
:102FD00000F110E006521D4F44E050E06EEC72E04C
:102FE000C8010E94282CB12C892B51F084E0EEEC12
:102FF000F2E0D80101900D928A95E1F7BB24B394D9
:103000001092AB0207C080E0A3CF8091AB02811188
:10301000D8CFB12C0E94800FF82EE091D7028823E0
:1030200009F472C019861A861B861C860E2F10E0C2
:1030300006521D4F8091C9028A3088F546E350E15F
:10304000BE01675F7F4FC8010E944D0F882309F4BE
:103050004AC04DEC5FE0BE01675F7F4FC8010E9430
:103060004D0F882309F43FC01092C9028091D60207
:1030700090E044E050E0BE01675F7F4F86529D4F75
:103080000E94282C21E02093B202892BF1F4F12C2C
:103090001F2D812F8B292C96EDE00C94B32B809162
:1030A000AC029091AD020E94DC11843F914030F659
:1030B0008091B202882359F3FE01399684E0DF0142
:1030C0001D928A95E9F71092B202E091D602F0E0E3
:1030D000E652FD4F89859A85AB85BC8580839183B7
:1030E000A283B383D5CF8091C9028F3F31F08F5F28
:1030F0008093C9028A3008F4B9CF0E94EB119093F3
:10310000AD028093AC02D4CFF0E0E652FD4F84E0F4
:10311000ADEBB2E001900D928A95E1F78DEB92E074
:103120000E94A4068093BC02C090C102D090C2024B
:10313000E090C302F090C4028091AE029091AF0281
:10314000A091B002B091B102C816D906EA06FB06FA
:1031500011F410E09ECFC092AE02D092AF02E09286
:10316000B002F092B1020E94800F182F8111F1CFAE
:103170000E942908C61AD70AE80AF90AC092CA02A8
:10318000D092CB02E092CC02F092CD0282CFB0E09E
:10319000A0E0EDECF8E10C94922B4C01DC011396CD
:1031A0008D919C911497892B41F08C9111969C9153
:1031B00089238F3F11F00C941021CDB7DEB7E2E1E7
:1031C0000C94AE2B80912A0291E0892780932A02E9
:1031D00080918302877089F3D40112968C918823A1
:1031E00061F380914D0382FFE8CF82E00E949D0C45
:1031F000E4CF80912A02882309F42DC110922A027B
:10320000E03CF10508F080C0E038F10508F0EDC0C1
:10321000E034F10508F0B3C021E030E040E050E0D8
:1032200060E070E080E090E00E2F0E94FD2BA09106
:103230000A022A2BA0910B023A2BA0910C024A2BD6
:10324000A0910D025A2BA0910E026A2BA0910F02A1
:103250007A2BA09110028A2BA09111029A2B209315
:103260000A0230930B0240930C0250930D026093BC
:103270000E0270930F028093100290931102EF01DF
:10328000CE0190528115904308F0F6C2CE019927E5
:1032900020E28C33910520F4FC01E25CFE4F20819A
:1032A0001F922F939F938F93D4018C911F928F9392
:1032B00011968C911F928F938DE291E09F938F9343
:1032C0001F9288E18F938FEE92E09F938F930E94DD
:1032D0003E2CEDB7FEB73E960FB6F894FEBF0FBE7C
:1032E000EDBFC337FCE7DF0709F042C2D4011296F5
:1032F0008C91882309F46CCF80913D03882309F4D5
:10330000BDC20E944E0E64CFEF3FF10511F008F0F0
:1033100083CF21E030E040E050E060E070E080E00A
:1033200090E08F01005C11090E94FD2BA091220208
:103330002A2BA09123023A2BA09124024A2BA09180
:1033400025025A2BA09126026A2BA09127027A2BE4
:10335000A09128028A2BA09129029A2B2093220265
:103360003093230240932402509325026093260257
:1033700070932702809328029093290280CF21E046
:1033800030E040E050E060E070E080E090E08F01ED
:10339000005411090E94FD2BA09112022A2BA0912A
:1033A00013023A2BA09114024A2BA09115025A2B1A
:1033B000A09116026A2BA09117027A2BA0911802F5
:1033C0008A2BA09119029A2B209312023093130298
:1033D00040931402509315026093160270931702E3
:1033E00080931802909319024ACF21E030E040E028
:1033F00050E060E070E080E090E08F01005811093B
:103400000E94FD2BA0911A022A2BA0911B023A2B9D
:10341000A0911C024A2BA0911D025A2BA0911E02C2
:103420006A2BA0911F027A2BA09120028A2BA091D7
:1034300021029A2B20931A0230931B0240931C0204
:1034400050931D0260931E0270931F02809320020E
:103450009093210214CFE034F10508F067C020906A
:103460000A0230900B0240900C0250900D026090C6
:103470000E0270900F02B0911002A091110221E093
:1034800030E040E050E060E070E080E090E00E2F3F
:103490000E94FD2BA22EA220B32EB320C42EC42046
:1034A000D52ED520E62EE620F72EF720082F0B2369
:1034B000192F1A230E94162C09F0D3C6E03CF105FF
:1034C00008F08EC0E038F10508F0EBC0E034F105FB
:1034D00008F0B9C021E030E040E050E060E070E08A
:1034E00080E090E00E2F0E94FD2B209530954095B6
:1034F00050956095709580959095222133214421B7
:103500005521662177218B239A2320930A02309339
:103510000B0240930C0250930D0260930E027093C5
:103520000F02809310029093110252CEE038F10501
:10353000E0F4209012023090130240901402509058
:1035400015026090160270901702B0911802A091B7
:10355000190221E030E040E050E060E070E080E0FF
:1035600090E08F010054110993CFE03CF105E0F4A5
:1035700020901A0230901B0240901C0250901D02B5
:1035800060901E0270901F02B0912002A091210253
:1035900021E030E040E050E060E070E080E090E06A
:1035A0008F010058110974CF20902202309023021D
:1035B00040902402509025026090260270902702CD
:1035C000B0912802A091290221E030E040E050E0D3
:1035D00060E070E080E090E08F01005C110958CF5E
:1035E000EF3FF10511F008F075CF8F01005C110974
:1035F00021E030E040E050E060E070E080E090E00A
:103600000E94FD2B209530954095509560957095C2
:1036100080959095222133214421552166217721DF
:103620008B239A2320932202309323024093240277
:1036300050932502609326027093270280932802FC
:1036400090932902C5CD8F010054110921E030E08B
:1036500040E050E060E070E080E090E00E94FD2BF0
:1036600020953095409550956095709580959095F2
:103670002221332144215521662177218B239A234E
:1036800020931202309313024093140250931502B8
:103690006093160270931702809318029093190298
:1036A00097CD8F010058110921E030E040E050E053
:1036B00060E070E080E090E00E94FD2B2095309566
:1036C0004095509560957095809590952221332175
:1036D00044215521662177218B239A2320931A02B6
:1036E00030931B0240931C0250931D0260931E02F4
:1036F00070931F02809320029093210269CDEF3FC7
:10370000F10509F060F5E034F10508F065C0A0901E
:103710000A02B0900B02C0900C02D0900D02E09013
:103720000E02F0900F02A09110021091110221E000
:1037300030E040E050E060E070E080E090E00E2F8C
:103740000E94FD2BA222B322C422D522E622F72218
:10375000082F0A2319230E94162C09F439CDC034EE
:10376000FEE7DF0729F0C1342EE7D20709F0B9CD13
:1037700080913D03882309F4BEC00091A5021091F9
:10378000A6020E94EB1188579C4E9093EC02809306
:10379000EB02F4018281882309F4ADC0102B1D795E
:1037A00009F0F8C0C034F2E5DF0708F094C0C11595
:1037B00022E5D20708F09FC0C11530E4D30708F016
:1037C0006DC0C11580E2D80708F0D8C0C63ED1054B
:1037D00009F491C0CE016EC0E038F10598F4A090D4
:1037E0001202B0901302C0901402D0901502E09023
:1037F0001602F0901702A091180210911902E054DD
:10380000F10995CFE03CF10598F4A0901A02B09030
:103810001B02C0901C02D0901D02E0901E02F0908E
:103820001F02A091200210912102E058F1097FCFE0
:10383000A0902202B0902302C0902402D0902502D2
:10384000E0902602F0902702A09128021091290210
:10385000E05CF1096CCF8091ED029091EE02E2E024
:103860008E270E947D0C8091A502827209F0B0CC57
:1038700086EE0E94B516ACCCCE010ACD1092A50200
:103880000E94900B0E94EB1188579C4E9093EC0283
:103890008093EB0281E080933D039ACCC11590E5C3
:1038A000D90708F097CFD40115968C91807F19F134
:1038B000CE0199271092A4028832910508F075C0B4
:1038C0008E31910508F078C0049708F463C082E057
:1038D0008093A40271C0C43BA2E5DA0761F0CE0177
:1038E000C53BB2E5DB0708F043C080569245803403
:1038F000910508F06FCFF4018281882309F415C582
:10390000C137FCE7DF0709F41DC1C2372CE7D20736
:1039100009F422C1C0373CE7D30709F010C5C090B5
:103920002A01D0902B018091000190910101C816CD
:10393000D90609F04BC080913102803209F046C0AF
:10394000EBE2F2E0EF0181918032E1F32AE0222EF6
:103950002881222309F43CCC213009F09FC09981B1
:103960008A81913009F069C022960E94B5166AC01A
:10397000805C9245809708F02DCFBDCFF401858102
:10398000807F09F095CF8D2F8F71823159F028F407
:10399000823041F00E944E0EAECF843109F4ABCF9D
:1039A0008631C1F71092A402F5CF8D32910509F44A
:1039B0008ECF28F48A9771F70E94EE0D9CCF8C343D
:1039C0009105D1F38D329240B9F3E4CFD092010149
:1039D000C092000180E280933102F12CE12C109220
:1039E00030023BE2632E32E0732E06E212E0E30186
:1039F0004AE0242E312C412C512CC701B601A201E2
:103A000091010E94D52B605D603319F46C167D0620
:103A100031F0C114D104E104F10409F460E26C83D3
:103A2000C701B601A20191010E94D52B69017A015B
:103A300021970C171D0709F783CF923029F422969E
:103A40000E944016219684CF933021F422960E9442
:103A50000A16F8CF943011F02196F4CF229630E078
:103A600020E0AE014F5F5F4F8053990B8A30910584
:103A700050F02150310930F38FE99FE00197F1F7C1
:103A800000C00000F6CF229EB001239E700D1124CD
:103A90009C01260F371F8981EA01E3CFE22FF0E076
:103AA000E452FF4F3490822F86958695869590E05C
:103AB000FC01E453FF4F64902770712C022E02C06A
:103AC000759467940A94E2F7A1E06A227724FC01D6
:103AD000E454FF4F4490512C022E02C05594479459
:103AE0000A94E2F7B1E04B225524FC01E455FF4F64
:103AF000049110E002C0159507952A95E2F7017030
:103B000011276114710419F081EE0E9440164114CE
:103B1000510419F086EE0E944016832D0E94B516BE
:103B20004114510419F086EE0E940A1661147104C2
:103B300019F081EE0E940A160115110509F482CFD1
:103B40008CE213CF80912A0190912B0105969093DE
:103B50002B0180932A013CCB80912A0190912B016B
:103B60000597F5CF06E221EE41EE6AE17CE7C4015C
:103B70000E94D3162DCB07E225EE45EE6BE17CE7E4
:103B8000F6CF06E221EE40EE68E17CE7F0CF07E2F7
:103B900025EE44EE69E17CE7EACF06E221EE42EE53
:103BA0006CE17CE7E4CF07E225EE46EE6DE17CE7D1
:103BB000DECF08E221E045EE6EE17CE7D8CF8091D0
:103BC0004C03816080934C0395C080914D038860C5
:103BD00080934D038FC080914C038260F3CF80911E
:103BE0004C038460EFCF80914C038860EBCF8091D1
:103BF0004D038160EDCF80914D038260E9CF8091CC
:103C00004C038061DFCF80914C038062DBCF8091D9
:103C10004C038064D7CF0E941E1280914C038068B1
:103C2000D1CF80914C038C60CDCF80914D038360C8
:103C3000CFCF80914C038E7FC5CF80914D03877F7E
:103C4000C7CF80914C038D7FBDCF80914C038B7F7C
:103C5000B9CF80914C03877FB5CF80914D038E7F84
:103C6000B7CF80914D038D7FB3CF80914C038F7E72
:103C7000A9CF80914C038F7DA5CF80914C038F7B82
:103C8000A1CF0E941E1280914C038F779BCF809111
:103C90004C03837F97CF80914D038C7F99CF809188
:103CA0004C0382FB992790F921E0922790FB82F93F
:103CB00090FB83F987CF80914D03982F9095917059
:103CC0008E7F892B90FB81F983CF90914C03892FB4
:103CD0008F7B96FF806476CF0E941E1290914C03DA
:103CE000892F97FB87F980586DCF61E08EE090E0D7
:103CF0000E94EB2E60914C0370914D0384E090E0A4
:103D00000E94092F0E941E1263CA60E0EFCF9091BB
:103D10004C03892F8F7E94FF806154CF90914C0388
:103D2000892F8E7F90FF81604DCF90914D03892F19
:103D3000877F93FF88604CCF0E941E12EFEFF4E361
:103D40002CE0E150F0402040E1F700C000000E946C
:103D500018086FEF7FEF90E080E00E94092F0E942B
:103D60003C1580914D0382FB882780F991E08927DB
:103D70000E94B60FF4018281C081D181882309F4A9
:103D80004DC0CE010E94D30B182F682FCE010E9488
:103D9000470CBE01812F0E94530A0E94720AD82F3D
:103DA000C92F482ED40112961C91129715967C901B
:103DB00072949FE07922809183028770F1F0612EE6
:103DC0001123E1F08C2F807F803451F080E28D0F41
:103DD000883098F0711004C08C2F807E803269F09A
:103DE00080914D0382FF09C082E00E949D0C80916A
:103DF00083028770662463948111612C5C2E529437
:103E00008FE05822BBE0B51508F469C0E52DF0E05D
:103E1000E55DF04D0C94F72B80E0AACFCE010E9417
:103E2000140C182FB6CF0C2F0F70C07F11F0029515
:103E3000007F1123B9F0002369F080E28D0F8830F4
:103E400010F0411009C08091A502082B0093A50233
:103E50000E94EE0D8D2F41C08091A402082B00938B
:103E6000A402F6CF8D2F0E940A160023C1F1D05E66
:103E7000D83010F0411004C0802F0E94960B06C06D
:103E800000958091A40208230093A4020E94EE0DE5
:103E900026C00C2F0F70C07FC03211F00295007F3A
:103EA000442059F0E1E04E1609F469C0112309F4E9
:103EB00073C0772009F469C0CDCF20914D0322FD56
:103EC00037C0112379F1002339F08091A502082B26
:103ED0000093A5020E94EE0D80E00E944016A52DE1
:103EE000A850BB0B149710F40E94A50F6620A9F0F0
:103EF0008091830280FD11C0F40112828595859521
:103F000085950E94B90CC4010E94C7188091830254
:103F10008595859585950E948B0C60E0C4010E9473
:103F2000F80C4BC980E00E940A160023C1F2A4CF0E
:103F3000112399F09091A602892F802B711003C054
:103F40000E94690ECCCFF1E07F12FACF22FFC7CFDB
:103F5000891729F28093A602C2CF711006C00E9471
:103F6000900B802F0E94620EBACF21E0721609F4E6
:103F7000B6CF802F0E94620E0E94900BB0CF11230B
:103F800031F035E0371508F4AACF802FD9CF84E07F
:103F9000871508F4A4CFE5CF772019F399E34912E8
:103FA00009C0AFEFB7EEE3E0A150B040E040E1F769
:103FB00000C000008D2F0E940A1691CF8C2F86958D
:103FC0008695837069F0813009F089CF8D2F9C2F01
:103FD0009370111102C080E090E00E9494087FCF9E
:103FE0008D2F9C2F9370111102C080E090E00E94F1
:103FF000B90875CF612F8D2F0E94521570CF8C2F6D
:10400000837009F03FC011116ACF4D2F429546953C
:104010004770440F440F2D2F2F7030E0042E02C044
:10402000220F331F0A94E2F790E080E0D4FF09C02A
:104030008FE090E002C0880F991F4A95E2F78095C3
:104040009095C695C695C370C23099F078F44091AA
:10405000D8025091D902C13039F0822B932B84239E
:1040600095230E94C90C3BCF242B352B822B932BFD
:10407000F8CF822B932B2091D8023091D90282273E
:104080009327EFCF8695112311F08C2F8170882311
:1040900009F425CF4D2F429546954770440F440FA4
:1040A0002D2F2F7030E0042E02C0220F331F0A94F0
:1040B000E2F790E080E0D4FF09C08FE090E002C01A
:1040C000880F991F4A95E2F780959095C695C695F9
:1040D000C370C23099F078F44091ED025091EE0235
:1040E000C13039F0822B932B842395230E947D0CC1
:1040F000F6CE242B352B822B932BF8CF822B932BB0
:104100002091ED023091EE0282279327EFCFCF70FE
:10411000112329F08C2F0E94B90C8D2F11CF8D2FD8
:104120000E94620E8C2F0E948B0CD9CE8D2FF2EF45
:104130004F1699F1F41570F020EF4216D1F031EFDF
:10414000431691F0112309F45BC0711083CE8C2FBC
:104150008F7127C093EF491639F1A4EF4A12F2CFBD
:1041600080914D0382FD2EC08C2F8F711123D9F2C7
:1041700018C0112369F0B4E0B71508F4B0CECF71C0
:1041800081E090E002C0880F991FCA95E2F7B8CF8E
:10419000E5E0E71508F4A3CEF2CF8C2F8F71111153
:1041A000C2CF0E94B90C9BCE90E080E0112309F4AD
:1041B0009DCFCF7181E090E002C0880F991FCA9512
:1041C000E2F794CF112389F0CF718C2F0E94B90CA4
:1041D00080914D0382FF07C0F8E0CF9FC0011124FA
:1041E0008360809383028C2FDCCF81E00E949D0C42
:1041F00021E0271508F073CE82E00E949D0C6FCE5F
:10420000772059F0893309F0D5CE3FEF87EE93E060
:10421000315080409040E1F7CBCE8C2F8F7183CF0F
:1042200061E0C4010E94F80CEC01815A9245FE0144
:104230004F9720F4B0EAEB27B2E5FB27D4011296A2
:104240008C91882309F45BCAEF3FF10509F010F463
:104250000C94F918E935FC4711F40C94E21810920B
:104260002A02C0349EE7D90709F4F5CAC134AEE783
:10427000DA0711F00C94401970E060E084E392E0FA
:104280000E94331770E060E085E292E00E943317ED
:1042900070E060E08CE190E00E9433170C94E81825
:1042A000C6313CE7D30709F58091A5028A7A91E0EF
:1042B00009F490E09093320269E2811165E38AEE9D
:1042C00091E00E945F080E94EE0D0C94E818C63140
:1042D000DC4709F04FCD8091320269E2811165E33C
:1042E0008AEE91E00E943508EECFC330BCE7DB07D1
:1042F00009F42FCD50F4C115FCE7DF0709F41CCDFC
:10430000C130DC4709F42BCD35CDCB353CE7D307A5
:1043100009F482CDCC358CE7D80709F422CDCA3513
:10432000DC4709F027CD81E023CDFE01E851FC47B1
:10433000E730F10560F6E95CF04D0C94F72BFE01D7
:10434000E851FC47E730F105B0F310924003CE018D
:104350009057839708F0A4CF84E090E00E94E52E68
:1043600090934D0380934C03FE01E150F047E232FD
:10437000F10508F024CCE25CF04D0C94F72BB0E092
:10438000A0E0E5ECF1E20C949D2B80915002807F3F
:1043900009F052C080914D02882309F44DC0C091AC
:1043A000820286E0D82E809151028C1709F444C015
:1043B00080914E0290914F02D0E0009709F441C0E5
:1043C00020914B0230914C02422F43234F3FC9F1C1
:1043D000DC9E8001DD9E100D1124F801EE5AFD4F88
:1043E000418143132EC0308132132BC02281211111
:1043F00028C0E380F480E81AF90A60E08BE492E0D8
:104400000E94F80C80912A0190912B01E816F90680
:10441000C0F4809150028F70806180935002F80147
:10442000E95AFD4F80818F70806180838BE492E038
:104430000E94C7180E94C90BCDB7DEB7E7E00C9405
:10444000B92B2196C770AFCFA1E1B0E0EAE2F2E26A
:104450000C94922B8C0185E0F801DE011D960190F1
:104460000D928A95E1F7F80162808BE4C82E82E014
:10447000D82EA0904E02B0904F02A50160914C0240
:1044800080914B020E94BD0B482E882309F46BC11A
:10449000F801E380F48070904D0247018A189B0870
:1044A000A0902A01B0902B01772009F424C120802C
:1044B000318060E0C6010E94F80C509050028A14CE
:1044C0009B0408F0D0C040914E0250914F02D09012
:1044D0004B02C0904C02852D807F6C2D09F07CC072
:1044E0008D2D0E94BD0B762C8823D9F0F801818197
:1044F0008C1117C080818D1114C0611012C0852DE0
:104500008F708061809350028BE492E00E94C71804
:1045100080915002F8018583872D6196E2E10C9429
:10452000AE2BA701632D822D0E94BD0BF82E81E0DA
:104530008625F11001C080E080FF05C0462D632D67
:10454000822D0E949D0B81E08625F11001C080E044
:10455000F82FF170FF2E80FF35C0462D632D822D80
:104560000E949D0BE82E81112DC02D863E868D85E3
:104570009E850E94070C292F22952F70243058F415
:104580009F70223088F0992399F0F8019581907FEF
:1045900079F47E2CC1CF2A5F2F70223068F0C801D9
:1045A0000E94C718EF2CF5CF992311F0882389F3C7
:1045B000805E883070F3F3CF803F58F3815F8330A3
:1045C00070F7E7CF662009F4A7CF80915002816091
:1045D00080935002712CA0CF8D2D0E94BD0B782EA0
:1045E0008823B1F0F80181818C1112C080818D1176
:1045F0000FC061100DC05582C8010E94C71886E027
:10460000F801ABE4B2E001900D928A95E1F784CF16
:10461000C8010E94CE0C882301F16620F1F0809140
:104620005002803270F020914B0230914C0238875A
:104630002F831986FB86EA868C87CE0107960E9417
:10464000C71886E0F801ABE4B2E001900D928A95BC
:10465000E1F70E94BF21742C5FCFC8010E94C718E8
:104660007724739459CF852D807F51F48BE492E0A9
:104670000E94C71886E0F60111928A95E9F7AACF41
:10468000B0904B02A0904C0240914E0250914F02CC
:104690006A2D8B2D0E94BD0B782E882399F0F8018E
:1046A00081818A110FC080818B110CC061100AC0FA
:1046B0005582C8010E94C71886E0F60111928A95BA
:1046C000E9F72ACFC8010E94CE0C882331F2662078
:1046D00021F280915002803208F4B3CF20914B0236
:1046E00030914C023A8329831B82FD82EC828E83B7
:1046F000CE010196A4CF60E08BE492E00E94F80C1A
:104700008A149B04C8F6762C662009F4A6CFF09094
:104710004B02E0904C0240914E0250914F026E2DA0
:104720008F2D0E94BD0B882381F0F80191819E118D
:104730000CC090819F1109C096E0ABE4B2E00190FB
:104740000D929A95E1F7782EE7CEC8010E94CE0C23
:10475000811177CF80915002816080935002C8010F
:104760000E94C718D9CE662009F477CFC8010E94ED
:10477000CE0C782E882309F470CF86E0F801ABE4E4
:10478000B2E001900D928A95E1F780914B029091F1
:104790004C020E94070C0E94BF21BECEA7E1B0E0F0
:1047A000E4EDF3E20C94A12B4B8B5C8B6D8B7E8B39
:1047B0008F8B61111092A4021A8A198A85E0FE017A
:1047C0007396DE011D9601900D928A95E1F786E0C1
:1047D000FE013D96DE01179601900D928A95E1F754
:1047E000CE0107960E942422811112C086E0FE01AC
:1047F0003796DE01119601900D928A95E1F78A8530
:104800009B85892B29F08F81988589238F3F81F59E
:1048100016E024C096E0929FD001939FB00D112422
:10482000AE5ABD4FFE01319601900D929A95E1F777
:10483000809351020E94C90BEBCF819FC0011124CC
:104840008E5A9D4F0E942422882371F0809182020B
:1048500090E001968770992780938202809182026E
:10486000909151028913E9CF6796E3E00C94BD2B38
:104870002091510230E0C90101968770992740913B
:1048800082024817190631F60E941E121092510238
:104890001092820286E0EBE4F2E0DF011D928A953D
:1048A000E9F7B6CFA5E0B0E0E8E5F4E20C94A02B80
:1048B0000E94EB118C018091A7029091A8028017B1
:1048C0009107A1F08FEF89838A831B820E94EB11ED
:1048D0008160782F9D838C8349815A816B818D8182
:1048E0000E94CE231093A8020093A7022596E4E02D
:1048F0000C94BC2B1F921FB61F9211248F939F9371
:10490000AF93BF9380914703811113C080914803F7
:1049100090914903A0914A03B0914B034196A11D88
:10492000B11D8093480390934903A0934A03B09329
:104930004B03BF91AF919F918F911F901FBE1F900E
:104940001895CDB7DEB72D970FB6F894DEBF0FBE22
:10495000CDBF85B7806885BF85B7806885BF84B7C0
:10496000877F84BF0FB6F894A89580916000886116
:1049700080936000109260000FBE80E890E00FB658
:10498000F89480936100909361000FBE85E599E0F3
:104990009093E9018093E8010E94BB060E945C07A6
:1049A0008091E20084608093E200789480917303A8
:1049B0008823A1F01091E9001F709091EC00892FDD
:1049C000817090FD80E8182B1092E9008091E8003A
:1049D00083FD0E9447121F701093E90082E084BD9E
:1049E00093E095BD9AEF97BD80936E001092CA0236
:1049F0001092CB021092CC021092CD020E94800F36
:104A000080931A010E94800F81110E941C2A8091BC
:104A10001A0180911A0194E0811190E09093D702DD
:104A200084E0891B8093D60284E90E94570986E6B8
:104A30000E94570987E90E94570986EC0E9457098E
:104A400009EB11E08FEBE82E81E0F82ED8018D9173
:104A50008D018F3F11F00E945709E016F106B1F762
:104A600088E0EAEDF2E0DF01282F1D922A95E9F7B0
:104A7000EEECF2E0DF011D928A95E9F790E080E02C
:104A80000E94E52E873E9E4F09F45EC067EE7EEFE2
:104A900090E080E00E94092F60E082E090E00E94B8
:104AA000EB2E60E083E090E00E94EB2E1092D902A2
:104AB0001092D80260E074E184E090E00E94092F37
:104AC00060E086E090E00E94EB2E6FEF87E090E0E0
:104AD0000E94EB2E40E050E0BA0188E090E00E9496
:104AE000FD2E60E08DE090E00E94EB2E40E050E073
:104AF000BA0188E190E00E94FD2E60E087E190E03D
:104B00000E94EB2E40E050E0BA018CE190E00E9460
:104B1000FD2E70E060E080E290E00E94092F40E00E
:104B200050E0BA0188E190E00E94FD2E40E050E0A4
:104B3000BA018FE090E00E94FD2E40E050E0BA0103
:104B400083E190E00E94FD2E82E090E00E94DD2E45
:104B50008093E20284E090E00E94E52E90934D0362
:104B600080934C030E945817EFEFF6E721E0E150E5
:104B7000F0402040E1F700C000000E9458170E945A
:104B8000800FE4E08111E0E0F0E0E652FD4F80812B
:104B900081FF08C06FEF7FEF90E080E00E94092F57
:104BA0000E94180883E090E00E94DD2E90E00E94B1
:104BB000C90C0E94800F8111B2C082E0809327034C
:104BC00080E880937D030E94D6286DE070E08FEE30
:104BD00095E00E94730E892BE9F58091270363E02D
:104BE00070E081FD9EC08CEE95E00E94730E892BD3
:104BF00089F56DE070E08CED95E00E94730E892BD5
:104C000049F50E942908605A75418F4F9F4F609364
:104C10003703709338038093390390933A03E0E8A5
:104C2000F3E080E092E0DF019C011D9221503040D2
:104C3000E1F7F0938705E09386058FEF9FEF909360
:104C40007F0380937E0381E080933C0380933B034A
:104C5000109228030E94800F811102C00E941F2A17
:104C60008BE191E0909344038093430318E1212E5C
:104C7000312C8091730300E112E1853009F48CC07E
:104C80000E945817A3EEEA2EA2E0FA2EBAEDCB2E20
:104C9000B2E0DB2ED601F70191918D912BEE32E03F
:104CA0002E173F0709F482C09817B1F30E94800FB6
:104CB000882E10E0D6010D916D01F70191907F01D2
:104CC000901629F19026B12CAA24A3948A2D89212B
:104CD000B1F08820A1F0BF82188791E08A2D80234F
:104CE00009F490E099870E94EB118160782F9B87EF
:104CF0008A874F81588569858B850E94CE23B3941E
:104D0000AA0CF6E0BF12E2CFF701319700831F5FD4
:104D1000183081F60E942908DD24D3944CC080E02D
:104D20004DCF89EE95E061CF80917303843021F1FE
:104D30000E949D0E1092470330E40FB6F894A89598
:104D4000209260000FBE3093600083B7817F846043
:104D500083BF83B7816083BF7894889583B78E7F44
:104D600083BF0FB6F894A895809160008861809306
:104D70006000109260000FBE80917203882361F082
:104D80000E945817EAEDF2E081918111F9C182EE9B
:104D900092E08E179F07C1F780917303853009F465
:104DA000C3CF0E941E120E94A50F6ACF98137ECF18
:104DB0000E945224D12C0E94800F882389F0809178
:104DC0003D03882369F00E94EB112091EB023091A2
:104DD000EC02821B930B8F3F9F4710F40E944E0EF4
:104DE00080913C03882309F460C08091290390914D
:104DF0002A030E94DC11C297C0F10E94EB1190932C
:104E00002A038093290380E893E090938705809399
:104E100086050E94800F882309F4D0C087E196E0C0
:104E20000E94AE0DE091ED02F091EE02EF30F1053F
:104E300058F4E05AF04D0C94F72B8FE096E00E9466
:104E4000AE0D81E00E94BC0D0FEE12E0D8010D9076
:104E50000020E9F78D0101501109FFEEEF2EF2E07D
:104E6000FF2EE016F10608F4A3C080917E03909116
:104E70007F03892B09F0A7C080913B038823A9F009
:104E80000E942908009137031091380320913903BB
:104E900030913A03601B710B820B930B6F3F7F4F76
:104EA0008F4F9F4710F40E949D0ED1100E94B80EA4
:104EB00086E0E1E3F3E0DE01119601900D928A9520
:104EC000E1F71092330310923403109235031092DD
:104ED00036038B819C81892BC1F080912F039091A7
:104EE00030030E94DC11E0912C03F0E0EE0FFF1F75
:104EF000E153FE4F208131812817390730F48B812F
:104F0000809333038C81809334038E819D81892B20
:104F1000C1F080912D0390912E030E94DC11E0914D
:104F20002C03F0E0EE0FFF1FE953FE4F208131818B
:104F30002817390730F48D81809335038E81809353
:104F4000360346E050E0BE016F5F7F4F81E393E0A0
:104F50000E94282C892B61F48091330390913403B3
:104F6000892B90913503892B90913603892B11F071
:104F70000E94F71186E0FE013196A1E3B3E00190B3
:104F80000D928A95E1F70E94A50F90912B03891746
:104F900009F46FCE80932B030E9429086ACE89E022
:104FA00096E04DCF83E096E04ACF8CEF95E047CF77
:104FB000F70181917F010E942E0D53CF8FE196E082
:104FC0000E94AE0D52CF80913C03882309F454CF48
:104FD00080912803811150CF0E94B80E20917E034A
:104FE00030917F032115310509F446CF80E041E07F
:104FF00050E0082F10E07A01082E02C0EE0CFF1CD2
:105000000A94E2F7B70162237323672B11F48F5FD1
:10501000F0CF9091270390FF9AC0880F880F880FD8
:105020008093250110922801895F8093260183E0F7
:105030008093290124E630E047E050E063E271E02C
:1050400088E70E947629892B09F016CFA80175E020
:10505000440F551F7A95E1F78091270380FF89C09F
:10506000E7E0F3E080E2DF011D928A95E9F7E3ECE7
:10507000F1E0FD87EC870FEB11E067E0962E8824C6
:105080008394AC85BD852D91BD87AC87F801419097
:105090008F01440E552E511CC20180589C4F2C018B
:1050A000E22FF0E0E95FFC4F30E020E0692C621A6B
:1050B000C82C022E01C0CC0C0A94EAF7520190E0F1
:1050C000D5018D915D018C21662D691B6770762E4F
:1050D000062E000C770BB82F01C0BB0F7A94EAF7AD
:1050E0007B2E7195619571096770772701C0869550
:1050F0006A95EAF7782A8081782A70829F5F9830D3
:10510000F9F62F5F3F4F31962830310579F6EC855F
:10511000FD85E75CF14009F0B4CF04E610E020E241
:1051200030E047E053E060E488E70E949729892B4C
:1051300009F0A2CEE094F09480917E0390917F03D9
:10514000E822F922F0927F03E0927E0395CE8295C9
:10515000880F80768093250198013695279536959E
:10516000279520932801815E8093260110922901C2
:1051700061CF40585C4F04E610E020E230E0D3CF2E
:1051800009BD19BD09B400FEFDCF8091D8008F7D07
:105190008093D8008091E00082608093E00080914D
:1051A000E00081FDFCCF0E941E12F6CD1092B900E6
:1051B0008CE08093B8000895B0E0A0E0E2EEF8E261
:1051C0000C94992BB82EEB010E94EB116C01EE248C
:1051D000E394F12CC431D10560F025E0E22EF12CEE
:1051E000CF3FDC0731F0CE0164E170E00E947E2BFE
:1051F0007B0184EAA82E94E8992E1092BC00A0921C
:10520000BC000E94EB118C018091BC0087FF0DC097
:105210008091B900887F8830F9F08091B900887F4B
:105220008031D1F00FEF1FEF08C0C8010E94DC11E0
:10523000E816F90648F70EEF1FEFCF3FDC07E9F25B
:10524000C6010E94DC11C817D907B8F6C801CDB74E
:10525000DEB7EBE00C94B52BB092BB009092BC0093
:105260000E94EB118C018091BC0087FF0AC08091E5
:10527000B900887F883111F08034A1F610E000E099
:10528000E5CFC8010E94DC11E816F90660F7D3CF1C
:105290000F931F93CF93DF93EB018093BB0084E8C0
:1052A0008093BC000E94EB118C018091BC0087FFB1
:1052B00011C02091B900287F81E090E0283211F4DC
:1052C00090E080E0919581959109DF91CF911F91B8
:1052D0000F910895CF3FDC0741F3C8010E94DC1114
:1052E000C817D90710F78EEF9FEFEFCFB0E0A0E01F
:1052F000ECE7F9E20C949C2B6B018A017901B9016E
:105300000E94DC28E6010C0D1D1DC017D10711F00D
:1053100097FF08C024E92093BC00CDB7DEB7E8E0D2
:105320000C94B82BB70189910E944829EECFB0E0C8
:10533000A0E0EDE9F9E20C949C2BC62F6A017901FB
:10534000B8010E94DC2897FD0CC0B8018C2F0E9488
:105350004829E601EC0CFD1CCE15DF0511F097FF86
:1053600008C024E92093BC00CDB7DEB7E8E00C9478
:10537000B82BB80189910E944829EECF84E9809327
:10538000BC0008958EE14A9B02C08150E1F74A9B20
:10539000FECF08955A9880E28A95F1F75A9A0895B7
:1053A000FC013BE03A95F1F798E020E080E031E045
:1053B00040E14A95F1F7880F4A9B02C0816023279C
:1053C00042E04A95F1F7000040E14A95F1F791502B
:1053D00079F790E19A95F1F799B132E03A95F1F7C2
:1053E000000040E14A95F1F792FB992790F9922746
:1053F0002081920F90830895A1E0B0E0E2E0FAE20C
:105400000C949E2B19828C017C01E60EF11C0E156A
:105410001F0541F481E09981911180E02196E6E039
:105420000C94BA2B0E94C229CE0101960E94D02969
:10543000F80181938F01EBCF529A5A9A08955298AE
:105440005A9AEA9AE9E6F0E080818F7C8083089599
:105450006150770B91E001C0990F6A95EAF720E05F
:1054600031E0911108C0222391F05A9A80E28A9586
:10547000F1F75A980895492F482339F05A9A23276B
:1054800040E24A95F1F79695ECCF5A98F9CF5A98A1
:10549000EDCFFF920F931F93CF93DF93EC018C011D
:1054A000060F111DC017D10729F4CDB7DEB7E5E00F
:1054B0000C94BB2BF9900E94CA2968E08F2D0E94A2
:1054C000282AF0CF1F920F920FB60F9211240F933C
:1054D0001F932F933F934F935F936F937F938F937C
:1054E0009F93AF93BF93EF93FF93CF93DF930F926D
:1054F000CDB7DEB719820E94C229CE0101960E9463
:10550000D029082F069506950695282F22952570F7
:10551000902F9570290F922F937026952695920FB4
:10552000982797708981982B09F05CC0043008F0A7
:1055300059C080E18A95F1F75A9A529A82E08A9589
:10554000F1F700C05A9888E0089F80011124D80123
:10555000AE5FBE4F1696ED91FC9117973097A9F06C
:105560006091B3017091B40114962D913C911597FF
:10557000260F371F11968D919C911297680F791FF6
:1055800013964C9113978C910995F801EE5FFE4F9D
:105590006381662351F02091B3013091B40184817D
:1055A0009581820F931F0E94492A0E94CA2980E197
:1055B0008A95F1F75A9852985A9A80E18A95F1F7AC
:1055C000F801EE5FFE4F6081662351F02091B30138
:1055D0003091B40181819281820F931F0E94FC2936
:1055E0000E94C2290F90DF91CF91FF91EF91BF915F
:1055F000AF919F918F917F916F915F914F913F916B
:105600002F911F910F910F900FBE0F901F90189523
:105610000F931F93CF93DF93EC0104970CF04CC0D2
:10562000F894529A5A9885E08A95F1F700009C2FD9
:10563000969595708C2F8570980F892F837096950D
:10564000969523E0CC0FDD1F2A95E1F7980F8E0188
:10565000092B0E94CA2900C068E0802F0E94282AD6
:1056600080E18A95F1F752985A9A4A9B1EC087E0CA
:1056700090E04A991CC0FE01EE5FFE4F63816623F5
:10568000F9F02091B3013091B40184819581820FAA
:10569000931F0E94FC29811113C0529A5A9A789440
:1056A000DF91CF911F910F91089500C0DECF019738
:1056B00029F4529A5A9A789480E0F2CF00C0D9CF58
:1056C0000E94C22980E28A95F1F75A98529A80E1A5
:1056D0008A95F1F7CE5FDE4F6881662351F0209105
:1056E000B3013091B40189819A81820F931F0E9486
:1056F000492A0E94CA29789481E0D2CFAA1BBB1BF9
:1057000051E107C0AA1FBB1FA617B70710F0A61BC1
:10571000B70B881F991F5A95A9F780959095BC01E2
:10572000CD0108952F923F924F925F926F927F9298
:105730008F929F92AF92BF92CF92DF92EF92FF92A1
:105740000F931F93CF93DF93CDB7DEB7CA1BDB0B4D
:105750000FB6F894DEBF0FBECDBF09942A883988F2
:1057600048885F846E847D848C849B84AA84B984F9
:10577000C884DF80EE80FD800C811B81AA81B98105
:10578000CE0FD11D0FB6F894DEBF0FBECDBFED0119
:105790000895991B79E004C0991F961708F0961B8D
:1057A000881F7A95C9F780950895A1E21A2EAA1B41
:1057B000BB1BFD010DC0AA1FBB1FEE1FFF1FA217C1
:1057C000B307E407F50720F0A21BB30BE40BF50BBE
:1057D000661F771F881F991F1A9469F76095709547
:1057E000809590959B01AC01BD01CF010895EE0F0E
:1057F000FF1F0590F491E02D0994002E083090F0E1
:10580000982F872F762F652F542F432F322F222743
:105810000850F4CF220F331F441F551F661F771FF8
:10582000881F991F0A95B2F7002D08952A153B0588
:105830004C055D056E057F05800791070895FB0106
:10584000DC0102C005900D9241505040D8F70895F8
:10585000FB01DC0104C08D910190801921F44150BD
:105860005040C8F7881B990B0895FB01DC0102C06A
:1058700001900D9241505040D8F70895AEE0B0E04D
:10588000E4E4FCE20C94A02B0D891E898F89988D8D
:1058900026E02C831A83098397FF02C080E090E8FA
:1058A00001979E838D83AE01455E5F4F698D7A8D32
:1058B000CE0101960E946E2C4D815E8157FD0AC07B
:1058C0002F813885421753070CF49A01020F131FDA
:1058D000F80110822E96E4E00C94BC2BABE0B0E013
:1058E000E4E7FCE20C94922B7C013B018A01FC0171
:1058F00017821682838181FFB9C19AE0292ECE01D9
:1059000001965C01F7019381F30193FD859193FF6B
:1059100081913F01882309F446C1853239F493FD12
:10592000859193FF81913F01853229F4B70190E081
:105930000E944F2EE7CF912C412C512CFFE1F51501
:1059400038F08B3209F188F4803201F1833221F191
:1059500057FC3AC020ED280F2A3040F556FE1FC0F4
:10596000929C200D1124922E06C08D3291F080332E
:1059700079F7689450F8F30193FD859193FF819135
:105980003F018111DBCF20C0689451F8689452F830
:10599000F2CF689453F8EFCF689454F8ECCF429C60
:1059A000200D1124422E689455F8E5CF8E3229F44B
:1059B00056FCF9C0689456F8DECF8C3619F468941A
:1059C00057F8D9CF8836B9F2982F9F7D95549330E8
:1059D000C0F08336A1F18337C1F1833509F05BC094
:1059E000F801C190D1908F01692D70E056FC02C082
:1059F0006FEF7FEFC6010E94392E4C01689457F873
:105A00000AC00C5F1F4F2FE3298388248394912CB5
:105A10006501E89457F853FC04C04814190409F0D0
:105A200018F5342C8114910431F5332009F46ACF30
:105A3000B70180E290E00E944F2E3A94F6CFF80131
:105A4000808189830E5F1F4FE0CFF801C190D19014
:105A50008F01692D70E056FC02C06FEF7FEFC60129
:105A60000E94442E4C01D5CFB70180E290E00E9405
:105A70004F2E4A94D2CFF60157FC859157FE819163
:105A80006F01B70190E00E944F2E31103A94F1E07F
:105A90008F1A9108C7CF843619F0893609F074C07F
:105AA000F80157FE6AC061917191819191918F01C6
:105AB000252D2F76D22E97FF09C090958095709551
:105AC00061957F4F8F4F9F4F6894D7F82AE030E061
:105AD000A5010E947F2EC82ECA188C2C5D2CD6FEE4
