:100000000C9485060C94A2060C94A2060C94CA2AA1
:100010000C94A2060C94A2060C94A2060C94A206C0
:100020000C94A2060C94A2060C9452110C946B151D
:100030000C94D4240C94A2060C94A2060C94A20650
:100040000C94A2060C94A2060C94A2060C94A20690
:100050000C94A2060C942B120C94A2060C94A206EB
:100060000C94A2060C94A2060C94A2060C94A20670
:100070000C94A2060C94A2060C94A2060C94A20660
:100080000C94A2060C94A2060C94A2060C94A20650
:100090000C94A2060C94A2060C94A2060C94A20640
:1000A0000C94A2060C94A2060C94A2060000000078
:1000B0000000000000000000000000000000000040
:1000C0000000000000000000000000000000000030
:1000D0007E0F00D4FFFFFFC7000000780000000083
:1000E000000000002A2B2800000000000000000093
:1000F0000000000000000029000000002C1E342039
:10010000212224342627252E362D3738271E1F205E
:100110002122232425263333362E37381F040506A3
:100120000708090A0B0C0D0E0F10111213141516E7
:100130001718191A1B1C1D2F3130232D35040506E5
:100140000708090A0B0C0D0E0F10111213141516C7
:100150001718191A1B1C1D2F3130354C2B00140099
:100160001A00090013000A00294604281524162243
:10017000172107002A521D001B0006001900050068
:10018000000000000000000024522C004C00407EC3
:100190001C0018000F000D00284712280C240832FC
:1001A00011210B00390038003700360010000E0016
:1001B000000000000000000023522A00010014008B
:1001C0001A00080015001700010004281624072251
:1001D00009210A0001001D001B000600190005008E
:1001E000000000000000010001000100010001000A
:1001F00012000C0018001C00010013280F240E32FE
:100200000D210B00010038003700360010001100EE
:100210000000000000000100010001002B0014009C
:100220001A00080015001700290004001600070036
:1002300009000A00E1001D001B000600190005006E
:100240000000000000006252010001004C00E600C6
:1002500012000C0018001C00280013000F000E00F4
:100260000D000B0039003800370036001000110077
:100270000000000000000100010001000100420038
:10028000430044004500010001003E003F004000E3
:100290004100010001003A003B003C003D0001002C
:1002A00000000000000001000100010001002B0817
:1002B0002B041901417E01000100E300E200E1008E
:1002C000E000010001000100010001000100010047
:1002D00000000000000001000100010001002F00EB
:1002E00030002602270224020100340033002E00D1
:1002F0002D0020020100372836242522222101006A
:1003000000000000000001000100010001002600C3
:10031000250024001E0225020100230022002100E6
:1003200021022302280020001F001E0001000100FE
:1003300000000000000027000100010000006B52D7
:1003400000000000625200000000000000000000F9
:10035000000000000000000000000000000000009D
:10036000000000000000010001000100000000008A
:100370000000147C137C000000000000127C107C44
:10038000117C0000000000000000000000000000E0
:100390000000000000000100010001000100280031
:1003A0004A0052004D0001000100010050005100C0
:1003B0004F000100010001000100010001000100E7
:1003C0000000000000000100010001000100010028
:1003D00001000100010001000100E300E200E10072
:1003E000E000010001000100010001000100010026
:1003F000000000000000010001000100010069523E
:10040000D400CD00D500010001000100CF00CE00D6
:10041000D0000100010001000100DD00DF0001004B
:1004200000000000000001000100D10001000100F7
:10043000010001000100010001000100DC00D90001
:10044000DA00DB00010001000100DD00DF00010037
:1004500000000000000001000100D200010069520C
:10046000D400CD00D500010001000100CF00CE0076
:10047000D0000100010001000100DD00DF000100EB
:1004800000000000000001000100D1000100010097
:10049000010001000100010001000100DC00D900A1
:1004A000DA00DB00010001000100DD00DF000100D7
:1004B00000000000000001000100D20001006952AC
:1004C000D400CD00D500010001000100CF00CE0016
:1004D000D0000100010001000100DD00DF0001008B
:1004E00000000000000001000100D1000100010037
:1004F000010001000100010001000100DC00D90041
:10050000DA00DB00010001000100DD00DF00010076
:1005100000000000000001000100D2000100010005
:10052000AE00A900A800010001000100AC00AA0073
:10053000AB00010001000100010001000100010009
:1005400000000000000001000100010001000100A6
:100550000100010001000100010001000100010093
:100560000100010001000100010001000100010083
:1005700000000000000001000100010000002478DC
:100580002378287827780000000001002178267859
:1005900025780000000000000000000000000000BE
:1005A0000000000000006B5201000100000000008C
:1005B000000000000000000000000000000000003B
:1005C000000000000000000000000000000000002B
:1005D00000000000000001000100010000DA0281BB
:1005E000FFD9F1DB20A4A62EAF00A0C000A1C80057
:1005F000AED580A81FD300408D14200041646A75D9
:100600007374005261697365004C6F7765720044C2
:10061000656661756C74004C617965723A20008082
:100620008182838485868788898A8B8C8D8E8F9042
:1006300091929394A0A1A2A3A4A5A6A7A8A9AAABAE
:10064000ACADAEAFB0B1B2B3B4C0C1C2C3C4C5C625
:10065000C7C8C9CACBCCCDCECFD0D1D2D3D400005D
:10066000AF00AE05010902A10185020901A1000543
:100670000919012908150025019508750181020550
:1006800001093009311581257F9502750881060918
:10069000381581257F950175088106050C0A3802F9
:1006A0001581257F950175088106C0C00501098067
:1006B000A101850319012AB700150126B70095018C
:1006C00075108100C0050C0901A101850419012ADA
:1006D000A002150126A002950175108100C0050138
:1006E0000906A1018506050719E029E7150025017E
:1006F0009508750181020507190029EF15002501EC
:1007000095F0750181020508190129059505750106
:100710009102950175039101C005010906A101052A
:100720000719E029E7150025019508750181029553
:1007300001750881010507190029FF150026FF0032
:1007400095067508810005081901290595057501AB
:100750009102950175039101C009023B000201005D
:10076000A0FA0904000001030101000921110100A0
:10077000012240000705810308000109040100016E
:100780000300000009211101000122B600070582C3
:10079000032000011201000200000008534601007E
:1007A0000100010200010C0343006F0072006E00A3
:1007B00065000000100366006F006F007300740096
:1007C00061006E0000000403090400000000000046
:1007D0003E5B4F5B3E003E6B4F6B3E001C3E7C3EE3
:1007E0001C00183C7E3C18001C577D571C001C5EEA
:1007F0007F5E1C0000183C180000FFE7C3E7FF0005
:10080000001824180000FFE7DBE7FF0030483A0635
:100810000E00262979292600407F05050700407F24
:1008200005253F005A3CE73C5A007F3E1C1C08004F
:10083000081C1C3E7F0014227F2214005F5F005FB3
:100840005F0006097F017F00006689956A0060608D
:100850006060600094A2FFA2940008047E04080077
:1008600010207E20100008082A1C0800081C2A08F6
:1008700008001E10101010000C1E0C1E0C0030384A
:100880003E383000060E3E0E06000000000000005C
:1008900000005F000000000700070000147F147FC5
:1008A0001400242A7F2A12002313086462003649A8
:1008B00056205000000807030000001C22410000E1
:1008C0000041221C00002A1C7F1C2A0008083E0848
:1008D00008000080703000000808080808000000C8
:1008E000606000002010080402003E5149453E00AF
:1008F00000427F4000007249494946002141494D6C
:1009000033001814127F10002745454539003C4A32
:10091000494931004121110907003649494936004A
:10092000464949291E000000140000000040340020
:100930000000000814224100141414141400004193
:10094000221408000201590906003E415D594E007B
:100950007C1211127C007F49494936003E414141D9
:1009600022007F4141413E007F49494941007F09C2
:10097000090901003E41415173007F0808087F00CA
:1009800000417F4100002040413F01007F081422C8
:1009900041007F40404040007F021C027F007F04F6
:1009A00008107F003E4141413E007F0909090600D1
:1009B0003E4151215E007F091929460026494949D7
:1009C000320003017F0103003F4040403F001F20F1
:1009D00040201F003F4038403F006314081463006C
:1009E0000304780403006159494D4300007F4141ED
:1009F0004100020408102000004141417F00040230
:100A0000010204004040404040000003070800008D
:100A10002054547840007F284444380038444444EB
:100A20002800384444287F003854545418000008E3
:100A30007E0902001824241C78007F080404780032
:100A400000447D4000002040403D00007F102844CD
:100A5000000000417F4000007C04780478007C089E
:100A6000040478003844444438007C1824241800D6
:100A7000182424187C007C080404080048545454AA
:100A8000240004043F4424003C4040207C001C20FF
:100A900040201C003C4030403C00442810284400CA
:100AA0004C9090907C004464544C440000083641C3
:100AB000000000007700000000413608000002013D
:100AC000020402003C2623263C0000000000000037
:100AD00000000000000000000000C0E0F0F8F8187E
:100AE00000C0F0FCFEFFFFFFFFFFFFFF7E000000E5
:100AF00000000000000080C0E0E0E0E0E0E0E0E0B6
:100B0000C0800000000080C0E0E0E0E0E0E0E0E065
:100B1000C080000000E0E0C0C0E0E0E0E00000E0F5
:100B2000E0C0C0E0E0E0E0E0C0800000000080C085
:100B3000E0E0E0E0E0E0E0E0C08000000000000075
:100B40000000000000000000E0F0F0F0E0ECEEF744
:100B5000F37020007C7C7C7E007E7E7E7F7F7F0029
:100B60000080C0E07E5B4F5BFEC00000C000DCD7B1
:100B7000DEDEDED7DC00C000000000000000000068
:100B80000000000000000000000000000000000065
:100B9000000000F8FCFEFFE000FFFFFFFFFFFF800A
:100BA000FFFFFFFFFFFFFFFFFF1F07010000000027
:100BB0000000000000FFFFFF810000000000008136
:100BC000C3C3C30000FFFFFF8100000000000081DD
:100BD000FFFFFF0000FFFFFF01000000000000FF1B
:100BE000FFFF010000000001FFFFFF0000FFFFFF0B
:100BF0009D1C1C1C1C1C1C9DDFDFDF000000000076
:100C000000000000000000000F1F3F7F7F7F7F7FFC
:100C10003F1E0C001F1F1F3F003F3F3F7F7F7F0095
:100C2000307B7F7830202030787F3B0003000F7FBF
:100C30000F0F0F7F0F0003000000000000000000F6
:100C400000000000000000000000000000000000A4
:100C5000000000030F1F3F3F3F3F1F1F3F3F7F7FAD
:100C60007F3F3F1F3F7F7F7F7F7C7878381C0F005E
:100C70000000000000000103070707070707070738
:100C80000301000000000103070707070707070724
:100C90000301000000070707000000000000000734
:100CA000070700000000000007070700000001031D
:100CB00007070707070707070301000000000000F8
:100CC0000000000000000000000000000000000024
:100CD0000000000000000000000000000000000014
:100CE0000000000000000000000000000000000004
:100CF00000000000000000000000000000000000F4
:100D00000000000000000000000011241FBECFEF13
:100D1000DAE0DEBFCDBF11E0A0E0B1E0EAE6FFE53A
:100D200002C005900D92A83EB107D9F725E0A8EEC4
:100D3000B1E001C01D92AE38B207E1F70E94FB247A
:100D40000C94652F0C9400009C0180912C019091D3
:100D50002D01A901465351094330510510F48896DD
:100D600008952430310568F02E31310548F02832DD
:100D7000310538F49C01220F331F820F931F089511
:100D8000C2960895FC01AC014C5F5F4F8FEF91E379
:100D90002191822728E030E087FF09C0880F89274A
:100DA00021503109C9F7E417F50791F70895880F25
:100DB000F7CFE8EDF0E080818E7F80831092E20033
:100DC0001092DA001092E100A0EEB0E08C91816008
:100DD0008C9380818F77808319BCA7EDB0E08C91D4
:100DE0008E7F8C9380818F7E808310925303089531
:100DF0002091E4003091E50095E6A9012091EC00F6
:100E0000822F817020FF06C08091E80080FF06C01D
:100E100080E008952091E80022FD1AC080917803B7
:100E2000882389F0853089F08091EB0085FD0FC023
:100E30002091E4003091E50042175307F9F29150F8
:100E4000E1F684E0089582E0089583E0089581E06A
:100E5000089580917A0387FF13C08091E80082FF94
:100E600006C08091E8008B778093E80004C08091F1
:100E700078038111F2CF0895809178038823D9F304
:100E80008091E80080FFF8CF8091E8008E77ECCF6A
:100E9000982F9093E900242F762F50E0891731F096
:100EA0007091EC002091ED005091F00021FD07C001
:100EB0009F5F973071F78093E90081E0089530914A
:100EC000EB003E7F3093EB003091ED003D7F30939F
:100ED000ED003091EB0031603093EB007093EC004B
:100EE0002093ED005093F0002091EE0027FDE0CF1D
:100EF00080E00895B0E0A0E0E0E8F7E00C94042C76
:100F0000C8EDD0E088818F7E8883E7EDF0E08081B6
:100F10008160808384E082BF81E080935303888175
:100F20008E7F888302EE10E0F80110821092DA00C2
:100F300081EEC82ED12CF601108288818F778883AC
:100F400088818068888388818F7D888319BC10920E
:100F5000780310927903109277031092760390EE43
:100F6000E92EF12CF70180818B7F8083888181605D
:100F7000888342E060E080E00E944807F6018081BB
:100F80008E7F8083F801808181608083808188608A
:100F90008083F70180818E7F808388818061888350
:100FA000CDB7DEB7E8E00C94202CFC0180918003E3
:100FB0009091810386179707A0F06115710529F4B8
:100FC0009091E8009E779093E80090E0611571059C
:100FD00051F4911108C08091E80082FF34C080E094
:100FE0000895BC01F2CF809178038823C1F1853048
:100FF000C1F18091E80083FD30C08091E80082FD5E
:10100000EACF8091E80080FFE1CF8091F30020914A
:10101000F200382F6115710519F02830310558F0AC
:1010200091E02830310509F090E02091E8002E771A
:101030002093E800CBCF81918093F100615071093A
:101040002F5F3F4FE7CF80917803882341F08530B1
:1010500041F08091E80083FFBECF81E0089582E0F7
:10106000089583E0089580915503089587E797E7F1
:10107000909301088093000888E19AE00FB6F894F5
:10108000A895809360000FBE90936000FFCF2FB7AC
:10109000F89460914D0370914E0380914F039091AD
:1010A00050032FBF089520912B012223C9F02091D6
:1010B000510327FF15C0E62FE695E695E695EE313C
:1010C000D8F4E80FF92FF11D677021E030E001C07E
:1010D000220F6A95EAF720958281282322830895BA
:1010E000FC01329608962191621303C0DF0111972B
:1010F0001C92E817F907B9F7089520912B012223D4
:10110000C1F02091510327FF14C0E62FE695E69524
:10111000E695EE31F8F4E80FF92FF11D677021E044
:1011200030E001C0220F6A95EAF78281822B828328
:101130000895FC0132962FEF30E04191641751F091
:101140002F3F19F4411101C0232F3F5F3630A9F71B
:101150002F3F09F40895820F911D27FD9A95FC01F8
:1011600062830895A3E0B0E0E8EBF8E00C940A2C69
:1011700020914A0330914B0328173907A1F090932F
:101180004B0380934A03E0914803F0914903309761
:1011900051F024E029839B838A830680F781E02D28
:1011A000CE01019609952396E2E00C94262CA3E04B
:1011B000B0E0EDEDF8E00C940A2C2091460330915C
:1011C000470328173907A1F09093470380934603FC
:1011D000E0914803F0914903309751F023E02983CF
:1011E0009B838A830680F781E02DCE0101960995C5
:1011F0002396E2E00C94262C80910D0390E0880F5A
:10120000991FFC01E052FE4F208188529E4FFC0145
:10121000808190911403191614F420931403909173
:10122000140397FF04C0922F91959093140390910B
:101230001503191614F4209315039091150397FFC5
:1012400003C021952093150390911703191614F4E8
:10125000809317039091170397FF04C0982F9195DF
:101260009093170390911603191614F480931603A4
:101270009091160397FF03C08195809316033091D8
:1012800014033323A1F020911503222381F045EBB1
:101290003403C00111249923F1F09093140345EB1A
:1012A0002403900111243323D1F03093150340918E
:1012B0001703442379F030911603332359F025EBBB
:1012C0004203A0011124509317033203900111240B
:1012D00030931603089581E080931403E0CF81E0FA
:1012E00080931503E4CF80E00895F894E82FE29509
:1012F000EF70F0E031A1282F2F7081E090E001C065
:10130000880F2A95EAF7982F9095932391A392A19D
:10131000892B82A3789408959091510392FF06C07F
:10132000282F28712830F9F4877F846093FF06C046
:10133000282F28712831F1F4877E8461209152038F
:1013400020FF06C0382F38713830D9F4877F81608C
:1013500021FF06C0282F28712831D1F4877E8161B2
:1013600094FD877E0895282F24712430F9F68B7F11
:101370008860DCCF282F2471243101F78B7E8861AF
:10138000DDCF382F3171313019F78E7F8860E0CF93
:10139000282F2171213121F78E7E8861E1CF82389B
:1013A0009105B9F1B0F48133910509F47DC048F499
:1013B0008932910509F46DC08A32910509F47BC028
:1013C00008958533910509F45FC08933910509F1CA
:1013D0000895833E9105D9F138F4803E910529F1B5
:1013E000823E910579F10895863E9105D9F1873EB7
:1013F000910509F43EC0843E910541F520915203C8
:1014000021FF24C08091510384FD19C087EE90E034
:10141000089520915103237009F05AC0209152037E
:1014200023FF14C089E290E008952091510320FD2C
:1014300038C03091520330FF09C024FF43C090E010
:1014400080E008952091510322FDF7CF0895209167
:10145000510322FD3AC03091520330FD39C024FFC0
:10146000F5CFEDCF2091510323FFF0CF24FDE7CF3F
:10147000CDCF2091510323FD2EC03091520331FF77
:10148000EECF84EE90E008952091510325FFDECF4A
:10149000C9CF2091510325FD21C02091520323FF84
:1014A000D5CF89E390E0D2CF2091510326FFCECF54
:1014B0008AE290E008952091510326FFC7CF81E38F
:1014C00090E0089583EE90E0089582EE90E0089514
:1014D00080EE90E0089586EE90E0089585E390E038
:1014E0000895972F7830B8F46630A8F48C30B0F4B3
:1014F00070E026E0929F600D711D1124FB0190E3C6
:10150000899FE00DF11D1124EE0FFF1FE45AFE4FDD
:1015100085919491089580E090E0089581E0FCCF5A
:101520001F93CF93DF930E94CF09EC01C11580E593
:10153000D807F0F5C11580E4D80708F09CC0C03E7C
:10154000D10520F5CD3CD10508F082C0C83AD105BF
:1015500078F4C53AD10508F073C0C130D10519F14E
:10156000209709F1C430D105F0F4D0E0C0E01BC0F1
:10157000C33CD105D0F7C85AD0E0CC0FDD1FC2580C
:10158000DE4F0990D881C02DD4640DC0C11580E212
:10159000D80708F0D1C0C11581E0D80708F05AC0BB
:1015A000C83ED10510F7CE01DF91CF911F9108956C
:1015B000C03682E5D80718F5C03482E5D80708F0B0
:1015C0006BC0C03282E5D80708F05FC0C11582E564
:1015D000D80708F497C02C2F2695269580E2289FDF
:1015E000900111248C2F8370C1E0D0E002C0CC0F99
:1015F000DD1F8A95E2F7C22BD32BDD68D4CFC03A2A
:1016000082E5D80760F4C03882E5D80708F459C0ED
:10161000CF71D0E0DC2FCC27C46FD06AC4CFC03CE0
:1016200082E5D80708F462C0C03E82E5D80708F01A
:101630009CCFDC2FCC27CC27DF71C06FD06AB3CF13
:10164000C55AD0E0C558DE4FC881D0E0D064ABCFDA
:10165000D065A9CF8D2F0E948C09182FCE01992714
:101660000E94CF09C12FD0E0DC2FCC27CC27DF711F
:10167000C82BD92B98CFCE0199270E94CF09CC2710
:10168000DF70C82BD92BD06A8ECFCF71D0E0DC2F82
:10169000CC27C16FD06A87CF2C2F2695269527702F
:1016A00080E2289F900111248C2F8370C1E0D0E04C
:1016B00002C0CC0FDD1F8A95E2F7C22BD32BDC686A
:1016C00072CF2C2F26952695277080E2289F9001B7
:1016D00011248C2F8370C1E0D0E002C0CC0FDD1F3D
:1016E0008A95E2F7C22BD32BDA685DCF8C2F8F71EE
:1016F0000E948C09C82FD0E0DC2FCC27CC27DF71CB
:10170000D06251CF8C2F8F710E948C0955E0D695F5
:10171000C7955A95E1F7CF70D0E0DC2FCC27282F62
:1017200030E084FF05C044E0220F331F4A95E1F703
:10173000C22BD32BD06937CF8D2F8F710E948C098C
:10174000182FCE0199270E94CF09C12FD0E0DC2F9E
:10175000CC27CC27DF71C82BD92BD2CF8091830225
:1017600081111092830208959091520392FF05C057
:1017700090918302981380938302089580959091AD
:101780001E03982390931E03089520916102909167
:10179000300256E0291302C080E0089530E0529FE5
:1017A000F001539FF00D1124EF5CFD4F7181761312
:1017B00006C07081781303C07281741304C02F5F58
:1017C0003F4F2770E7CF81E00895452B41F0682314
:1017D00081E06F3F09F080E080958170089581E09D
:1017E000FBCF8091610290913002981301C008955F
:1017F0008F5F8770FACFB0E0A0E0E1E0FCE00C94EE
:10180000032C7C010091CE021091CF028091B50291
:101810009091B602082B192BCFE0D0E0CC24C394D2
:10182000D12CBC2EC6010C2E02C0880F991F0A9421
:10183000E2F780239123892B49F4219790F7B12C6B
:101840008B2DCDB7DEB7E9E00C941F2CB7018C2FA0
:101850000E94710A0E94900A019779F3F1CFCF9309
:10186000DF93EC010E94FB0BBE010E94710A0E94F3
:10187000900ADF91CF910895983078F5863068F519
:10188000E82FF0E086E0989FE00DF11D11249E2FD7
:10189000977083E0F695E7958A95E1F7EE0FFF1FC5
:1018A000EE0FFF1FEE5EFD4F50E040E080E0219123
:1018B00030E0092E02C0369527950A94E2F7217090
:1018C0003327042E01C0220F0A94EAF7822B4F5FC0
:1018D0005F4F4430510559F7089580E008959830DE
:1018E00098F5863088F5E82FF0E086E0989FE00DC7
:1018F000F11D11248E2F877041E001C0440F8A959D
:10190000EAF783E0F695E7958A95E1F7EE0FFF1F7A
:10191000EE0FFF1FEE5EFD4F30E020E070E05191D2
:10192000DF011197CB01022E02C0969587950A948C
:10193000E2F7817081958527842385278C932F5F1B
:101940003F4F2430310559F708959093B6028093A4
:10195000B5020895FC0183819481892B29F080814F
:10196000918189238F3F51F480E00895843FE1F70E
:1019700017C0883EA8F0813FB9F712C080819181DD
:101980000E942F0C92959F70963099F358F4925FB5
:101990009F70923048F7803F19F040F7883E20F75B
:1019A00081E008959A5FF4CFA5E0B0E0EAEDFCE0B5
:1019B0000C94092C25E0FC01DE01119601900D929A
:1019C0002A95E1F7FC01228189819A81222399F0ED
:1019D000662389F00E94FB0B182F682F89819A815A
:1019E0000E946F0C69817A81812F0E94710A25966D
:1019F000E3E00C94252C0E943C0C182FF3CF9C01A3
:101A00003A9521153F4150F5FC01EE27F170BC01DC
:101A100066277270AC01442754709C0122273870ED
:101A200094FF0EC080E1EF2B09F480E0672B09F0F2
:101A30008062452B09F08064232B89F0806808952B
:101A400081E0EF2B09F480E0672B09F08260452BE1
:101A500009F08460232B19F08860089580E00895D0
:101A60009C01287133272831310549F480629C019B
:101A7000207C3327203C310521F4916008958F7D2F
:101A8000F6CF9E7F08950E94300D9093CF028093F1
:101A9000CE02089521E030E002C0220F331F8A9564
:101AA000E2F7209530958091CE029091CF0282236B
:101AB00093230E94430D089590916202809589239B
:101AC00080936202282F277091F4282F082E000C93
:101AD000330B9217130659F09091520392FF07C0EF
:101AE0008595859585950E944A0D1092620208950C
:101AF00021E030E002C0220F331F8A95E2F7809187
:101B0000CE029091CF02822B932B0E94430D089519
:101B1000CF93DF93682F81E06A3019F06D3031F494
:101B200080E00E94160EDF91CF91089580918C0580
:101B300090918D0526E0FC01A6E8B5E001900D929C
:101B40002A95E1F7603E08F458C026E0FC011192A6
:101B50002A95E9F7C0918C05D0918D0546E050E0BB
:101B6000BE0186E895E00E946E2C9E012658334007
:101B7000892B41F1C90145E0969587954A95E1F792
:101B800041E050E0BA0102C0660F771F8A95E2F784
:101B9000CB016091840370918503862B972BB9014B
:101BA0006B5F7F4FE5E076956795EA95E1F702C0B8
:101BB000440F551F6A95E2F7842B952B909385036C
:101BC000809384032A5F3F4F40918303642F70E02A
:101BD000C9010E94E62B481B463010F4240F311D2A
:101BE000211572E0370710F030E020E02A573C4F13
:101BF00030938D0520938C0596CFF6E06F9FB00152
:101C000011246653784F46E050E00E94652CA2CF25
:101C1000CF93DF93EC01FE018491811103C0DF912A
:101C2000CF9108950E94880D2196F5CFCF93382F3C
:101C3000E0918C05F0918D05E658F34020918303E7
:101C4000622F70E0CF010E94E62B281B822F3323E6
:101C500061F066E00E94312CC82FC15010F4CF9182
:101C6000089580E20E94880DF8CF9F01280F311D52
:101C70002115324018F080E0F0E0E0E08E0F9F2F59
:101C8000911D8A579C4F90938D0580938C05E7CFCB
:101C900080911E0390918203892B8093EA01909199
:101CA00083029923A1F0892B8093EA0180912B0173
:101CB0008823E1F18091510387FF38C08EE1ECEE7B
:101CC000F1E090E08150A0F591110E94AE0B40E24E
:101CD00050E063E672E08AEE91E00E946E2C892B60
:101CE00021F180E2EAEEF1E0A3E6B2E001900D928C
:101CF0008A95E1F7E0914803F09149033097A9F004
:101D000080912B01882359F08091510387FF07C0F0
:101D10008091EA018093EB0186E08093EA010280E2
:101D2000F381E02D8AEE91E00995089586E0C7CF12
:101D30002191222339F29F5FC5CF80912A01877FAD
:101D400080932A01909182039D7F9093820384FF68
:101D500008C08F7E80932A0180911E038260809349
:101D60001E0380912A0185FF08C08F7D80932A0180
:101D700080911E03806280931E030E94480E089586
:101D8000882341F080959091820389238093820378
:101D90000E94480E0895882339F090918203982B71
:101DA000909382030E94480E0895882321F00E9498
:101DB000BE0B0E94480E0895882339F090911E03AF
:101DC000982B90931E030E94480E0895B0E0A0E067
:101DD000ECEEFEE00C94042C6C017B0164E670E0F8
:101DE00088E70E944429EC0197FD12C010E000E052
:101DF000F601E00FF11F849164E670E00E94B029C3
:101E0000EC01892B29F40F5F1F4F0E151F0581F779
:101E10000E94262ACE01CDB7DEB7E8E00C94202C34
:101E200080911C0390911D03911103C091E08927BB
:101E30000895882369F062E070E081E696E00E94F0
:101E4000E60E892B19F080911C03089510921C0353
:101E500080911C03EBCFCF93C0911C0380911D0395
:101E60008823D1F00E944708605A75418F4F9F4FD9
:101E7000609318037093190380931A0390931B03C4
:101E8000C11108C062E070E08FE596E00E94E60EA6
:101E9000892B29F0C0911C038C2FCF91089581E0EC
:101EA00080931C03F7CF0F931F93CF93DF938B0186
:101EB000EA0190917803943061F58093E9008FEF07
:101EC0009091E800815095FD06C095ED9A95F1F747
:101ED00000008111F5CF8091E80085FF1AC00E94B3
:101EE000F806811111C08091E80085FD06C080913F
:101EF000E8008E778093E800F2CFF80181918F019E
:101F00008093F100219779F78091E8008E77809394
:101F1000E800DF91CF911F910F91089543E050E0C9
:101F2000BC0182E00E94530F089546E050E0BC01DE
:101F300082E00E94530F0895CF93DF93EC018091CC
:101F40002B01811111C048E050E0BE0181E00E94E8
:101F5000530F80E2FE01A6E5B3E001900D928A9551
:101F6000E1F7DF91CF9108958091510387FF05C07C
:101F700040E282E050E0BE01EACF48E081E0FACFE3
:101F8000B0E0A0E0E6ECFFE00C94022C7C015B01E9
:101F90006A018091A60201E010E08A3010F40AE0A4
:101FA00010E0C1E0D0E0B501C701F601099581114B
:101FB00004C021960C171D072CF4CDB7DEB7EAE05C
:101FC0000C941E2CCC9F9001CD9F300D300D112410
:101FD00090E080E045E34A95F1F700000196821712
:101FE0009307C1F7E0CF80919002811119C088EC6E
:101FF00090E02091E30027FD10C0EFE3FCE931976A
:10200000F1F700C000000197A1F782E080939002F1
:102010000E94D9061092780303C081E08093900259
:1020200081E090919002913011F080E00895089540
:102030000E94F30F882359F0E0914803F09149037F
:10204000309729F00190F081E02D0995089580E006
:1020500008959091520392FB222720F9281779F0D6
:1020600080FB92F990935203609151037091520357
:1020700084E090E00E944F2F82E00E945C0D089562
:10208000A4E0B0E0E6E4F0E10C94082C4091A20258
:102090005091A3026091A4027091A5022FB7F89409
:1020A00080914D0390914E03A0914F03B091500346
:1020B0002FBF841B950BA60BB70B11E0843691053F
:1020C000A105B10590F10E94F30F882399F10E94B8
:1020D00047086E5F7F4F8F4F9F4F69837A838B8353
:1020E0009C83809113019091140187569D4F4091DC
:1020F000120150E04530510510F044E050E0BE01BF
:102100006F5F7F4F0E947B2C82E090E00E94702BDB
:10211000182F882351F00E9447086093A202709301
:10212000A3028093A4029093A502812F2496E4E059
:102130000C94242C0E9447080091A7021091A80239
:102140002091A9023091AA02600F711F821F931F74
:10215000C0CFEF92FF921F93CF93DF9300D000D0B8
:102160000F92CDB7DEB77B0190E080E00E94702B2C
:10217000182F882309F487C04091050150E04115CC
:10218000510511F041E050E06091060170910701A6
:1021900067567D4FCE0105960E947B2C409195029B
:1021A0005091960260919702709198022FB7F8941F
:1021B00080914D0390914E03A0914F03B091500335
:1021C0002FBF841B950BA60BB70B84369105A10579
:1021D000B10540F48AE992E00E94C2069D81891708
:1021E00009F451C081E090E00E94702B81111AC067
:1021F00010E08091910290919202A0919302B0918F
:102200009402F70180839183A283B383812F0F907F
:102210000F900F900F900F90DF91CF911F91FF9033
:10222000EF90089540910D0150E04530510510F0B8
:1022300044E050E060910E0170910F0167567D4FB0
:10224000CE0101960E947B2C8AE992E00E94C20690
:102250009D818913CDCF0E944708609395027093AA
:102260009602809397029093980289819A81AB811C
:10227000BC818093910290939202A0939302B093B9
:10228000940211E0B6CF80919A0290919B02A091A6
:102290009C02B0919D0289839A83AB83BC83111108
:1022A000E4CFA7CF1F920F920FB60F9211242F9356
:1022B0003F934F935F936F937F938F939F93AF93CE
:1022C000BF93EF93FF938091E10082FF09C080915B
:1022D000E20082FF05C08091E1008B7F8093E100E6
:1022E0008091DA0080FF24C08091D80080FF20C058
:1022F0008091DA008E7F8093DA008091D90080FF90
:102300009DC080E189BD82E189BD09B400FEFDCF99
:1023100081E08093780380915303811109C00E946A
:10232000D9060E947A078091E20084608093E200DF
:102330008091E10080FF17C08091E20080FF13C010
:102340008091E2008E7F8093E2008091E2008061C4
:102350008093E2008091D80080628093D80019BCFD
:1023600085E0809378038091E10084FF2BC0809109
:10237000E20084FF27C080E189BD82E189BD89B583
:10238000982F917080FFFBCF8091D8008F7D809334
:10239000D8008091E1008F7E8093E1008091E2007F
:1023A0008F7E8093E2008091E20081608093E20062
:1023B00080917903882309F447C084E080937803EF
:1023C000809178038091E10083FF27C08091E20033
:1023D00083FF23C08091E100877F8093E10082E04A
:1023E00080937803109279038091E1008E7F80932F
:1023F000E1008091E2008E7F8093E2008091E20014
:1024000080618093E20042E060E080E00E94480743
:102410008091F00088608093F000FF91EF91BF9170
:10242000AF919F918F917F916F915F914F913F916C
:102430002F910F900FBE0F901F90189519BC1092FE
:1024400078031092530374CF8091E30087FD93E0EB
:1024500090937803B5CF78941F921FB61F921124E2
:102460008F939F93AF93BF9380914D0390914E03B1
:10247000A0914F03B09150030196A11DB11D80930F
:102480004D0390934E03A0934F03B0935003BF911D
:10249000AF919F918F911F901FBE1F9018959C0127
:1024A0004FB7F89480914D0390914E03A0914F0344
:1024B000B09150034FBF821B930B08952FB7F89430
:1024C00080914D0390914E03A0914F03B091500322
:1024D0002FBF08950E945E129C0190911403809179
:1024E0001503982B21F03093110320931003909142
:1024F000160380911703982B21F030930F0320933C
:102500000E03E0914803F0914903309749F082E0CF
:10251000809312030480F581E02D82E193E0099518
:10252000089510921E0380912B01ECEEF1E08823B8
:10253000F9F08091510387FF1BC08EE1DF011D92EE
:102540008A95E9F790E080E00E94D70890E080E06B
:102550000E94B208109282030E94480E86E0E2E1D7
:10256000F3E0DF011D928A95E9F70E946A1208954F
:1025700086E0E4CFAAE2B0E0E0ECF2E10C94092CB2
:102580008AE793E02091F100FC012193CF01F3E071
:1025900082389F07B9F780917B03833009F470C0BC
:1025A000B8F4813009F447C0823009F4B1C0809199
:1025B000E80083FF7EC280917A0390917B039A307A
:1025C00008F077C2E92FF0E0E959F04D0C945F2C48
:1025D0008A3009F48CC08B3009F46FC0893039F728
:1025E00080917A03813219F780917E0390917F0365
:1025F0000297E8F68091E800877F8093E800809159
:10260000E80082FF38C09091F3008091F2000297B9
:1026100031F48091F100813011F0863021F4809105
:10262000F100809355038091E8008B778093E80058
:102630000E942907BCCF80917A03813A09F0B7CF75
:102640008091E800877F8093E80080917E039091DD
:102650007F03892B61F460E286E593E070E00E94DD
:10266000D5078091E8008B778093E800A0CF60E0E9
:1026700090E080E0F3CF809178038111C0CF97CFB5
:1026800080917A03813A09F092CF80917E039091F4
:102690007F03892B09F08BCF8091E800877F80939F
:1026A000E8008091E80080FFFCCF80912B018093AF
:1026B000F1008091E8008E77B9CF80917A03813262
:1026C00009F075CF80917E0390917F03892B09F0EB
:1026D0006ECF8091E800877F8093E8000E942907F1
:1026E00080917C0380932B010E94911260CF809196
:1026F0007A03813209F05BCF8091E800877F809375
:10270000E8000E94290780917D03809354034FCFF6
:1027100080917A03813A09F04ACF8091E800877F5F
:102720008093E8008091E80080FFFCCF8091540303
:10273000BECF803899F0823809F0BBC180917E030A
:102740008F70873008F0B5C18093E9008091EB006D
:1027500085FB882780F91092E90006C080917603F6
:1027600090917703911182609091E800977F909308
:10277000E8008093F1001092F1008091E8008E77DC
:1027800094C1882309F482C1823009F092C18091FA
:102790007C03811185C180917E038F702FEF280FFC
:1027A000263008F086C18093E9002091EB0020FFDD
:1027B00077C1933031F48091EB0080628093EB001D
:1027C0006FC19091EB0090619093EB0021E030E0BD
:1027D00001C0220F8A95EAF72093EA001092EA00DE
:1027E0008091EB008860EACF811163C110917C0376
:1027F0001F778091E3008078812B8093E3008091A4
:10280000E800877F8093E8000E9429078091E80014
:1028100080FFFCCF8091E30080688093E30082E03A
:10282000111183E08093780344C18058823008F00E
:1028300040C180917C0390917D038C3D23E0920701
:10284000A1F583E08A838AE289834FB7F894DE0199
:10285000139620E03EE051E2E32FF0E05093570062
:10286000E49120FF03C0E295EF703F5FEF708E2F81
:1028700090E0EA30C0F0C7968D939D932F5F24318E
:1028800059F74FBF8091E800877F8093E8006AE2A4
:1028900070E0CE0101960E94D5078091E8008B7709
:1028A0008093E80006C1C096E7CF40917E03509127
:1028B0007F03292F33272330310509F444C078F5ED
:1028C0002130310509F46FC08BE390E0E9E5F7E0D2
:1028D0002230310509F0EDC02091E800277F2093D8
:1028E000E80020918003309181038217930708F458
:1028F0009C0140E02115310509F064C0411162C01E
:102900008091E80082FDC9CF80917803882329F265
:10291000853019F28091E80083FFF2CFBECF2132DB
:102920003105A9F12232310509F0C3C04115510525
:1029300009F443C04130510509F0BBC086EB90E07B
:10294000E3E6F6E0C9CF992781309105C1F0009701
:1029500059F0029709F0ADC0E6EAF7E0E4918E2F56
:1029600090E0E6EAF7E007C0E6ECF7E0E4918E2FAE
:1029700090E0E6ECF7E0009709F49BC0ADCFE4EB04
:10298000F7E0E4918E2F90E0E4EBF7E0F4CF41150F
:10299000510571F04130510509F08BC089E090E09C
:1029A000E4E8F7E099CF82E190E0E4E9F7E094CF42
:1029B00089E090E0EBE6F7E08FCF80E490E0E9E19A
:1029C000F7E08ACF80917803882309F466CF8530B9
:1029D00009F463CF8091E80083FD5FCF8091E80028
:1029E00082FD8ECF8091E80080FF84CF9091F3002C
:1029F0008091F2002115310519F08830910550F0D1
:102A000041E0089709F040E08091E8008E778093DC
:102A1000E80070CF44914093F10031962150310984
:102A20000196E8CF803809F044C08091E800877FA4
:102A30008093E800809179038093F1009ECE81110C
:102A400038C010917C031230A0F58091E800877F98
:102A50008093E800109379030E942907112311F055
:102A600084E005C08091E30087FDFACF81E0809388
:102A7000780342E061EC81E00E94480742E261ECA9
:102A800082E00E9448078091780313C080917C0304
:102A9000813079F481E0933009F080E0809377030E
:102AA0001092E9008091E800877F8093E8000E94FF
:102AB00029078091E80083FF0AC08091E800877FA2
:102AC0008093E8008091EB0080628093EB00AA96EF
:102AD000E3E00C94252C1F920F920FB60F92112455
:102AE0002F933F934F935F936F937F938F939F9316
:102AF000AF93BF93CF93DF93EF93FF93D091E90010
:102B0000DF708091EC00C82FC17080FDC0E810928A
:102B1000E9008091F000877F8093F00078940E9414
:102B2000BA121092E9008091F00088608093F00062
:102B3000CD2BCF70C093E900FF91EF91DF91CF9142
:102B4000BF91AF919F918F917F916F915F914F91C5
:102B50003F912F910F900FBE0F901F9018950E94DC
:102B600091122FEF84E39CE0215080409040E1F7E8
:102B700000C0000088E19AE00FB6F894A895809311
:102B800060000FBE90936000FFCF40910D0366235D
:102B900009F456C0242F30E0220F331FF901E05210
:102BA000FE4F90818D3C31F49195909315030E94D6
:102BB0006A1208958E3CC9F38F3C21F4919590934D
:102BC0001403F5CF803DD9F328523E4FF90190818F
:102BD000893D19F490931603EACF8A3D11F491953B
:102BE000F9CF8B3D21F4919590931703E0CF8C3D65
:102BF000D9F39FE2980F983070F4815D990B21E032
:102C000030E001C0220F8A95EAF780911303822BEE
:102C100080931303CCCF8D3D51F481E080930D035D
:102C200080910D03841719F20E94FC08C0CF8E3DDD
:102C300011F482E0F3CF8F3D09F0B9CF83E0EECFFE
:102C40008D3C39F49091150397FF09C0109215033C
:102C5000AECF8E3C69F4909115031916BCF38D5DCF
:102C6000833008F0A4CF10920D034111DDCF9FCF28
:102C70008F3C39F49091140397FFF1CF1092140315
:102C800096CF803D29F4909114031916BCF3E7CF39
:102C9000893D39F49091160319160CF7109216031A
:102CA00086CF8A3D29F49091160397FFD8CFF6CFAF
:102CB0008B3D39F48091170387FF79CF109217036A
:102CC00076CF8C3D29F4809117031816BCF36FCF93
:102CD0009FE2980F983008F0C2CF815D990B21E0F8
:102CE00030E0A90102C0440F551F8A95E2F7CA01DE
:102CF00080959091130389238BCF882399F19CEFC2
:102D0000980F913A40F4682F8AEE91E00E945308A0
:102D10000E94480E089590E2980F983050F4877002
:102D200091E001C0990F8A95EAF7892F0E94BE0BA6
:102D3000EFCF9BE5980F933028F490E080E00E945D
:102D4000D708089598E5980F9B3128F490E080E02B
:102D50000E94B208089593E3980F933118F460E04D
:102D60000E94C5150895CF93DF93EC010E947D1654
:102D7000CE010E94FF0C9E01205E310928303105F2
:102D800010F0CD2B29F40E94D50EDF91CF9108953C
:102D90000E94C00EFACF8732910509F4ACC0A8F5A5
:102DA0008232910509F493C0F0F48F31910509F452
:102DB00084C060F48E31910509F47AC09C013052D0
:102DC0002115304308F058C0992756C0803291052C
:102DD00009F478C08132910589F7662309F44CC063
:102DE0008CE590E049C08432910509F47AC008F47A
:102DF00073C08532910509F479C086329105F1F6E8
:102E00006623D1F181E690E037C0833222E0920759
:102E1000B1F1D8F48E3122E09207D9F140F4883331
:102E2000910561F6662341F181E390E025C080328F
:102E300022E0920799F1813242E0940709F0BECF77
:102E40006623D1F085E390E017C0853222E0920737
:102E5000D9F048F1863222E0920751F0873242E001
:102E6000940709F0ABCF662339F087E392E004C002
:102E7000662311F086E392E00E94B316089566235C
:102E8000D9F385E392E0F8CF6623B1F382E292E0D2
:102E9000F3CF662389F388E392E0EECF662361F3F4
:102EA0008FE192E0E9CF662339F381E392E0E4CF4A
:102EB000662311F389E590E0DFCF6623E9F28AE526
:102EC00090E0DACF6623C1F28BE590E0D5CF6623A0
:102ED00099F28DE590E0D0CF662371F28EE590E017
:102EE000CBCF662349F28FE590E0C6CF662321F26F
:102EF00080E690E0C1CF662309F4BECF82E690E081
:102F0000BBCFCF93C82F8823D9F18CEF8C0F813A98
:102F1000C8F580912B01882311F18091510387FF1F
:102F20001EC0EC2FE695E695E695F0E0E651FE4FE3
:102F3000828190E04C2F477021E030E002C0220FE8
:102F4000331F4A95E2F782239323892B91F06C2F4C
:102F50008AEE91E00E9453080E94480E0AC0ECEEEF
:102F6000F1E082EF91E02191C21789F38E179F075C
:102F7000D1F76C2F8AEE91E00E947D080E94480EE6
:102F8000CF91089580E28C0F883068F4C77021E0FB
:102F900030E001C0220FCA95EAF780911E03822B10
:102FA00080931E03EBCFEBE5EC0FE33040F4F0E051
:102FB000E558FE4F808190E00E94D708E1CFE8E518
:102FC000EC0FEB3150F4F0E0EE0FFF1FE258FE4F34
:102FD000808191810E94B208D3CF83E38C0F83312B
:102FE00078F661E08C2F0E94C515CACF1F93CF934E
:102FF000DF93182FD0E0C0E0893311F4C0E5D0E0B2
:10300000812F0E948117209739F4812F0E947D160D
:10301000DF91CF911F9108958FE99FE00197F1F71C
:1030200000C000002197EFCF0F931F93CF93DF9342
:10303000C42FD22FFC0182818823A9F0409345033D
:103040000E945E129093440380934303C77081E013
:1030500001C0880FCA95EAF70E94DC0EDF91CF917C
:103060001F910F91089510914503141332C0809160
:103070004303909144030E944F128A3A910548F508
:10308000C0E2CD0F1D17B9F080E2810F883040F407
:10309000177081E001C0880F1A95EAF70E94D50EDB
:1030A000C83048F481E09D2F977001C0880F9A9531
:1030B000EAF70E94DC0E802F0E94F617C83070F6E7
:1030C000D77081E001C0880FDA95EAF70E94D50E2B
:1030D000C5CFC77081E001C0880FCA95EAF7F6CF67
:1030E000CF93DF93EC010E94FF0C9E01205E31091B
:1030F0002830310510F0209741F40E94DC0E8C2F0F
:103100000E948117DF91CF9108950E94CB0EF7CFD7
:103110008732910509F4B3C0E0F58232910509F4D4
:103120009AC028F58F31910509F48BC098F48E313F
:10313000910509F481C0662329F020918203226061
:10314000209382039C0130522115304308F058C06F
:10315000992756C08032910509F478C081329105D3
:1031600051F7662309F44CC08CE590E049C08432E5
:10317000910509F47AC008F473C08532910509F409
:1031800079C086329105B9F66623D1F181E690E0E7
:1031900037C0833222E09207B1F1D8F48E3122E0B9
:1031A0009207D9F140F48833910529F6662341F15D
:1031B00081E390E025C0803222E0920799F18132CC
:1031C00042E0940709F0B7CF6623D1F085E390E0A1
:1031D00017C0853222E09207D9F048F1863222E00A
:1031E000920751F0873242E0940709F0A4CF66239A
:1031F00039F087E392E004C0662311F086E392E0A1
:103200000E94701808956623D9F385E392E0F8CF01
:103210006623B1F382E292E0F3CF662389F388E379
:1032200092E0EECF662361F38FE192E0E9CF66236F
:1032300039F381E392E0E4CF662311F389E590E06E
:10324000DFCF6623E9F28AE590E0DACF6623C1F2A8
:103250008BE590E0D5CF662399F28DE590E0D0CF55
:10326000662371F28EE590E0CBCF662349F28FE5BD
:1032700090E0C6CF662321F280E690E0C1CF6623BE
:1032800009F4BECF82E690E0BBCFB0E0A0E0EBE473
:10329000F9E10C94042C6C018B01E42E80912A013D
:1032A00082FF76C0C0914103D0914203CC15DD0569
:1032B00021F0C114D10409F06BC080912A018B7FE9
:1032C00080932A0121E081FD0FC080913F039091FE
:1032D00040036801C81AD90ACE010E94A40621E061
:1032E000C816D90608F420E02170F22E80912A0138
:1032F00020FB81F980932A01FE0193E0F695E79582
:103300009A95E1F7EE71FF27E15EFC4F2081318154
:10331000AE014F70552781E090E002C0880F991FE1
:103320004A95E2F7FF2079F1822B932B91838083DA
:1033300080911E0381FF08C080912A0180618093E3
:103340002A0182E00E94BE0B80911E0385FF08C007
:1033500080912A01806280932A0180E20E94BE0B44
:103360006F2DCE010E948818E1103CC060912A01A7
:103370006695617080914103909142030E94CB1643
:103380000E949D0E2BC08095909582239323CECFD3
:10339000F60183E0F695E7958A95E1F7EE71FF2750
:1033A000E15EFC4F96012F70332781E090E002C070
:1033B000880F991F2A95E2F7208131818223932378
:1033C00061E0892B09F460E0C6010E94CB16809170
:1033D0004103909142038C159D0591F21093400397
:1033E00000933F03CDB7DEB7E8E00C94202C0F9399
:1033F0001F93CF93DF938C01EB010E9470182097ED
:1034000041F4C8010E94B316DF91CF911F910F9133
:1034100008958FE99FE00197F1F700C00000219720
:10342000EECFACE0B0E0E7E1FAE10C94FF2B8E01C7
:103430000F5F1F4F88E0D8011D928A95E9F786EB50
:10344000C82E81E0D82EF12CE12CAA24A394B12C13
:1034500020EC822E21E0922EF60181916F018F3FA8
:1034600009F442C0F894E82FE295EF70F0E021A152
:103470008F70A50102C0440F551F8A95E2F7CA015B
:10348000922F982B91A392A18095892382A378945F
:1034900000C0EAEBF1E0712C31E021912F3F09F4FB
:1034A0006BC0A22FA295AF70B0E090968C9190E087
:1034B0002F7002C0959587952A95E2F780FD5CC034
:1034C000832F782A330F8E169F0639F7F60131972E
:1034D00080818F3F11F00E94750950EA5A95F1F7EB
:1034E000F801EE0DFF1D70828FEFE81AF80AA4E0D4
:1034F000EA16F10409F0B0CF48E050E0B8018BEAD9
:1035000092E00E946E2C009741F028E0F801ABEAAF
:10351000B2E001900D922A95E1F70091B402892B57
:1035200069F181E0809388020E945E129093870285
:103530008093860280918602909187020E944F12AA
:10354000059700F110E009541D4F44E050E06BEA8C
:1035500072E0C8010E946E2CB12C892B51F084E0DE
:10356000EBEAF2E0D80101900D928A95E1F7BB24D5
:10357000B3941092880207C080E0A3CF80918802A4
:103580008111D8CFB12C0E94F30FF82EE091B40234
:10359000882309F472C019861A861B861C860E2F92
:1035A00010E009541D4F8091A6028A3088F549EA3F
:1035B00050E1BE01675F7F4FC8010E94C00F8823A2
:1035C00009F44AC040E450E1BE01675F7F4FC80183
:1035D0000E94C00F882309F43FC01092A602809178
:1035E000B30290E044E050E0BE01675F7F4F895432
:1035F0009D4F0E946E2C21E020938F02892BF1F4C5
:10360000F12C1F2D812F8B292C96EDE00C941B2C77
:103610008091890290918A020E944F12843F9140CA
:1036200030F680918F02882359F3FE01399684E0A9
:10363000DF011D928A95E9F710928F02E091B302A3
:10364000F0E0E954FD4F89859A85AB85BC85808380
:103650009183A283B383D5CF8091A6028F3F31F0AF
:103660008F5F8093A6028A3008F4B9CF0E945E1261
:1036700090938A0280938902D4CFF0E0E954FD4F01
:1036800084E0AAE9B2E001900D928A95E1F78AE917
:1036900092E00E94C20680939902C0909E02D09050
:1036A0009F02E090A002F090A10280918B02909185
:1036B0008C02A0918D02B0918E02C816D906EA063E
:1036C000FB0611F410E09ECFC0928B02D0928C02C8
:1036D000E0928D02F0928E020E94F30F182F81115A
:1036E000F1CF0E944708C61AD70AE80AF90AC09221
:1036F000A702D092A802E092A902F092AA0282CF79
:10370000B0E0A0E0E6E8FBE10C94FA2B7C01FC01C0
:1037100083819481892B31F08081918189238F3F2E
:1037200009F09EC5CDB7DEB7E2E10C94162C8823D4
:1037300009F4DAC58091CE029091CF02F2E08F2792
:103740000E94430D80911E03827219F486EE0E943E
:10375000F61780916202877029F3F701828188232E
:1037600009F38091520382FFDDCF82E00E945C0D5D
:10377000D9CF882309F4B8C570E060E084E392E013
:103780000E94F71970E060E085E292E00E94F7196C
:1037900070E060E08CE190E00E94F719DACFCE0192
:1037A0007AC5C4317CE7D707B9F080F090912A013F
:1037B000892F8E7F90FF8160C5319CE7D90709F082
:1037C000BDC580932A010E949D0EB8C580912A0133
:1037D000816080932A01B2C580912A018E7FF1CF4A
:1037E00080912C0190912D01059790932D0180934C
:1037F0002C01A4C580902C0190902D018091000196
:103800009091010188169906E9F4809110028032A6
:10381000C9F4EAE0F2E08F0181918032E1F33AE00D
:10382000432EF8012081222309F488C5213009F0B4
:1038300079C0918182819130F1F50E5F1F4F0E9416
:10384000F6173FC0909201018092000180E28093C0
:103850001002B12CA12C10920F024AE0C42E42E0BB
:10386000D42E86015AE0252E312C412C512CC50135
:10387000B401A20191010E943D2C605D603319F4F6
:10388000C016D10631F081149104A104B10409F4E9
:1038900060E2F8016483C501B401A20191010E94B4
:1038A0003D2C49015A010150110925E032E0201751
:1038B0003107E9F6AECF923039F40E5F1F4F0E9408
:1038C00081170F5F1F4FADCF933029F40E5F1F4F4D
:1038D0000E947D16F6CF943019F00F5F1F4FF1CF85
:1038E0000E5F1F4F30E020E0A8014F5F5F4F805315
:1038F000990B8A30910550F02150310910F38FE96E
:103900009FE00197F1F700C00000F6CF429EB001A2
:10391000439E700D11249C01260F371FF8018181F1
:103920008A01E2CFE22FF0E0E452FF4F5490822F61
:1039300086958695869590E0FC01E453FF4FA49010
:103940002770B12C022E02C0B594A7940A94E2F716
:10395000E1E0AE22BB24FC01E454FF4F8490912CA3
:10396000022E02C0959487940A94E2F7F1E08F2228
:103970009924FC01E455FF4FC490D12C02C0D5948A
:10398000C7942A95E2F721E0C222DD24A114B104F4
:1039900019F081EE0E9481178114910419F086EECE
:1039A0000E948117852D0E94F6178114910419F049
:1039B00086EE0E947D16A114B10419F081EE0E94DA
:1039C0007D16C114D10409F47CCF8CE238CF8091EC
:1039D0002A018F7EC13ED10531F0C53ED10559F592
:1039E00080912A018F7D80932A0180912A0180FF96
:1039F00027C0F7018281CB32D105B1F160F59E017C
:103A0000245031092432310578F1CE31F2E0DF075C
:103A100059F108F063C0CE31D10530F0C832D1057C
:103A200018F1C833D10501F1882351F010924203F7
:103A30001092410305C0CE01905281159043A8F623
:103A4000FE01E851FC47E730F10508F081C4EF586A
:103A5000F04D0C945F2CCD32D105B8F2C933D105AD
:103A600018F0C436D10589F6882309F49CC030913A
:103A70001E0380918302282F232B922F9D7F09F410
:103A80003FC01092420310924103FE0123E0F695DD
:103A9000E7952A95E1F7EE71FF27E15EFC4F9E0165
:103AA0002F70332781E090E002C0880F991F2A957C
:103AB000E2F7809590952081318182239323918331
:103AC000808360E0CE010E948818809183028D7F00
:103AD0000E94B40B82E00E945C0D3BCEC03232E00B
:103AE000D30708F4A1CFC23262E0D60708F4BCCFF6
:103AF0009E01235232402530310508F095CFB4CFD6
:103B000096E0F701A8ECB2E001900D929A95E1F7EA
:103B10001092CA021092CC021092CB020091410383
:103B200010914203C017D10739F590912A0191FDF8
:103B300023C040913F0350914003F301E41BF50B78
:103B4000EA3AF105C8F431FF06C0906190932A016A
:103B500082E00E94BE0B80911E0385FF08C0809109
:103B60002A01806280932A0180E20E94BE0B60E0FD
:103B7000C8010E948818EDCD90912A0121FB91F98E
:103B800090932A018D7F0E94B40BD0934203C0937F
:103B900041037092400360923F0380912A01846048
:103BA00080932A0197CF970140E0B301CE010E9494
:103BB0004519CFCD06E221EE41EE6AE17CE7C7016F
:103BC0000E941418C6CD07E225EE45EE6BE17CE7B6
:103BD000F6CF06E221EE40EE68E17CE7F0CF07E2A7
:103BE00025EE44EE69E17CE7EACF06E221EE42EE03
:103BF0006CE17CE7E4CF07E225EE46EE6DE17CE781
:103C0000DECF08E221E045EE6EE17CE7D8CF80917F
:103C1000510381608093510395C080915203886065
:103C2000809352038FC0809151038260F3CF8091C3
:103C300051038460EFCF809151038860EBCF809176
:103C400052038160EDCF809152038260E9CF809171
:103C500051038061DFCF809151038062DBCF80917F
:103C600051038064D7CF0E949112809151038068E4
:103C7000D1CF809151038C60CDCF8091520383606E
:103C8000CFCF809151038E7FC5CF80915203877F24
:103C9000C7CF809151038D7FBDCF809151038B7F22
:103CA000B9CF80915103877FB5CF809152038E7F2A
:103CB000B7CF809152038D7FB3CF809151038F7E18
:103CC000A9CF809151038F7DA5CF809151038F7B28
:103CD000A1CF0E949112809151038F779BCF809149
:103CE0005103837F97CF809152038C7F99CF80912E
:103CF000510382FB992790F921E0922790FB82F9EA
:103D000090FB83F987CF80915203982F9095917003
:103D10008E7F892B90FB81F983CF90915103892F5E
:103D20008F7B96FF806476CF0E9491129091510311
:103D3000892F97FB87F980586DCF61E08EE090E086
:103D40000E94312F609151037091520384E090E002
:103D50000E944F2F0E949112FCCC60E0EFCF909117
:103D60005103892F8F7E94FF806154CF909151032E
:103D7000892F8E7F90FF81604DCF90915203892FC4
:103D8000877F93FF88604CCF0E949112FFEF24E35E
:103D90003CE0F15020403040E1F700C000000E94BC
:103DA00036086FEF7FEF90E080E00E944F2F0E9477
:103DB000AF158091520382FB882780F991E0892713
:103DC0000E942910F7018281C081D181882309F4E2
:103DD0004AC0CE010E94FB0B182F682FCE010E9413
:103DE0006F0CBE01812F0E94710A0E94900AD82F89
:103DF000C92FA82EF7011281D580D2949FE0D92235
:103E0000809162028770F1F0C12E1123E1F08C2FB6
:103E1000807F803451F080E28D0F883098F0D1108F
:103E200004C08C2F807E803269F08091520382FF23
:103E300009C082E00E945C0D809162028770CC24F0
:103E4000C3948111C12CBC2EB2948FE0B822FBE048
:103E5000FB1508F469C0EB2DF0E0E858F04D0C9428
:103E60005F2C80E0ADCFCE010E943C0C182FB9CF63
:103E70000C2F0F70C07F11F00295007F1123B9F055
:103E8000002369F080E28D0F883010F0A11009C086
:103E900080911E03082B00931E030E94480E8D2F55
:103EA00041C080918203082B00938203F6CF8D2FAF
:103EB0000E947D160023C1F1D05ED83010F0A11011
:103EC00004C0802F0E94BE0B06C000958091820323
:103ED0000823009382030E94480E26C00C2F0F7007
:103EE000C07FC03211F00295007FAA2059F021E076
:103EF000A21609F464C0112309F46EC0DD2009F490
:103F000064C0CDCF8091520382FD37C0112379F177
:103F1000002339F080911E03082B00931E030E949A
:103F2000480E80E00E948117EB2DE850FF0B34977C
:103F300010F40E941810CC20A9F08091620280FD3C
:103F400011C0F70112828595859585950E94780D9F
:103F5000C7010E94801B8091620285958595859599
:103F60000E944A0D60E0C7010E94D40CDBCB80E0C8
:103F70000E947D160023C1F2A4CF112371F080911D
:103F80008302802BD11003C00E94DC0ECDCF31E024
:103F9000D312FACF0E94B40BC7CFD11006C00E9433
:103FA000AE0B802F0E94D50EBFCF61E0D61609F46C
:103FB000BBCF802F0E94D50E0E94AE0BB5CF112330
:103FC00031F075E07D1508F4AFCF802FDDCF84E0B0
:103FD0008D1508F4A9CFE5CFDD2019F399E3A912D7
:103FE00009C0EFEFF7EE23E0E150F0402040E1F7A9
:103FF00000C000008D2F0E947D1696CF8C2F8695D5
:104000008695837069F0813009F08ECF8D2F9C2FBB
:104010009370111102C080E090E00E94B20884CF3A
:104020008D2F9C2F9370111102C080E090E00E94B0
:10403000D7087ACF612F8D2F0E94C51575CF8C2F91
:10404000837009F03FC011116FCF4D2F42954695F7
:104050004770440F440F2D2F2F7030E0042E02C004
:10406000220F331F0A94E2F790E080E0D4FF09C0EA
:104070008FE090E002C0880F991F4A95E2F7809583
:104080009095C695C695C370C23099F078F440916A
:10409000B5025091B602C13039F0822B932B8423A4
:1040A00095230E94A50C40CF242B352B822B932BDC
:1040B000F8CF822B932B2091B5023091B602822744
:1040C0009327EFCF8695112311F08C2F81708823D1
:1040D00009F42ACF4D2F429546954770440F440F5F
:1040E0002D2F2F7030E0042E02C0220F331F0A94B0
:1040F000E2F790E080E0D4FF09C08FE090E002C0DA
:10410000880F991F4A95E2F780959095C695C695B8
:10411000C370C23099F078F44091CE025091CF0232
:10412000C13039F0822B932B842395230E94430DB9
:10413000FBCE242B352B822B932BF8CF822B932B6A
:104140002091CE023091CF0282279327EFCFCF70FC
:10415000112329F08C2F0E94780D8D2F15CF8D2FD4
:104160000E94D50E8C2F0E944A0DDECE8D2F32EF8D
:10417000A31699F13A1570F060EFA616D1F071EF21
:10418000A71691F0112309F45BC0D11088CE8C2FB3
:104190008F7127C093EFA91639F1E4EFAE12F2CF79
:1041A0008091520382FD2EC08C2F8F711123D9F282
:1041B00018C0112369F0F4E0FD1508F4B5CECF71F5
:1041C00081E090E002C0880F991FCA95E2F7B8CF4E
:1041D00025E02D1508F4A8CEF2CF8C2F8F71111188
:1041E000C2CF0E94780DA0CE90E080E0112309F4A8
:1041F0009DCFCF7181E090E002C0880F991FCA95D2
:10420000E2F794CF112389F0CF718C2F0E94780DA3
:104210008091520382FF07C038E0C39FC001112480
:104220008360809362028C2FDCCF81E00E945C0D62
:1042300061E06D1508F078CE82E00E945C0D74CECE
:10424000DD2059F0893309F0D5CE7FEF87EE93E07A
:10425000715080409040E1F7CBCE8C2F8F7183CF8F
:1042600061E0C7010E94D40CEC01F7018281C034E7
:10427000FEE7DF0709F45BCAC1342EE7D20709F471
:1042800078CA882389F1CE0190528115904308F0B5
:1042900086CACE01992720E28C33910520F4FC01D7
:1042A000E15CFE4F20811F922F939F938F93F70124
:1042B00080811F928F9381811F928F938EE291E074
:1042C0009F938F931F9288E18F9380ED92E09F934D
:1042D0008F930E94842C2DB73EB7225F3F4F0FB6BD
:1042E000F8943EBF0FBE2DBF0E945E123C01F70145
:1042F0008281882309F46BCB80912A0182FF08C058
:1043000028EC32E040E0B30190E080E00E944519E3
:10431000C231FCE7DF0709F46DCA08F042CAC031B8
:104320003CE7D30709F45CCA80912C0190912D01E0
:104330000596C1316CE7D60709F457CACE019052F1
:104340008115904308F051CB109242031092410323
:10435000F7018281882379F110924503CE019057AD
:10436000839798F484E090E00E942B2F909352035F
:1043700080935103FE01E150F047E232F10508F06D
:1043800046CCEC57F04D0C945F2CC6313CE7D3077C
:1043900001F580911E038A7A91E009F490E09093F0
:1043A000110269E2811165E38AEE91E00E947D08C5
:1043B0000E94480ECEC9C631DC4709F003CD80917A
:1043C000110269E2811165E38AEE91E00E945308CF
:1043D000EFCFC3307CE7D70709F4E3CC50F4C11525
:1043E0009CE7D90709F4D0CCC130DC4709F4DFCC15
:1043F000E9CCCB35FCE7DF0709F433CDCC352CE72E
:10440000D20709F4D6CCCA35DC4709F0DBCC81E011
:10441000D7CCB0E0A0E0EFE0F2E20C94052C809164
:104420002F02807F09F04EC080912C02882309F46E
:1044300049C0C091610286E0D82E809130028C176D
:1044400009F440C080912D0290912E02D0E0009797
:10445000F1F120912A0230912B02422F43234F3F4A
:10446000B1F1DC9E8001DD9E100D1124F801EF5C9E
:10447000FD4F418143132BC03081321328C022816C
:10448000211125C0E380F480E81AF90A60E08AE28D
:1044900092E00E94D40C8AEAE816F104C0F48091FC
:1044A0002F028F70806180932F02F801EA5CFD4F2C
:1044B00080818F70806180838AE292E00E94801BFD
:1044C0000E94F10BCDB7DEB7E7E00C94212C2196CA
:1044D000C770B3CFA1E1B0E0E0E7F2E20C94FC2BAF
:1044E0008C0185E0F801DE011D9601900D928A9500
:1044F000E1F7F801E2808AE2A82E82E0B82E8090EF
:104500002D0290902E02A40160912B0280912A022C
:104510000E94E50B482E882309F47FC1F801C3806F
:10452000D480F0902C02C601881999094C01FF2013
:1045300009F425C15080618060E0C5010E94D40C5F
:1045400070902F029AEA8916910408F0D0C0409129
:104550002D0250912E02B0902A02A0902B02872D9E
:10456000807F6A2D09F07CC08B2D0E94E50BFE2C0C
:104570008823D9F0F80181818A1117C080818B11BD
:1045800014C0E11012C0872D8F70806180932F02BC
:104590008AE292E00E94801B80912F02F8018583BD
:1045A0008F2D6196E0E10C94182CA601662D852DC7
:1045B0000E94E50BD82E81E08E25D11001C080E04D
:1045C00080FF05C04E2D662D852D0E94C50B81E014
:1045D0008E25D11001C080E0F82FF170DF2E80FF12
:1045E00035C04E2D662D852D0E94C50BC82E81111C
:1045F0002DC05D866E868D859E850E942F0C292F8D
:1046000022952F70243058F49F70223088F099231F
:1046100099F0F8019581907F79F4FC2CC1CF2A5F45
:104620002F70223068F0C8010E94801BCD2CF5CF7E
:10463000992311F0882389F3805E883070F3F3CFDB
:10464000803F58F3815F833070F7E7CFEE2009F4A5
:10465000A7CF80912F02816080932F02F12CA0CFF1
:104660008B2D0E94E50BF82E8823B1F0F801818193
:104670008A1112C080818B110FC0E1100DC07582AC
:10468000C8010E94801B86E0F801AAE2B2E0019016
:104690000D928A95E1F784CFC8010E94AA0C882365
:1046A00001F1EE20F1F080912F02803270F0209124
:1046B0002A0230912B0238872F831986DB86CA861F
:1046C0008C87CE0107960E94801B86E0F801AAE243
:1046D000B2E001900D928A95E1F70E940922F42C34
:1046E0005FCFC8010E94801BFF24F39459CF872D10
:1046F000807F51F48AE292E00E94801B86E0F501FF
:1047000011928A95E9F7AACF90902A0280902B0205
:1047100040912D0250912E02682D892D0E94E50BAB
:10472000F82E882399F0F801818188110FC08081CB
:1047300089110CC0E1100AC07582C8010E94801B5B
:1047400086E0F50111928A95E9F72ACFC8010E9407
:10475000AA0C882331F2EE2021F280912F028032C0
:1047600008F4B3CF20912A0230912B023A83298397
:104770001B82DD82CC828E83CE010196A4CF60E0C5
:104780008AE292E00E94D40CFAEA8F169104C0F6F5
:10479000EE2009F4A6CF90902A0280902B02A090E0
:1047A0002D02B0902E02A501682D892D0E94E50BE7
:1047B000F82E882319F1F801818188111FC08081AA
:1047C00089111CC0CA18DB08FAEACF16D10408F018
:1047D0005ACF90912F0290FD56CF907F09F453CF7E
:1047E00080912F02F8018583903F09F449CF982FDB
:1047F000907F905F8F70892B858342CFC8010E9484
:10480000AA0C811162CF80912F02816080932F02C8
:10481000C8010E94801BFE2CC3CEEE2009F461CF9C
:10482000C8010E94AA0CF82E882309F45ACF86E00A
:10483000F801AAE2B2E001900D928A95E1F7809129
:104840002A0290912B020E942F0C0E940922A8CECE
:10485000A7E1B0E0EEE2F4E20C94092C4B8B5C8B08
:104860006D8B7E8B8F8B6111109282031A8A198A4D
:1048700085E0FE017396DE011D9601900D928A95EA
:10488000E1F786E0FE013D96DE01179601900D925C
:104890008A95E1F7CE0107960E946A22811112C023
:1048A00086E0FE013796DE01119601900D928A9501
:1048B000E1F78A859B85892B29F08F81988589234B
:1048C0008F3F81F516E024C096E0929FD001939F20
:1048D000B00D1124AF5CBD4FFE01319601900D92D9
:1048E0009A95E1F7809330020E94F10BEBCF819F04
:1048F000C00111248F5C9D4F0E946A22882371F0B1
:104900008091610290E001968770992780936102FF
:1049100080916102909130028913E9CF6796E3E0BC
:104920000C94252C2091300230E0C901019687704B
:104930009927409161024817190631F60E94911299
:10494000109230021092610286E0EAE2F2E0DF01AA
:104950001D928A95E9F7B6CFA5E0B0E0E2EBF4E26C
:104960000C94082C0E945E128C018091840290911C
:10497000850280179107A1F08FEF89838A831B82BC
:104980000E945E128160782F9D838C8349815A81B9
:104990006B818D810E9428241093850200938402EC
:1049A0002596E4E00C94242C1F921FB61F9211242C
:1049B0008F939F93AF93BF9380914C03811113C04A
:1049C00080914D0390914E03A0914F03B0915003FD
:1049D0004196A11DB11D80934D0390934E03A0936A
:1049E0004F03B0935003BF91AF919F918F911F9050
:1049F0001FBE1F901895CDB7DEB72D970FB6F89450
:104A0000DEBF0FBECDBF85B7806885BF85B7806824
:104A100085BF84B7877F84BF0FB6F894A89580912F
:104A20006000886180936000109260000FBE80E893
:104A300090E00FB6F89480936100909361000FBEF0
:104A400083E799E09093E9018093E8010E94D906F9
:104A50000E947A078091E20084608093E20078945B
:104A6000809178038823A1F01091E9001F70909144
:104A7000EC00892F817090FD80E8182B1092E900DE
:104A80008091E80083FD0E94BA121F701093E90024
:104A900082E084BD93E095BD9AEF97BD80936E0050
:104AA0001092A7021092A8021092A9021092AA02D4
:104AB0000E94F30F80931A010E94F30F81110E944C
:104AC000842A80911A0180911A0194E0811190E06A
:104AD0009093B40284E0891B8093B30284E90E941E
:104AE000750986E60E94750987E90E94750986ECBA
:104AF0000E9475090AEB11E080ECE82E81E0F82EA7
:104B0000D8018D918D018F3F11F00E947509E0163B
:104B1000F106B1F788E0E7EBF2E0DF01282F1D9204
:104B20002A95E9F7EBEAF2E0DF011D928A95E9F7B1
:104B300090E080E00E942B2F873E9E4F09F45EC0DC
:104B400067EE7EEF90E080E00E944F2F60E082E011
:104B500090E00E94312F60E083E090E00E94312FCE
:104B60001092B6021092B50260E074E184E090E029
:104B70000E944F2F60E086E090E00E94312F6FEF9F
:104B800087E090E00E94312F40E050E0BA0188E0D9
:104B900090E00E94432F60E08DE090E00E94312F72
:104BA00040E050E0BA0188E190E00E94432F60E0CD
:104BB00087E190E00E94312F40E050E0BA018CE1A3
:104BC00090E00E94432F70E060E080E290E00E945D
:104BD0004F2F40E050E0BA0188E190E00E94432F5F
:104BE00040E050E0BA018FE090E00E94432F40E0A7
:104BF00050E0BA0183E190E00E94432F82E090E010
:104C00000E94232F8093BF0284E090E00E942B2F0C
:104C100090935203809351030E94111AEFEFF6E72D
:104C200021E0E150F0402040E1F700C000000E9488
:104C3000111A0E94F30FE4E08111E0E0F0E0E95482
:104C4000FD4F808181FF08C06FEF7FEF90E080E033
:104C50000E944F2F0E94360883E090E00E94232F8D
:104C600090E00E94A50C0E94F30F8111B2C082E077
:104C70008093080380E8809383030E943E296DE0BF
:104C800070E08FEE95E00E94E60E892BE9F58091A9
:104C9000080363E070E081FD9EC08CEE95E00E9409
:104CA000E60E892B89F56DE070E08CED95E00E94B1
:104CB000E60E892B49F50E944708605A75418F4FCF
:104CC0009F4F609318037093190380931A03909376
:104CD0001B03E6E8F3E080E092E0DF019C011D9217
:104CE00021503040E1F7F0938D05E0938C058FEF74
:104CF0009FEF909385038093840381E080931D034D
:104D000080931C03109209030E94F30F811102C0CB
:104D10000E94872A8BE191E0909349038093480396
:104D200018E1212E312C8091780300E112E18530C9
:104D300009F48CC00E94111AA0ECEA2EA2E0FA2E0F
:104D4000B7EBCB2EB2E0DB2ED601F70191918D911E
:104D500028EC32E02E173F0709F482C09817B1F310
:104D60000E94F30F882E10E0D6010D916D01F7011E
:104D700091907F01901629F19026B12CAA24A3943A
:104D8000892D8A21B1F08820A1F0BF82188791E097
:104D9000802F8A2109F490E099870E945E12816039
:104DA000782F9B878A874F81588569858B850E94DC
:104DB0002824B394AA0CF6E0BF12E2CFF701319792
:104DC00000831F5F183081F60E944708DD24D394CA
:104DD0004CC080E04DCF89EE95E061CF80917803A3
:104DE000843021F10E94100F10924C0330E40FB672
:104DF000F894A895209260000FBE3093600083B7AE
:104E0000817F846083BF83B7816083BF78948895F6
:104E100083B78E7F83BF0FB6F894A895809160000A
:104E2000886180936000109260000FBE80917703CC
:104E3000882361F00E94111AE7EBF2E08191811161
:104E400007C28FEB92E08E179F07C1F7809178031E
:104E5000853009F4C3CF0E9491120E9418106ACFC6
:104E600098137ECF0E94AC24D12C0E94F30F88238C
:104E7000F9F080912A0182FF1BC00E945E127C0122
:104E800080913F03909140035701A81AB90A0091FD
:104E9000410310914203C8010E94A406A816B90656
:104EA00038F028EC32E041E0B701C8010E94451912
:104EB00080911D03882309F460C080910A039091BA
:104EC0000B030E944F12C297C0F10E945E12909392
:104ED0000B0380930A0386E893E090938D058093FB
:104EE0008C050E94F30F882309F4D0C087E196E077
:104EF0000E94080EE091CE02F091CF02EF30F10552
:104F000058F4EA55F04D0C945F2C8FE096E00E9427
:104F1000080E81E00E94160E00ED12E0D8010D90FF
:104F20000020E9F78D0101501109F0EDEF2EF2E0BC
:104F3000FF2EE016F10608F4A3C08091840390913F
:104F40008503892B09F0A7C080911C038823A9F051
:104F50000E944708009118031091190320911A0329
:104F600030911B03601B710B820B930B6F3F7F4FC4
:104F70008F4F9F4710F40E94100FD1100E942B0FEB
:104F800086E0E2E1F3E0DE01119601900D928A9550
:104F9000E1F7109214031092150310921603109269
:104FA00017038B819C81892BC1F080911003909114
:104FB00011030E944F12E0910D03F0E0EE0FFF1F6E
:104FC000E053FE4F208131812817390730F48B815F
:104FD000809314038C81809315038E819D81892B8E
:104FE000C1F080910E0390910F030E944F12E09147
:104FF0000D03F0E0EE0FFF1FE853FE4F20813181DB
:105000002817390730F48D81809316038E818093A1
:10501000170346E050E0BE016F5F7F4F82E193E0EF
:105020000E946E2C892B61F48091140390911503DA
:10503000892B90911603892B90911703892B11F0DE
:105040000E946A1286E0FE013196A2E1B3E001906F
:105050000D928A95E1F70E94181090910C03891720
:1050600009F461CE80930C030E9447085CCE89E06E
:1050700096E04DCF83E096E04ACF8CEF95E047CFA6
:10508000F70181917F010E94880D53CF8FE196E057
:105090000E94080E52CF80911D03882309F454CF3B
:1050A00080910903811150CF0E942B0F209184031E
:1050B000309185032115310509F446CF80E041E0A8
:1050C00050E0082F10E07A01082E02C0EE0CFF1C01
:1050D0000A94E2F7B70162237323672B11F48F5F01
:1050E000F0CF9091080390FF9AC0880F880F880F27
:1050F0008093250110922801895F8093260183E027
:105100008093290124E630E047E050E063E271E05B
:1051100088E70E94DE29892B09F016CFA80175E0E7
:10512000440F551F7A95E1F78091080380FF89C0ED
:10513000E8EEF2E080E2DF011D928A95E9F7E4EC07
:10514000F1E0FD87EC8700EC11E067E0962E882403
:105150008394AC85BD852D91BD87AC87F8014190C6
:105160008F01440E552E511CC2018A579C4F2C01B1
:10517000E22FF0E0E851FD4F30E020E0692C621AA8
:10518000C82C022E01C0CC0C0A94EAF7520190E020
:10519000D5018D915D018C21662D691B6770762E7E
:1051A000062E000C770BB82F01C0BB0F7A94EAF7DC
:1051B0007B2E7195619571096770772701C086957F
:1051C0006A95EAF7782A8081782A70829F5F983002
:1051D000F9F62F5F3F4F31962830310579F6EC858F
:1051E000FD85E85CF14009F0B4CF04E610E020E270
:1051F00030E048EE52E060E488E70E94FF29892B06
:1052000009F0A2CEE094F0948091840390918503FC
:10521000E822F922F0928503E092840395CE8295EC
:10522000880F8076809325019801369527953695CD
:10523000279520932801815E8093260110922901F1
:1052400061CF4A575C4F04E610E020E230E0D3CF54
:1052500009BD19BD09B400FEFDCF8091D8008F7D36
:105260008093D8008091E00082608093E00080917C
:10527000E00081FDFCCF0E949112E8CD1092B900B0
:105280008CE08093B8000895B0E0A0E0EAE4F9E291
:105290000C94012CB82EEB010E945E126C01EE24DE
:1052A000E394F12CC431D10560F025E0E22EF12C1D
:1052B000CF3FDC0731F0CE0164E170E00E94E62BC5
:1052C0007B0184EAA82E94E8992E1092BC00A0924B
:1052D000BC000E945E128C018091BC0087FF0DC053
:1052E0008091B900887F8830F9F08091B900887F7B
:1052F0008031D1F00FEF1FEF08C0C8010E944F129C
:10530000E816F90648F70EEF1FEFCF3FDC07E9F28A
:10531000C6010E944F12C817D907B8F6C801CDB709
:10532000DEB7EBE00C941D2CB092BB009092BC0059
:105330000E945E128C018091BC0087FF0AC08091A0
:10534000B900887F883111F08034A1F610E000E0C8
:10535000E5CFC8010E944F12E816F90660F7D3CFD7
:105360000F931F93CF93DF93EB018093BB0084E8EF
:105370008093BC000E945E128C018091BC0087FF6C
:1053800011C02091B900287F81E090E0283211F40B
:1053900090E080E0919581959109DF91CF911F91E7
:1053A0000F910895CF3FDC0741F3C8010E944F12CF
:1053B000C817D90710F78EEF9FEFEFCFB0E0A0E04E
:1053C000E4EEF9E20C94042C6B018A017901B90135
:1053D0000E944429E6010C0D1D1DC017D10711F0D4
:1053E00097FF08C024E92093BC00CDB7DEB7E8E002
:1053F0000C94202CB70189910E94B029EECFB0E027
:10540000A0E0E5E0FAE20C94042CC62F6A017901D1
:10541000B8010E94442997FD0CC0B8018C2F0E944E
:10542000B029E601EC0CFD1CCE15DF0511F097FF4D
:1054300008C024E92093BC00CDB7DEB7E8E00C94A7
:10544000202CB80189910E94B029EECF84E9809385
:10545000BC0008958EE14A9B02C08150E1F74A9B4F
:10546000FECF08955A9880E28A95F1F75A9A0895E6
:10547000FC013BE03A95F1F798E020E080E031E074
:1054800040E14A95F1F7880F4A9B02C081602327CB
:1054900042E04A95F1F7000040E14A95F1F791505A
:1054A00079F790E19A95F1F799B132E03A95F1F7F1
:1054B000000040E14A95F1F792FB992790F9922775
:1054C0002081920F90830895A1E0B0E0EAE6FAE22D
:1054D0000C94062C19828C017C01E60EF11C0E1531
:1054E0001F0541F481E09981911180E02196E6E069
:1054F0000C94222C0E942A2ACE0101960E94382A5E
:10550000F80181938F01EBCF529A5A9A08955298DD
:105510005A9AEA9AE9E6F0E080818F7C80830895C8
:105520006150770B91E001C0990F6A95EAF720E08E
:1055300031E0911108C0222391F05A9A80E28A95B5
:10554000F1F75A980895492F482339F05A9A23279A
:1055500040E24A95F1F79695ECCF5A98F9CF5A98D0
:10556000EDCFFF920F931F93CF93DF93EC018C014C
:10557000060F111DC017D10729F4CDB7DEB7E5E03E
:105580000C94232CF9900E94322A68E08F2D0E94FF
:10559000902AF0CF1F920F920FB60F9211240F9303
:1055A0001F932F933F934F935F936F937F938F93AB
:1055B0009F93AF93BF93EF93FF93CF93DF930F929C
:1055C000CDB7DEB719820E942A2ACE0101960E9429
:1055D000382A082F069506950695282F22952570BE
:1055E000902F9570290F922F937026952695920FE4
:1055F000982797708981982B09F05CC0043008F0D7
:1056000059C080E18A95F1F75A9A529A82E08A95B8
:10561000F1F700C05A9888E0089F80011124D80152
:10562000AE5FBE4F1696ED91FC9117973097A9F09B
:105630006091B4017091B50114962D913C9115972C
:10564000260F371F11968D919C911297680F791F25
:1056500013964C9113978C910995F801EE5FFE4FCC
:105660006381662351F02091B4013091B5018481AA
:105670009581820F931F0E94B12A0E94322A80E1F5
:105680008A95F1F75A9852985A9A80E18A95F1F7DB
:10569000F801EE5FFE4F6081662351F02091B40166
:1056A0003091B50181819281820F931F0E94642AFB
:1056B0000E942A2A0F90DF91CF91FF91EF91BF9125
:1056C000AF919F918F917F916F915F914F913F919A
:1056D0002F911F910F910F900FBE0F901F90189553
:1056E0000F931F93CF93DF93EC0104970CF04CC002
:1056F000F894529A5A9885E08A95F1F700009C2F09
:10570000969595708C2F8570980F892F837096953C
:10571000969523E0CC0FDD1F2A95E1F7980F8E01B7
:10572000092B0E94322A00C068E0802F0E94902A34
:1057300080E18A95F1F752985A9A4A9B1EC087E0F9
:1057400090E04A991CC0FE01EE5FFE4F6381662324
:10575000F9F02091B4013091B50184819581820FD7
:10576000931F0E94642A811113C0529A5A9A789406
:10577000DF91CF911F910F91089500C0DECF019767
:1057800029F4529A5A9A789480E0F2CF00C0D9CF87
:105790000E942A2A80E28A95F1F75A98529A80E16B
:1057A0008A95F1F7CE5FDE4F6881662351F0209134
:1057B000B4013091B50189819A81820F931F0E94B3
:1057C000B12A0E94322A789481E0D2CFAA1BBB1B57
:1057D00051E107C0AA1FBB1FA617B70710F0A61BF1
:1057E000B70B881F991F5A95A9F780959095BC0112
:1057F000CD0108952F923F924F925F926F927F92C8
:105800008F929F92AF92BF92CF92DF92EF92FF92D0
:105810000F931F93CF93DF93CDB7DEB7CA1BDB0B7C
:105820000FB6F894DEBF0FBECDBF09942A88398821
:1058300048885F846E847D848C849B84AA84B98428
:10584000C884DF80EE80FD800C811B81AA81B98134
:10585000CE0FD11D0FB6F894DEBF0FBECDBFED0148
:105860000895991B79E004C0991F961708F0961BBC
:10587000881F7A95C9F780950895A1E21A2EAA1B70
:10588000BB1BFD010DC0AA1FBB1FEE1FFF1FA217F0
:10589000B307E407F50720F0A21BB30BE40BF50BED
:1058A000661F771F881F991F1A9469F76095709576
:1058B000809590959B01AC01BD01CF010895EE0F3D
:1058C000FF1F0590F491E02D0994FB01DC0102C05B
:1058D00005900D9241505040D8F70895FB01DC012E
:1058E00004C08D910190801921F441505040C8F7B7
:1058F000881B990B0895FB01DC0102C001900D92F9
:1059000041505040D8F70895AEE0B0E0EAE8FCE23C
:105910000C94082C0D891E898F89988D26E02C8384
:105920001A83098397FF02C080E090E801979E8365
:105930008D83AE01455E5F4F698D7A8DCE010196F4
:105940000E94B42C4D815E8157FD0AC02F8138859D
:10595000421753070CF49A01020F131FF80110822B
:105960002E96E4E00C94242CABE0B0E0EAEBFCE2F1
:105970000C94FA2B7C013B018A01FC0117821682F0
:10598000838181FFB9C19AE0292ECE0101965C0185
:10599000F7019381F30193FD859193FF81913F017D
:1059A000882309F446C1853239F493FD859193FF2C
:1059B00081913F01853229F4B70190E00E94952E34
:1059C000E7CF912C412C512CFFE1F51538F08B32AB
:1059D00009F188F4803201F1833221F157FC3AC099
:1059E00020ED280F2A3040F556FE1FC0929C200D56
:1059F0001124922E06C08D3291F0803379F768948D
:105A000050F8F30193FD859193FF81913F0181113E
:105A1000DBCF20C0689451F8689452F8F2CF6894B4
:105A200053F8EFCF689454F8ECCF429C200D11242A
:105A3000422E689455F8E5CF8E3229F456FCF9C011
:105A4000689456F8DECF8C3619F4689457F8D9CF9D
:105A50008836B9F2982F9F7D95549330C0F08336E5
:105A6000A1F18337C1F1833509F05BC0F801C19022
:105A7000D1908F01692D70E056FC02C06FEF7FEF6F
:105A8000C6010E947F2E4C01689457F80AC00C5F33
:105A90001F4F2FE3298388248394912C6501E89478
:105AA00057F853FC04C04814190409F018F5342CB5
:105AB0008114910431F5332009F46ACFB70180E2F3
:105AC00090E00E94952E3A94F6CFF8018081898368
:105AD0000E5F1F4FE0CFF801C190D1908F01692D6B
